{
  "contractName": "BluDacTokenBridge",
  "abi": [
    {
      "inputs": [
        {
          "internalType": "uint8",
          "name": "_chainId",
          "type": "uint8"
        }
      ],
      "stateMutability": "nonpayable",
      "type": "constructor"
    },
    {
      "anonymous": false,
      "inputs": [
        {
          "indexed": true,
          "internalType": "uint256",
          "name": "id",
          "type": "uint256"
        },
        {
          "indexed": true,
          "internalType": "address",
          "name": "toAddress",
          "type": "address"
        },
        {
          "indexed": true,
          "internalType": "address",
          "name": "tokenAddress",
          "type": "address"
        },
        {
          "indexed": false,
          "internalType": "uint256",
          "name": "amount",
          "type": "uint256"
        }
      ],
      "name": "Claimed",
      "type": "event"
    },
    {
      "anonymous": false,
      "inputs": [
        {
          "indexed": false,
          "internalType": "uint8",
          "name": "recepientChainId",
          "type": "uint8"
        }
      ],
      "name": "RegisterChainId",
      "type": "event"
    },
    {
      "anonymous": false,
      "inputs": [
        {
          "indexed": true,
          "internalType": "address",
          "name": "tokenAddress",
          "type": "address"
        }
      ],
      "name": "RegisterToken",
      "type": "event"
    },
    {
      "anonymous": false,
      "inputs": [
        {
          "indexed": true,
          "internalType": "bytes32",
          "name": "role",
          "type": "bytes32"
        },
        {
          "indexed": true,
          "internalType": "bytes32",
          "name": "previousAdminRole",
          "type": "bytes32"
        },
        {
          "indexed": true,
          "internalType": "bytes32",
          "name": "newAdminRole",
          "type": "bytes32"
        }
      ],
      "name": "RoleAdminChanged",
      "type": "event"
    },
    {
      "anonymous": false,
      "inputs": [
        {
          "indexed": true,
          "internalType": "bytes32",
          "name": "role",
          "type": "bytes32"
        },
        {
          "indexed": true,
          "internalType": "address",
          "name": "account",
          "type": "address"
        },
        {
          "indexed": true,
          "internalType": "address",
          "name": "sender",
          "type": "address"
        }
      ],
      "name": "RoleGranted",
      "type": "event"
    },
    {
      "anonymous": false,
      "inputs": [
        {
          "indexed": true,
          "internalType": "bytes32",
          "name": "role",
          "type": "bytes32"
        },
        {
          "indexed": true,
          "internalType": "address",
          "name": "account",
          "type": "address"
        },
        {
          "indexed": true,
          "internalType": "address",
          "name": "sender",
          "type": "address"
        }
      ],
      "name": "RoleRevoked",
      "type": "event"
    },
    {
      "anonymous": false,
      "inputs": [
        {
          "indexed": true,
          "internalType": "uint256",
          "name": "id",
          "type": "uint256"
        },
        {
          "indexed": true,
          "internalType": "address",
          "name": "tokenAddress",
          "type": "address"
        },
        {
          "indexed": true,
          "internalType": "bytes32",
          "name": "toAddress",
          "type": "bytes32"
        },
        {
          "indexed": false,
          "internalType": "uint8",
          "name": "toChainId",
          "type": "uint8"
        },
        {
          "indexed": false,
          "internalType": "uint256",
          "name": "amount",
          "type": "uint256"
        },
        {
          "indexed": false,
          "internalType": "address",
          "name": "fromAddress",
          "type": "address"
        }
      ],
      "name": "Sent",
      "type": "event"
    },
    {
      "anonymous": false,
      "inputs": [
        {
          "indexed": false,
          "internalType": "uint8",
          "name": "recepientChainId",
          "type": "uint8"
        }
      ],
      "name": "UnregisterChainId",
      "type": "event"
    },
    {
      "anonymous": false,
      "inputs": [
        {
          "indexed": true,
          "internalType": "address",
          "name": "tokenAddress",
          "type": "address"
        }
      ],
      "name": "UnregisterToken",
      "type": "event"
    },
    {
      "inputs": [],
      "name": "DEFAULT_ADMIN_ROLE",
      "outputs": [
        {
          "internalType": "bytes32",
          "name": "",
          "type": "bytes32"
        }
      ],
      "stateMutability": "view",
      "type": "function",
      "constant": true
    },
    {
      "inputs": [],
      "name": "ORACLE_ROLE",
      "outputs": [
        {
          "internalType": "bytes32",
          "name": "",
          "type": "bytes32"
        }
      ],
      "stateMutability": "view",
      "type": "function",
      "constant": true
    },
    {
      "inputs": [],
      "name": "chainId",
      "outputs": [
        {
          "internalType": "uint8",
          "name": "",
          "type": "uint8"
        }
      ],
      "stateMutability": "view",
      "type": "function",
      "constant": true
    },
    {
      "inputs": [
        {
          "internalType": "bytes32",
          "name": "role",
          "type": "bytes32"
        }
      ],
      "name": "getRoleAdmin",
      "outputs": [
        {
          "internalType": "bytes32",
          "name": "",
          "type": "bytes32"
        }
      ],
      "stateMutability": "view",
      "type": "function",
      "constant": true
    },
    {
      "inputs": [
        {
          "internalType": "bytes32",
          "name": "role",
          "type": "bytes32"
        },
        {
          "internalType": "address",
          "name": "account",
          "type": "address"
        }
      ],
      "name": "grantRole",
      "outputs": [],
      "stateMutability": "nonpayable",
      "type": "function"
    },
    {
      "inputs": [
        {
          "internalType": "bytes32",
          "name": "role",
          "type": "bytes32"
        },
        {
          "internalType": "address",
          "name": "account",
          "type": "address"
        }
      ],
      "name": "hasRole",
      "outputs": [
        {
          "internalType": "bool",
          "name": "",
          "type": "bool"
        }
      ],
      "stateMutability": "view",
      "type": "function",
      "constant": true
    },
    {
      "inputs": [],
      "name": "minimumOracleConfirmations",
      "outputs": [
        {
          "internalType": "uint256",
          "name": "",
          "type": "uint256"
        }
      ],
      "stateMutability": "view",
      "type": "function",
      "constant": true
    },
    {
      "inputs": [
        {
          "internalType": "bytes32",
          "name": "role",
          "type": "bytes32"
        },
        {
          "internalType": "address",
          "name": "account",
          "type": "address"
        }
      ],
      "name": "renounceRole",
      "outputs": [],
      "stateMutability": "nonpayable",
      "type": "function"
    },
    {
      "inputs": [
        {
          "internalType": "bytes32",
          "name": "role",
          "type": "bytes32"
        },
        {
          "internalType": "address",
          "name": "account",
          "type": "address"
        }
      ],
      "name": "revokeRole",
      "outputs": [],
      "stateMutability": "nonpayable",
      "type": "function"
    },
    {
      "inputs": [
        {
          "internalType": "uint256",
          "name": "",
          "type": "uint256"
        }
      ],
      "name": "sendTransferMap",
      "outputs": [
        {
          "internalType": "uint256",
          "name": "id",
          "type": "uint256"
        },
        {
          "internalType": "uint256",
          "name": "amount",
          "type": "uint256"
        },
        {
          "internalType": "uint8",
          "name": "chainId",
          "type": "uint8"
        },
        {
          "internalType": "bytes32",
          "name": "toAddress",
          "type": "bytes32"
        },
        {
          "internalType": "address",
          "name": "tokenContractAddress",
          "type": "address"
        },
        {
          "internalType": "bool",
          "name": "claimed",
          "type": "bool"
        }
      ],
      "stateMutability": "view",
      "type": "function",
      "constant": true
    },
    {
      "inputs": [
        {
          "internalType": "uint8",
          "name": "",
          "type": "uint8"
        }
      ],
      "name": "supportedChainIds",
      "outputs": [
        {
          "internalType": "bool",
          "name": "",
          "type": "bool"
        }
      ],
      "stateMutability": "view",
      "type": "function",
      "constant": true
    },
    {
      "inputs": [
        {
          "internalType": "address",
          "name": "",
          "type": "address"
        }
      ],
      "name": "supportedTokens",
      "outputs": [
        {
          "internalType": "bool",
          "name": "",
          "type": "bool"
        }
      ],
      "stateMutability": "view",
      "type": "function",
      "constant": true
    },
    {
      "inputs": [
        {
          "internalType": "bytes4",
          "name": "interfaceId",
          "type": "bytes4"
        }
      ],
      "name": "supportsInterface",
      "outputs": [
        {
          "internalType": "bool",
          "name": "",
          "type": "bool"
        }
      ],
      "stateMutability": "view",
      "type": "function",
      "constant": true
    },
    {
      "inputs": [
        {
          "internalType": "uint64",
          "name": "",
          "type": "uint64"
        }
      ],
      "name": "transferMap",
      "outputs": [
        {
          "internalType": "uint64",
          "name": "id",
          "type": "uint64"
        },
        {
          "internalType": "uint256",
          "name": "amount",
          "type": "uint256"
        },
        {
          "internalType": "uint8",
          "name": "chainId",
          "type": "uint8"
        },
        {
          "internalType": "address",
          "name": "tokenAddress",
          "type": "address"
        },
        {
          "internalType": "address",
          "name": "toAddress",
          "type": "address"
        }
      ],
      "stateMutability": "view",
      "type": "function",
      "constant": true
    },
    {
      "inputs": [
        {
          "internalType": "address",
          "name": "tokenContractAddress",
          "type": "address"
        }
      ],
      "name": "registerToken",
      "outputs": [],
      "stateMutability": "nonpayable",
      "type": "function"
    },
    {
      "inputs": [
        {
          "internalType": "address",
          "name": "tokenContractAddress",
          "type": "address"
        }
      ],
      "name": "unregisterToken",
      "outputs": [],
      "stateMutability": "nonpayable",
      "type": "function"
    },
    {
      "inputs": [
        {
          "internalType": "uint8",
          "name": "recepientChainId",
          "type": "uint8"
        }
      ],
      "name": "registerChainId",
      "outputs": [],
      "stateMutability": "nonpayable",
      "type": "function"
    },
    {
      "inputs": [
        {
          "internalType": "uint8",
          "name": "recepientChainId",
          "type": "uint8"
        }
      ],
      "name": "ungisterChainId",
      "outputs": [],
      "stateMutability": "nonpayable",
      "type": "function"
    },
    {
      "inputs": [
        {
          "internalType": "address",
          "name": "tokenContractAddress",
          "type": "address"
        },
        {
          "internalType": "uint256",
          "name": "amount",
          "type": "uint256"
        },
        {
          "internalType": "uint8",
          "name": "toChainId",
          "type": "uint8"
        },
        {
          "internalType": "bytes32",
          "name": "toAddress",
          "type": "bytes32"
        }
      ],
      "name": "send",
      "outputs": [
        {
          "internalType": "uint256",
          "name": "",
          "type": "uint256"
        }
      ],
      "stateMutability": "nonpayable",
      "type": "function"
    },
    {
      "inputs": [
        {
          "internalType": "uint256",
          "name": "sendId",
          "type": "uint256"
        }
      ],
      "name": "getSignatures",
      "outputs": [
        {
          "internalType": "bytes32[]",
          "name": "",
          "type": "bytes32[]"
        }
      ],
      "stateMutability": "view",
      "type": "function",
      "constant": true
    },
    {
      "inputs": [
        {
          "internalType": "uint256",
          "name": "sendId",
          "type": "uint256"
        },
        {
          "internalType": "bytes32",
          "name": "signature",
          "type": "bytes32"
        }
      ],
      "name": "sign",
      "outputs": [],
      "stateMutability": "nonpayable",
      "type": "function"
    },
    {
      "inputs": [
        {
          "internalType": "address",
          "name": "tokenAddress",
          "type": "address"
        },
        {
          "internalType": "bytes",
          "name": "data",
          "type": "bytes"
        },
        {
          "internalType": "bytes[]",
          "name": "signatures",
          "type": "bytes[]"
        }
      ],
      "name": "claim",
      "outputs": [],
      "stateMutability": "nonpayable",
      "type": "function"
    }
  ],
  "bytecode": "0x608060405260036001553480156200001657600080fd5b5060405162003d3338038062003d3383398181016040528101906200003c919062000203565b620000516000801b336200007360201b60201c565b80600260006101000a81548160ff021916908360ff1602179055505062000256565b6200008582826200008960201b60201c565b5050565b6200009b82826200017a60201b60201c565b6200017657600160008084815260200190815260200160002060000160008373ffffffffffffffffffffffffffffffffffffffff1673ffffffffffffffffffffffffffffffffffffffff16815260200190815260200160002060006101000a81548160ff0219169083151502179055506200011b620001e460201b60201c565b73ffffffffffffffffffffffffffffffffffffffff168173ffffffffffffffffffffffffffffffffffffffff16837f2f8788117e7eff1d82e926ec794901d17c78024a50270940304540a733656f0d60405160405180910390a45b5050565b600080600084815260200190815260200160002060000160008373ffffffffffffffffffffffffffffffffffffffff1673ffffffffffffffffffffffffffffffffffffffff16815260200190815260200160002060009054906101000a900460ff16905092915050565b600033905090565b600081519050620001fd816200023c565b92915050565b6000602082840312156200021657600080fd5b60006200022684828501620001ec565b91505092915050565b600060ff82169050919050565b62000247816200022f565b81146200025357600080fd5b50565b613acd80620002666000396000f3fe608060405234801561001057600080fd5b50600436106101425760003560e01c80638c8330a9116100b8578063c020d3291161007c578063c020d3291461039d578063d547741f146103bb578063d89da85b146103d7578063e341eaa41461040c578063f1ef395b14610428578063f4eccb8f1461044457610142565b80638c8330a9146102e557806391d1485414610301578063958528a2146103315780639a8a059214610361578063a217fddf1461037f57610142565b806336568abe1161010a57806336568abe146101fd5780634492acfe14610219578063568d58731461024d57806368c4ac261461026957806373950c9f1461029957806377860cdd146102c957610142565b806301ffc9a71461014757806307e2cea51461017757806309824a8014610195578063248a9ca3146101b15780632f2ff15d146101e1575b600080fd5b610161600480360381019061015c9190612865565b610474565b60405161016e91906131f9565b60405180910390f35b61017f6104ee565b60405161018c9190613214565b60405180910390f35b6101af60048036038101906101aa91906126f0565b610512565b005b6101cb60048036038101906101c69190612800565b6106b1565b6040516101d89190613214565b60405180910390f35b6101fb60048036038101906101f69190612829565b6106d0565b005b61021760048036038101906102129190612829565b6106f9565b005b610233600480360381019061022e91906128f3565b61077c565b604051610244959493929190613592565b60405180910390f35b61026760048036038101906102629190612993565b610813565b005b610283600480360381019061027e91906126f0565b6108fb565b60405161029091906131f9565b60405180910390f35b6102b360048036038101906102ae919061279d565b61091b565b6040516102c09190613516565b60405180910390f35b6102e360048036038101906102de91906126f0565b610c4a565b005b6102ff60048036038101906102fa9190612719565b610d8a565b005b61031b60048036038101906103169190612829565b61137e565b60405161032891906131f9565b60405180910390f35b61034b60048036038101906103469190612993565b6113e8565b60405161035891906131f9565b60405180910390f35b610369611408565b60405161037691906135e5565b60405180910390f35b61038761141b565b6040516103949190613214565b60405180910390f35b6103a5611422565b6040516103b29190613516565b60405180910390f35b6103d560048036038101906103d09190612829565b611428565b005b6103f160048036038101906103ec919061288e565b611451565b60405161040396959493929190613531565b60405180910390f35b610426600480360381019061042191906128b7565b6114c7565b005b610442600480360381019061043d9190612993565b611685565b005b61045e6004803603810190610459919061288e565b61176e565b60405161046b91906131d7565b60405180910390f35b60007f7965db0b000000000000000000000000000000000000000000000000000000007bffffffffffffffffffffffffffffffffffffffffffffffffffffffff1916827bffffffffffffffffffffffffffffffffffffffffffffffffffffffff191614806104e757506104e6826117ec565b5b9050919050565b7f68e79a7bf1e0bc45d0a330c573bc367f9cf464fd326078812f301165fbda4ef181565b6000801b61052781610522611856565b61185e565b6105468273ffffffffffffffffffffffffffffffffffffffff166118fb565b610585576040517f08c379a000000000000000000000000000000000000000000000000000000000815260040161057c90613496565b60405180910390fd5b600460008373ffffffffffffffffffffffffffffffffffffffff1673ffffffffffffffffffffffffffffffffffffffff16815260200190815260200160002060009054906101000a900460ff1615610612576040517f08c379a000000000000000000000000000000000000000000000000000000000815260040161060990613436565b60405180910390fd5b6001600460008473ffffffffffffffffffffffffffffffffffffffff1673ffffffffffffffffffffffffffffffffffffffff16815260200190815260200160002060006101000a81548160ff0219169083151502179055508173ffffffffffffffffffffffffffffffffffffffff167ff7fe8023cb2e36bde1d59a88ac5763a8c11be6d25e6819f71bb7e23e5bf0dc1660405160405180910390a25050565b6000806000838152602001908152602001600020600101549050919050565b6106d9826106b1565b6106ea816106e5611856565b61185e565b6106f4838361190e565b505050565b610701611856565b73ffffffffffffffffffffffffffffffffffffffff168173ffffffffffffffffffffffffffffffffffffffff161461076e576040517f08c379a0000000000000000000000000000000000000000000000000000000008152600401610765906134f6565b60405180910390fd5b61077882826119ee565b5050565b60036020528060005260406000206000915090508060000160009054906101000a900467ffffffffffffffff16908060010154908060020160009054906101000a900460ff16908060020160019054906101000a900473ffffffffffffffffffffffffffffffffffffffff16908060030160009054906101000a900473ffffffffffffffffffffffffffffffffffffffff16905085565b6000801b61082881610823611856565b61185e565b600560008360ff1660ff16815260200190815260200160002060009054906101000a900460ff1661088e576040517f08c379a0000000000000000000000000000000000000000000000000000000008152600401610885906134d6565b60405180910390fd5b6000600560008460ff1660ff16815260200190815260200160002060006101000a81548160ff0219169083151502179055507f9ec2302e7ee0398213255e47e2a84d3fe957e971b76286b0ee3e8136f1d5d690826040516108ef91906135e5565b60405180910390a15050565b60046020528060005260406000206000915054906101000a900460ff1681565b600061093c8573ffffffffffffffffffffffffffffffffffffffff166118fb565b61097b576040517f08c379a000000000000000000000000000000000000000000000000000000000815260040161097290613496565b60405180910390fd5b600460008673ffffffffffffffffffffffffffffffffffffffff1673ffffffffffffffffffffffffffffffffffffffff16815260200190815260200160002060009054906101000a900460ff16610a07576040517f08c379a00000000000000000000000000000000000000000000000000000000081526004016109fe906132d6565b60405180910390fd5b600560008460ff1660ff16815260200190815260200160002060009054906101000a900460ff16610a6d576040517f08c379a0000000000000000000000000000000000000000000000000000000008152600401610a6490613396565b60405180910390fd5b60008590508073ffffffffffffffffffffffffffffffffffffffff166379cc679033876040518363ffffffff1660e01b8152600401610aad9291906131ae565b600060405180830381600087803b158015610ac757600080fd5b505af1158015610adb573d6000803e3d6000fd5b5050505060004390506040518060c001604052808281526020018781526020018660ff1681526020018581526020018873ffffffffffffffffffffffffffffffffffffffff1681526020016000151581525060066000838152602001908152602001600020600082015181600001556020820151816001015560408201518160020160006101000a81548160ff021916908360ff1602179055506060820151816003015560808201518160040160006101000a81548173ffffffffffffffffffffffffffffffffffffffff021916908373ffffffffffffffffffffffffffffffffffffffff16021790555060a08201518160040160146101000a81548160ff021916908315150217905550905050838773ffffffffffffffffffffffffffffffffffffffff16827f0af9a96d5eab584bc97107a072072e71ae2353e7fa0ad649f0a7bb5b542e0877888a33604051610c3593929190613600565b60405180910390a48092505050949350505050565b6000801b610c5f81610c5a611856565b61185e565b600460008373ffffffffffffffffffffffffffffffffffffffff1673ffffffffffffffffffffffffffffffffffffffff16815260200190815260200160002060009054906101000a900460ff16610ceb576040517f08c379a0000000000000000000000000000000000000000000000000000000008152600401610ce2906132d6565b60405180910390fd5b6000600460008473ffffffffffffffffffffffffffffffffffffffff1673ffffffffffffffffffffffffffffffffffffffff16815260200190815260200160002060006101000a81548160ff0219169083151502179055508173ffffffffffffffffffffffffffffffffffffffff167fca2a890939276223a9122217752c67608466faee388aff53f077d00a186a389b60405160405180910390a25050565b6000838051906020012090506000610da182611acf565b9050600080600090505b858590508160ff161015610ebe5736600087878460ff16818110610df8577f4e487b7100000000000000000000000000000000000000000000000000000000600052603260045260246000fd5b9050602002810190610e0a9190613637565b915091506000610e6783838080601f016020809104026020016040519081016040528093929190818152602001838380828437600081840152601f19601f8201169050808301925050505050505087611aff90919063ffffffff16565b9050610e937f68e79a7bf1e0bc45d0a330c573bc367f9cf464fd326078812f301165fbda4ef18261137e565b15610ea857600185610ea591906137a5565b94505b5050508080610eb690613953565b915050610dab565b506001548160ff161015610f07576040517f08c379a0000000000000000000000000000000000000000000000000000000008152600401610efe90613416565b60405180910390fd5b6000610f1287611b26565b9050806060015173ffffffffffffffffffffffffffffffffffffffff168873ffffffffffffffffffffffffffffffffffffffff1614610f86576040517f08c379a0000000000000000000000000000000000000000000000000000000008152600401610f7d90613476565b60405180910390fd5b600260009054906101000a900460ff1660ff16816040015160ff1614610fe1576040517f08c379a0000000000000000000000000000000000000000000000000000000008152600401610fd890613336565b60405180910390fd5b600060036000836000015167ffffffffffffffff1667ffffffffffffffff16815260200190815260200160002060000160009054906101000a900467ffffffffffffffff1667ffffffffffffffff1614611070576040517f08c379a000000000000000000000000000000000000000000000000000000000815260040161106790613456565b60405180910390fd5b600460008973ffffffffffffffffffffffffffffffffffffffff1673ffffffffffffffffffffffffffffffffffffffff16815260200190815260200160002060009054906101000a900460ff166110fc576040517f08c379a00000000000000000000000000000000000000000000000000000000081526004016110f3906134b6565b60405180910390fd5b3373ffffffffffffffffffffffffffffffffffffffff16816080015173ffffffffffffffffffffffffffffffffffffffff161461116e576040517f08c379a000000000000000000000000000000000000000000000000000000000815260040161116590613356565b60405180910390fd5b60008890508073ffffffffffffffffffffffffffffffffffffffff166340c10f193384602001516040518363ffffffff1660e01b81526004016111b29291906131ae565b600060405180830381600087803b1580156111cc57600080fd5b505af11580156111e0573d6000803e3d6000fd5b505050508160036000846000015167ffffffffffffffff1667ffffffffffffffff16815260200190815260200160002060008201518160000160006101000a81548167ffffffffffffffff021916908367ffffffffffffffff1602179055506020820151816001015560408201518160020160006101000a81548160ff021916908360ff16021790555060608201518160020160016101000a81548173ffffffffffffffffffffffffffffffffffffffff021916908373ffffffffffffffffffffffffffffffffffffffff16021790555060808201518160030160006101000a81548173ffffffffffffffffffffffffffffffffffffffff021916908373ffffffffffffffffffffffffffffffffffffffff1602179055509050508873ffffffffffffffffffffffffffffffffffffffff163373ffffffffffffffffffffffffffffffffffffffff16836000015167ffffffffffffffff167fce3bcb6e219596cf26007ffdfaae8953bc3f76e3f36c0a79b23e28020da3222e856020015160405161136b9190613516565b60405180910390a4505050505050505050565b600080600084815260200190815260200160002060000160008373ffffffffffffffffffffffffffffffffffffffff1673ffffffffffffffffffffffffffffffffffffffff16815260200190815260200160002060009054906101000a900460ff16905092915050565b60056020528060005260406000206000915054906101000a900460ff1681565b600260009054906101000a900460ff1681565b6000801b81565b60015481565b611431826106b1565b6114428161143d611856565b61185e565b61144c83836119ee565b505050565b60066020528060005260406000206000915090508060000154908060010154908060020160009054906101000a900460ff16908060030154908060040160009054906101000a900473ffffffffffffffffffffffffffffffffffffffff16908060040160149054906101000a900460ff16905086565b7f68e79a7bf1e0bc45d0a330c573bc367f9cf464fd326078812f301165fbda4ef16114f9816114f4611856565b61185e565b600060066000858152602001908152602001600020600001541415611553576040517f08c379a000000000000000000000000000000000000000000000000000000000815260040161154a90613316565b60405180910390fd5b6007600084815260200190815260200160002060003373ffffffffffffffffffffffffffffffffffffffff1673ffffffffffffffffffffffffffffffffffffffff16815260200190815260200160002060009054906101000a900460ff16156115f1576040517f08c379a00000000000000000000000000000000000000000000000000000000081526004016115e8906133d6565b60405180910390fd5b6116168260086000868152602001908152602001600020611bc090919063ffffffff16565b5060016007600085815260200190815260200160002060003373ffffffffffffffffffffffffffffffffffffffff1673ffffffffffffffffffffffffffffffffffffffff16815260200190815260200160002060006101000a81548160ff021916908315150217905550505050565b6000801b61169a81611695611856565b61185e565b600560008360ff1660ff16815260200190815260200160002060009054906101000a900460ff1615611701576040517f08c379a00000000000000000000000000000000000000000000000000000000081526004016116f8906133b6565b60405180910390fd5b6001600560008460ff1660ff16815260200190815260200160002060006101000a81548160ff0219169083151502179055507f107f463c3897d19773c8ecf6fb76d96513e951afb85b9bf2dc319dd79cc4c04b8260405161176291906135e5565b60405180910390a15050565b60606000600660008481526020019081526020016000206000015414156117ca576040517f08c379a00000000000000000000000000000000000000000000000000000000081526004016117c190613316565b60405180910390fd5b6117e560086000848152602001908152602001600020611bd7565b9050919050565b60007f01ffc9a7000000000000000000000000000000000000000000000000000000007bffffffffffffffffffffffffffffffffffffffffffffffffffffffff1916827bffffffffffffffffffffffffffffffffffffffffffffffffffffffff1916149050919050565b600033905090565b611868828261137e565b6118f75761188d8173ffffffffffffffffffffffffffffffffffffffff166014611bec565b61189b8360001c6020611bec565b6040516020016118ac929190613174565b6040516020818303038152906040526040517f08c379a00000000000000000000000000000000000000000000000000000000081526004016118ee9190613274565b60405180910390fd5b5050565b600080823b905060008111915050919050565b611918828261137e565b6119ea57600160008084815260200190815260200160002060000160008373ffffffffffffffffffffffffffffffffffffffff1673ffffffffffffffffffffffffffffffffffffffff16815260200190815260200160002060006101000a81548160ff02191690831515021790555061198f611856565b73ffffffffffffffffffffffffffffffffffffffff168173ffffffffffffffffffffffffffffffffffffffff16837f2f8788117e7eff1d82e926ec794901d17c78024a50270940304540a733656f0d60405160405180910390a45b5050565b6119f8828261137e565b15611acb57600080600084815260200190815260200160002060000160008373ffffffffffffffffffffffffffffffffffffffff1673ffffffffffffffffffffffffffffffffffffffff16815260200190815260200160002060006101000a81548160ff021916908315150217905550611a70611856565b73ffffffffffffffffffffffffffffffffffffffff168173ffffffffffffffffffffffffffffffffffffffff16837ff6391f5c32d9c69d2a47ea670b442974b53935d1edc7fd64eb21e047a839171b60405160405180910390a45b5050565b600081604051602001611ae2919061314e565b604051602081830303815290604052805190602001209050919050565b6000806000611b0e8585611ee6565b91509150611b1b81611f69565b819250505092915050565b611b2e612504565b600080600080600086806020019051810190611b4a919061291c565b945094509450945094506040518060a001604052808667ffffffffffffffff1681526020018581526020018460ff1681526020018373ffffffffffffffffffffffffffffffffffffffff1681526020018273ffffffffffffffffffffffffffffffffffffffff1681525095505050505050919050565b6000611bcf83600001836122ba565b905092915050565b6060611be58260000161232a565b9050919050565b606060006002836002611bff91906137dc565b611c09919061374f565b67ffffffffffffffff811115611c48577f4e487b7100000000000000000000000000000000000000000000000000000000600052604160045260246000fd5b6040519080825280601f01601f191660200182016040528015611c7a5781602001600182028036833780820191505090505b5090507f300000000000000000000000000000000000000000000000000000000000000081600081518110611cd8577f4e487b7100000000000000000000000000000000000000000000000000000000600052603260045260246000fd5b60200101907effffffffffffffffffffffffffffffffffffffffffffffffffffffffffffff1916908160001a9053507f780000000000000000000000000000000000000000000000000000000000000081600181518110611d62577f4e487b7100000000000000000000000000000000000000000000000000000000600052603260045260246000fd5b60200101907effffffffffffffffffffffffffffffffffffffffffffffffffffffffffffff1916908160001a90535060006001846002611da291906137dc565b611dac919061374f565b90505b6001811115611e98577f3031323334353637383961626364656600000000000000000000000000000000600f861660108110611e14577f4e487b7100000000000000000000000000000000000000000000000000000000600052603260045260246000fd5b1a60f81b828281518110611e51577f4e487b7100000000000000000000000000000000000000000000000000000000600052603260045260246000fd5b60200101907effffffffffffffffffffffffffffffffffffffffffffffffffffffffffffff1916908160001a905350600485901c945080611e9190613929565b9050611daf565b5060008414611edc576040517f08c379a0000000000000000000000000000000000000000000000000000000008152600401611ed3906132b6565b60405180910390fd5b8091505092915050565b600080604183511415611f285760008060006020860151925060408601519150606086015160001a9050611f1c87828585612386565b94509450505050611f62565b604083511415611f59576000806020850151915060408501519050611f4e868383612493565b935093505050611f62565b60006002915091505b9250929050565b60006004811115611fa3577f4e487b7100000000000000000000000000000000000000000000000000000000600052602160045260246000fd5b816004811115611fdc577f4e487b7100000000000000000000000000000000000000000000000000000000600052602160045260246000fd5b1415611fe7576122b7565b60016004811115612021577f4e487b7100000000000000000000000000000000000000000000000000000000600052602160045260246000fd5b81600481111561205a577f4e487b7100000000000000000000000000000000000000000000000000000000600052602160045260246000fd5b141561209b576040517f08c379a000000000000000000000000000000000000000000000000000000000815260040161209290613296565b60405180910390fd5b600260048111156120d5577f4e487b7100000000000000000000000000000000000000000000000000000000600052602160045260246000fd5b81600481111561210e577f4e487b7100000000000000000000000000000000000000000000000000000000600052602160045260246000fd5b141561214f576040517f08c379a0000000000000000000000000000000000000000000000000000000008152600401612146906132f6565b60405180910390fd5b60036004811115612189577f4e487b7100000000000000000000000000000000000000000000000000000000600052602160045260246000fd5b8160048111156121c2577f4e487b7100000000000000000000000000000000000000000000000000000000600052602160045260246000fd5b1415612203576040517f08c379a00000000000000000000000000000000000000000000000000000000081526004016121fa90613376565b60405180910390fd5b60048081111561223c577f4e487b7100000000000000000000000000000000000000000000000000000000600052602160045260246000fd5b816004811115612275577f4e487b7100000000000000000000000000000000000000000000000000000000600052602160045260246000fd5b14156122b6576040517f08c379a00000000000000000000000000000000000000000000000000000000081526004016122ad906133f6565b60405180910390fd5b5b50565b60006122c683836124e1565b61231f578260000182908060018154018082558091505060019003906000526020600020016000909190919091505582600001805490508360010160008481526020019081526020016000208190555060019050612324565b600090505b92915050565b60608160000180548060200260200160405190810160405280929190818152602001828054801561237a57602002820191906000526020600020905b815481526020019060010190808311612366575b50505050509050919050565b6000807f7fffffffffffffffffffffffffffffff5d576e7357a4501ddfe92f46681b20a08360001c11156123c157600060039150915061248a565b601b8560ff16141580156123d95750601c8560ff1614155b156123eb57600060049150915061248a565b600060018787878760405160008152602001604052604051612410949392919061322f565b6020604051602081039080840390855afa158015612432573d6000803e3d6000fd5b505050602060405103519050600073ffffffffffffffffffffffffffffffffffffffff168173ffffffffffffffffffffffffffffffffffffffff1614156124815760006001925092505061248a565b80600092509250505b94509492505050565b6000806000807f7fffffffffffffffffffffffffffffffffffffffffffffffffffffffffffffff85169150601b8560ff1c0190506124d387828885612386565b935093505050935093915050565b600080836001016000848152602001908152602001600020541415905092915050565b6040518060a00160405280600067ffffffffffffffff16815260200160008152602001600060ff168152602001600073ffffffffffffffffffffffffffffffffffffffff168152602001600073ffffffffffffffffffffffffffffffffffffffff1681525090565b600061257f61257a846136bf565b61368e565b90508281526020810184848401111561259757600080fd5b6125a28482856138e7565b509392505050565b6000813590506125b9816139f6565b92915050565b6000815190506125ce81613a0d565b92915050565b60008083601f8401126125e657600080fd5b8235905067ffffffffffffffff8111156125ff57600080fd5b60208301915083602082028301111561261757600080fd5b9250929050565b60008135905061262d81613a24565b92915050565b60008135905061264281613a3b565b92915050565b600082601f83011261265957600080fd5b813561266984826020860161256c565b91505092915050565b60008135905061268181613a52565b92915050565b60008151905061269681613a52565b92915050565b6000813590506126ab81613a69565b92915050565b6000815190506126c081613a69565b92915050565b6000813590506126d581613a80565b92915050565b6000815190506126ea81613a80565b92915050565b60006020828403121561270257600080fd5b6000612710848285016125aa565b91505092915050565b6000806000806060858703121561272f57600080fd5b600061273d878288016125aa565b945050602085013567ffffffffffffffff81111561275a57600080fd5b61276687828801612648565b935050604085013567ffffffffffffffff81111561278357600080fd5b61278f878288016125d4565b925092505092959194509250565b600080600080608085870312156127b357600080fd5b60006127c1878288016125aa565b94505060206127d287828801612672565b93505060406127e3878288016126c6565b92505060606127f48782880161261e565b91505092959194509250565b60006020828403121561281257600080fd5b60006128208482850161261e565b91505092915050565b6000806040838503121561283c57600080fd5b600061284a8582860161261e565b925050602061285b858286016125aa565b9150509250929050565b60006020828403121561287757600080fd5b600061288584828501612633565b91505092915050565b6000602082840312156128a057600080fd5b60006128ae84828501612672565b91505092915050565b600080604083850312156128ca57600080fd5b60006128d885828601612672565b92505060206128e98582860161261e565b9150509250929050565b60006020828403121561290557600080fd5b60006129138482850161269c565b91505092915050565b600080600080600060a0868803121561293457600080fd5b6000612942888289016126b1565b955050602061295388828901612687565b9450506040612964888289016126db565b9350506060612975888289016125bf565b9250506080612986888289016125bf565b9150509295509295909350565b6000602082840312156129a557600080fd5b60006129b3848285016126c6565b91505092915050565b60006129c88383612a50565b60208301905092915050565b6129dd81613836565b82525050565b60006129ee826136ff565b6129f88185613722565b9350612a03836136ef565b8060005b83811015612a34578151612a1b88826129bc565b9750612a2683613715565b925050600181019050612a07565b5085935050505092915050565b612a4a8161385a565b82525050565b612a5981613866565b82525050565b612a6881613866565b82525050565b612a7f612a7a82613866565b61397d565b82525050565b6000612a908261370a565b612a9a8185613733565b9350612aaa8185602086016138f6565b612ab3816139e5565b840191505092915050565b6000612ac98261370a565b612ad38185613744565b9350612ae38185602086016138f6565b80840191505092915050565b6000612afc601883613733565b91507f45434453413a20696e76616c6964207369676e617475726500000000000000006000830152602082019050919050565b6000612b3c602083613733565b91507f537472696e67733a20686578206c656e67746820696e73756666696369656e746000830152602082019050919050565b6000612b7c601683613733565b91507f546f6b656e206973206e6f7420737570706f72746564000000000000000000006000830152602082019050919050565b6000612bbc601f83613733565b91507f45434453413a20696e76616c6964207369676e6174757265206c656e677468006000830152602082019050919050565b6000612bfc601c83613744565b91507f19457468657265756d205369676e6564204d6573736167653a0a3332000000006000830152601c82019050919050565b6000612c3c601683613733565b91507f53656e6420496420646f6573206e6f74206578697374000000000000000000006000830152602082019050919050565b6000612c7c601583613733565b91507f4e6f7420737570706f7274656420636861696e496400000000000000000000006000830152602082019050919050565b6000612cbc601683613733565b91507f4e6f7420656c696769626c6520666f7220636c61696d000000000000000000006000830152602082019050919050565b6000612cfc602283613733565b91507f45434453413a20696e76616c6964207369676e6174757265202773272076616c60008301527f75650000000000000000000000000000000000000000000000000000000000006020830152604082019050919050565b6000612d62601683613733565b91507f4e6f7420537570706f7274656420436861696e204944000000000000000000006000830152602082019050919050565b6000612da2601983613733565b91507f436861696e496420616c726561647920737570706f72746564000000000000006000830152602082019050919050565b6000612de2601583613733565b91507f4f7261636c6520616c7265616479207369676e656400000000000000000000006000830152602082019050919050565b6000612e22602283613733565b91507f45434453413a20696e76616c6964207369676e6174757265202776272076616c60008301527f75650000000000000000000000000000000000000000000000000000000000006020830152604082019050919050565b6000612e88601b83613733565b91507f4e6f7420656e6f7567682076616c6964207369676e61747572657300000000006000830152602082019050919050565b6000612ec8601a83613733565b91507f546f6b656e20697320616c726561647920737570706f727465640000000000006000830152602082019050919050565b6000612f08601883613733565b91507f5472616e7366657220616c726561647920636c61696d656400000000000000006000830152602082019050919050565b6000612f48601583613733565b91507f496e76616c696420746f6b656e206164647265737300000000000000000000006000830152602082019050919050565b6000612f88601983613733565b91507f41646472657373206973206e6f74206120636f6e7472616374000000000000006000830152602082019050919050565b6000612fc8601783613744565b91507f416363657373436f6e74726f6c3a206163636f756e74200000000000000000006000830152601782019050919050565b6000613008601983613733565b91507f556e737570706f7274656420746f6b656e2061646472657373000000000000006000830152602082019050919050565b6000613048601583613733565b91507f436861696e4964206e6f7420737570706f7274656400000000000000000000006000830152602082019050919050565b6000613088601183613744565b91507f206973206d697373696e6720726f6c65200000000000000000000000000000006000830152601182019050919050565b60006130c8602f83613733565b91507f416363657373436f6e74726f6c3a2063616e206f6e6c792072656e6f756e636560008301527f20726f6c657320666f722073656c6600000000000000000000000000000000006020830152604082019050919050565b61312a816138bc565b82525050565b613139816138c6565b82525050565b613148816138da565b82525050565b600061315982612bef565b91506131658284612a6e565b60208201915081905092915050565b600061317f82612fbb565b915061318b8285612abe565b91506131968261307b565b91506131a28284612abe565b91508190509392505050565b60006040820190506131c360008301856129d4565b6131d06020830184613121565b9392505050565b600060208201905081810360008301526131f181846129e3565b905092915050565b600060208201905061320e6000830184612a41565b92915050565b60006020820190506132296000830184612a5f565b92915050565b60006080820190506132446000830187612a5f565b613251602083018661313f565b61325e6040830185612a5f565b61326b6060830184612a5f565b95945050505050565b6000602082019050818103600083015261328e8184612a85565b905092915050565b600060208201905081810360008301526132af81612aef565b9050919050565b600060208201905081810360008301526132cf81612b2f565b9050919050565b600060208201905081810360008301526132ef81612b6f565b9050919050565b6000602082019050818103600083015261330f81612baf565b9050919050565b6000602082019050818103600083015261332f81612c2f565b9050919050565b6000602082019050818103600083015261334f81612c6f565b9050919050565b6000602082019050818103600083015261336f81612caf565b9050919050565b6000602082019050818103600083015261338f81612cef565b9050919050565b600060208201905081810360008301526133af81612d55565b9050919050565b600060208201905081810360008301526133cf81612d95565b9050919050565b600060208201905081810360008301526133ef81612dd5565b9050919050565b6000602082019050818103600083015261340f81612e15565b9050919050565b6000602082019050818103600083015261342f81612e7b565b9050919050565b6000602082019050818103600083015261344f81612ebb565b9050919050565b6000602082019050818103600083015261346f81612efb565b9050919050565b6000602082019050818103600083015261348f81612f3b565b9050919050565b600060208201905081810360008301526134af81612f7b565b9050919050565b600060208201905081810360008301526134cf81612ffb565b9050919050565b600060208201905081810360008301526134ef8161303b565b9050919050565b6000602082019050818103600083015261350f816130bb565b9050919050565b600060208201905061352b6000830184613121565b92915050565b600060c0820190506135466000830189613121565b6135536020830188613121565b613560604083018761313f565b61356d6060830186612a5f565b61357a60808301856129d4565b61358760a0830184612a41565b979650505050505050565b600060a0820190506135a76000830188613130565b6135b46020830187613121565b6135c1604083018661313f565b6135ce60608301856129d4565b6135db60808301846129d4565b9695505050505050565b60006020820190506135fa600083018461313f565b92915050565b6000606082019050613615600083018661313f565b6136226020830185613121565b61362f60408301846129d4565b949350505050565b6000808335600160200384360303811261365057600080fd5b80840192508235915067ffffffffffffffff82111561366e57600080fd5b60208301925060018202360383131561368657600080fd5b509250929050565b6000604051905081810181811067ffffffffffffffff821117156136b5576136b46139b6565b5b8060405250919050565b600067ffffffffffffffff8211156136da576136d96139b6565b5b601f19601f8301169050602081019050919050565b6000819050602082019050919050565b600081519050919050565b600081519050919050565b6000602082019050919050565b600082825260208201905092915050565b600082825260208201905092915050565b600081905092915050565b600061375a826138bc565b9150613765836138bc565b9250827fffffffffffffffffffffffffffffffffffffffffffffffffffffffffffffffff0382111561379a57613799613987565b5b828201905092915050565b60006137b0826138da565b91506137bb836138da565b92508260ff038211156137d1576137d0613987565b5b828201905092915050565b60006137e7826138bc565b91506137f2836138bc565b9250817fffffffffffffffffffffffffffffffffffffffffffffffffffffffffffffffff048311821515161561382b5761382a613987565b5b828202905092915050565b60006138418261389c565b9050919050565b60006138538261389c565b9050919050565b60008115159050919050565b6000819050919050565b60007fffffffff0000000000000000000000000000000000000000000000000000000082169050919050565b600073ffffffffffffffffffffffffffffffffffffffff82169050919050565b6000819050919050565b600067ffffffffffffffff82169050919050565b600060ff82169050919050565b82818337600083830152505050565b60005b838110156139145780820151818401526020810190506138f9565b83811115613923576000848401525b50505050565b6000613934826138bc565b9150600082141561394857613947613987565b5b600182039050919050565b600061395e826138da565b915060ff82141561397257613971613987565b5b600182019050919050565b6000819050919050565b7f4e487b7100000000000000000000000000000000000000000000000000000000600052601160045260246000fd5b7f4e487b7100000000000000000000000000000000000000000000000000000000600052604160045260246000fd5b6000601f19601f8301169050919050565b6139ff81613836565b8114613a0a57600080fd5b50565b613a1681613848565b8114613a2157600080fd5b50565b613a2d81613866565b8114613a3857600080fd5b50565b613a4481613870565b8114613a4f57600080fd5b50565b613a5b816138bc565b8114613a6657600080fd5b50565b613a72816138c6565b8114613a7d57600080fd5b50565b613a89816138da565b8114613a9457600080fd5b5056fea2646970667358221220d37ca3c359e3c160eab5b814c696d1ad3130de346f8a89ef2b66f5b987813dba64736f6c63430008000033",
  "immutableReferences": {},
  "source": "// contracts/BluToken.sol\n// SPDX-License-Identifier: MIT\npragma solidity ^0.8.0;\n\nimport \"@openzeppelin/contracts/access/AccessControl.sol\";\nimport \"@openzeppelin/contracts/utils/cryptography/ECDSA.sol\";\nimport \"@openzeppelin/contracts/token/ERC20/extensions/ERC20Burnable.sol\";\nimport \"@openzeppelin/contracts/utils/structs/EnumerableSet.sol\";\nimport \"@openzeppelin/contracts/utils/Address.sol\";\n\nabstract contract BridgeERC20 is ERC20Burnable {\n    function mint(address account, uint256 amount) public virtual;\n}\n\nstruct TransferData {\n    uint64 id;\n    uint256 amount;\n    uint8 chainId;\n    address tokenAddress;\n    address toAddress;\n}\n\nstruct SendTransferData {\n    uint256 id;\n    uint256 amount;\n    uint8 chainId;\n    bytes32 toAddress;\n    address tokenContractAddress;\n    bool claimed;\n}\n\ncontract BluDacTokenBridge is AccessControl {\n    using ECDSA for bytes32;\n    using Address for address;\n    using EnumerableSet for EnumerableSet.Bytes32Set;\n\n    event RegisterToken(address indexed tokenAddress);\n    event UnregisterToken(address indexed tokenAddress);\n    event RegisterChainId(uint8 recepientChainId);\n    event UnregisterChainId(uint8 recepientChainId);\n    event Claimed(\n        uint256 indexed id,\n        address indexed toAddress,\n        address indexed tokenAddress,\n        uint256 amount\n    );\n\n    event Sent(\n        uint256 indexed id,\n        address indexed tokenAddress,\n        bytes32 indexed toAddress,\n        uint8 toChainId,\n        uint256 amount,\n        address fromAddress\n    );\n\n    bytes32 public constant ORACLE_ROLE = keccak256(\"ORACLE_ROLE\");\n    uint256 public minimumOracleConfirmations = 3;\n    uint8 public chainId;\n\n    mapping(uint64 => TransferData) public transferMap;\n    mapping(address => bool) public supportedTokens;\n    mapping(uint8 => bool) public supportedChainIds;\n\n    mapping(uint256 => SendTransferData) public sendTransferMap;\n    mapping(uint256 => mapping(address => bool)) signatureLookup;\n    mapping(uint256 => EnumerableSet.Bytes32Set) sendTransferSignatures;\n\n    constructor(uint8 _chainId) {\n        _setupRole(DEFAULT_ADMIN_ROLE, msg.sender);\n        chainId = _chainId;\n    }\n\n    function registerToken(address tokenContractAddress)\n        public\n        onlyRole(DEFAULT_ADMIN_ROLE)\n    {\n        require(tokenContractAddress.isContract(), \"Address is not a contract\");\n        require(\n            !supportedTokens[tokenContractAddress],\n            \"Token is already supported\"\n        );\n        supportedTokens[tokenContractAddress] = true;\n        emit RegisterToken(tokenContractAddress);\n    }\n\n    function unregisterToken(address tokenContractAddress)\n        public\n        onlyRole(DEFAULT_ADMIN_ROLE)\n    {\n        require(\n            supportedTokens[tokenContractAddress],\n            \"Token is not supported\"\n        );\n        supportedTokens[tokenContractAddress] = false;\n        emit UnregisterToken(tokenContractAddress);\n    }\n\n    function registerChainId(uint8 recepientChainId)\n        public\n        onlyRole(DEFAULT_ADMIN_ROLE)\n    {\n        require(\n            !supportedChainIds[recepientChainId],\n            \"ChainId already supported\"\n        );\n        supportedChainIds[recepientChainId] = true;\n        emit RegisterChainId(recepientChainId);\n    }\n\n    function ungisterChainId(uint8 recepientChainId)\n        public\n        onlyRole(DEFAULT_ADMIN_ROLE)\n    {\n        require(supportedChainIds[recepientChainId], \"ChainId not supported\");\n        supportedChainIds[recepientChainId] = false;\n        emit UnregisterChainId(recepientChainId);\n    }\n\n    function _extractTransferData(bytes memory data)\n        internal\n        pure\n        returns (TransferData memory transferData)\n    {\n        (\n            uint64 id,\n            uint256 amount,\n            uint8 toChainId,\n            address tokenAddress,\n            address toAddress\n        ) = abi.decode(data, (uint64, uint256, uint8, address, address));\n\n        transferData = TransferData({\n            id: id,\n            amount: amount,\n            chainId: toChainId,\n            tokenAddress: tokenAddress,\n            toAddress: toAddress\n        });\n    }\n\n    function send(\n        address tokenContractAddress,\n        uint256 amount,\n        uint8 toChainId,\n        bytes32 toAddress\n    ) public returns (uint256) {\n        require(tokenContractAddress.isContract(), \"Address is not a contract\");\n        require(\n            supportedTokens[tokenContractAddress],\n            \"Token is not supported\"\n        );\n        require(supportedChainIds[toChainId], \"Not Supported Chain ID\");\n\n        BridgeERC20 erc20 = BridgeERC20(tokenContractAddress);\n        erc20.burnFrom(msg.sender, amount);\n\n        uint256 id = block.number;\n        sendTransferMap[id] = SendTransferData({\n            id: id,\n            amount: amount,\n            chainId: toChainId,\n            toAddress: toAddress,\n            tokenContractAddress: tokenContractAddress,\n            claimed: false\n        });\n\n        emit Sent(\n            id,\n            tokenContractAddress,\n            toAddress,\n            toChainId,\n            amount,\n            msg.sender\n        );\n        return id;\n    }\n\n    function getSignatures(uint256 sendId)\n        public\n        view\n        returns (bytes32[] memory)\n    {\n        require(sendTransferMap[sendId].id != 0, \"Send Id does not exist\");\n        return sendTransferSignatures[sendId].values();\n    }\n\n    function sign(uint256 sendId, bytes32 signature)\n        public\n        onlyRole(ORACLE_ROLE)\n    {\n        require(sendTransferMap[sendId].id != 0, \"Send Id does not exist\");\n        require(!signatureLookup[sendId][msg.sender], \"Oracle already signed\");\n\n        sendTransferSignatures[sendId].add(signature);\n        signatureLookup[sendId][msg.sender] = true;\n    }\n\n    function claim(\n        address tokenAddress,\n        bytes memory data,\n        bytes[] calldata signatures\n    ) public {\n        bytes32 message = keccak256(data);\n        bytes32 hashed = message.toEthSignedMessageHash();\n        uint8 validSignatures;\n        for (uint8 i = 0; i < signatures.length; i++) {\n            bytes calldata signature = signatures[i];\n            address signer = hashed.recover(signature);\n            if (hasRole(ORACLE_ROLE, signer)) {\n                validSignatures += 1;\n            }\n        }\n        require(\n            validSignatures >= minimumOracleConfirmations,\n            \"Not enough valid signatures\"\n        );\n\n        TransferData memory transferData = _extractTransferData(data);\n\n        require(\n            tokenAddress == transferData.tokenAddress,\n            \"Invalid token address\"\n        );\n\n        require(transferData.chainId == chainId, \"Not supported chainId\");\n\n        require(\n            transferMap[transferData.id].id == 0,\n            \"Transfer already claimed\"\n        );\n\n        require(supportedTokens[tokenAddress], \"Unsupported token address\");\n\n        require(transferData.toAddress == msg.sender, \"Not eligible for claim\");\n\n        BridgeERC20 erc20 = BridgeERC20(tokenAddress);\n        erc20.mint(msg.sender, transferData.amount);\n        transferMap[transferData.id] = transferData;\n        emit Claimed(\n            transferData.id,\n            msg.sender,\n            tokenAddress,\n            transferData.amount\n        );\n    }\n}\n",
  "sourcePath": "/Users/ted/projects/BluBridge/smart_contracts/polygon/contracts/BluDacTokenBridge.sol",
  "compiler": {
    "name": "solc",
    "version": "0.8.0+commit.c7dfd78e.Emscripten.clang"
  },
  "schemaVersion": "3.4.3",
  "updatedAt": "2021-11-18T14:23:52.707Z",
  "networkType": "ethereum",
  "devdoc": {
    "kind": "dev",
    "methods": {
      "getRoleAdmin(bytes32)": {
        "details": "Returns the admin role that controls `role`. See {grantRole} and {revokeRole}. To change a role's admin, use {_setRoleAdmin}."
      },
      "grantRole(bytes32,address)": {
        "details": "Grants `role` to `account`. If `account` had not been already granted `role`, emits a {RoleGranted} event. Requirements: - the caller must have ``role``'s admin role."
      },
      "hasRole(bytes32,address)": {
        "details": "Returns `true` if `account` has been granted `role`."
      },
      "renounceRole(bytes32,address)": {
        "details": "Revokes `role` from the calling account. Roles are often managed via {grantRole} and {revokeRole}: this function's purpose is to provide a mechanism for accounts to lose their privileges if they are compromised (such as when a trusted device is misplaced). If the calling account had been granted `role`, emits a {RoleRevoked} event. Requirements: - the caller must be `account`."
      },
      "revokeRole(bytes32,address)": {
        "details": "Revokes `role` from `account`. If `account` had been granted `role`, emits a {RoleRevoked} event. Requirements: - the caller must have ``role``'s admin role."
      },
      "supportsInterface(bytes4)": {
        "details": "See {IERC165-supportsInterface}."
      }
    },
    "version": 1
  },
  "userdoc": {
    "kind": "user",
    "methods": {},
    "version": 1
  }
}