{
  "contractName": "BluDacTokenBridge",
  "abi": [
    {
      "inputs": [
        {
          "internalType": "uint8",
          "name": "_chainId",
          "type": "uint8"
        }
      ],
      "stateMutability": "nonpayable",
      "type": "constructor"
    },
    {
      "anonymous": false,
      "inputs": [
        {
          "indexed": true,
          "internalType": "uint256",
          "name": "id",
          "type": "uint256"
        },
        {
          "indexed": true,
          "internalType": "address",
          "name": "toAddress",
          "type": "address"
        },
        {
          "indexed": true,
          "internalType": "address",
          "name": "tokenAddress",
          "type": "address"
        },
        {
          "indexed": false,
          "internalType": "uint256",
          "name": "amount",
          "type": "uint256"
        }
      ],
      "name": "Claimed",
      "type": "event"
    },
    {
      "anonymous": false,
      "inputs": [
        {
          "indexed": false,
          "internalType": "address",
          "name": "account",
          "type": "address"
        }
      ],
      "name": "Paused",
      "type": "event"
    },
    {
      "anonymous": false,
      "inputs": [
        {
          "indexed": false,
          "internalType": "uint8",
          "name": "recepientChainId",
          "type": "uint8"
        }
      ],
      "name": "RegisterChainId",
      "type": "event"
    },
    {
      "anonymous": false,
      "inputs": [
        {
          "indexed": true,
          "internalType": "address",
          "name": "tokenAddress",
          "type": "address"
        }
      ],
      "name": "RegisterToken",
      "type": "event"
    },
    {
      "anonymous": false,
      "inputs": [
        {
          "indexed": true,
          "internalType": "bytes32",
          "name": "role",
          "type": "bytes32"
        },
        {
          "indexed": true,
          "internalType": "bytes32",
          "name": "previousAdminRole",
          "type": "bytes32"
        },
        {
          "indexed": true,
          "internalType": "bytes32",
          "name": "newAdminRole",
          "type": "bytes32"
        }
      ],
      "name": "RoleAdminChanged",
      "type": "event"
    },
    {
      "anonymous": false,
      "inputs": [
        {
          "indexed": true,
          "internalType": "bytes32",
          "name": "role",
          "type": "bytes32"
        },
        {
          "indexed": true,
          "internalType": "address",
          "name": "account",
          "type": "address"
        },
        {
          "indexed": true,
          "internalType": "address",
          "name": "sender",
          "type": "address"
        }
      ],
      "name": "RoleGranted",
      "type": "event"
    },
    {
      "anonymous": false,
      "inputs": [
        {
          "indexed": true,
          "internalType": "bytes32",
          "name": "role",
          "type": "bytes32"
        },
        {
          "indexed": true,
          "internalType": "address",
          "name": "account",
          "type": "address"
        },
        {
          "indexed": true,
          "internalType": "address",
          "name": "sender",
          "type": "address"
        }
      ],
      "name": "RoleRevoked",
      "type": "event"
    },
    {
      "anonymous": false,
      "inputs": [
        {
          "indexed": true,
          "internalType": "uint256",
          "name": "id",
          "type": "uint256"
        },
        {
          "indexed": true,
          "internalType": "address",
          "name": "tokenAddress",
          "type": "address"
        },
        {
          "indexed": true,
          "internalType": "bytes32",
          "name": "toAddress",
          "type": "bytes32"
        },
        {
          "indexed": false,
          "internalType": "uint8",
          "name": "toChainId",
          "type": "uint8"
        },
        {
          "indexed": false,
          "internalType": "uint256",
          "name": "amount",
          "type": "uint256"
        },
        {
          "indexed": false,
          "internalType": "address",
          "name": "fromAddress",
          "type": "address"
        }
      ],
      "name": "Sent",
      "type": "event"
    },
    {
      "anonymous": false,
      "inputs": [
        {
          "indexed": false,
          "internalType": "address",
          "name": "account",
          "type": "address"
        }
      ],
      "name": "Unpaused",
      "type": "event"
    },
    {
      "anonymous": false,
      "inputs": [
        {
          "indexed": false,
          "internalType": "uint8",
          "name": "recepientChainId",
          "type": "uint8"
        }
      ],
      "name": "UnregisterChainId",
      "type": "event"
    },
    {
      "anonymous": false,
      "inputs": [
        {
          "indexed": true,
          "internalType": "address",
          "name": "tokenAddress",
          "type": "address"
        }
      ],
      "name": "UnregisterToken",
      "type": "event"
    },
    {
      "inputs": [],
      "name": "DEFAULT_ADMIN_ROLE",
      "outputs": [
        {
          "internalType": "bytes32",
          "name": "",
          "type": "bytes32"
        }
      ],
      "stateMutability": "view",
      "type": "function"
    },
    {
      "inputs": [],
      "name": "ORACLE_ROLE",
      "outputs": [
        {
          "internalType": "bytes32",
          "name": "",
          "type": "bytes32"
        }
      ],
      "stateMutability": "view",
      "type": "function"
    },
    {
      "inputs": [],
      "name": "burnRate",
      "outputs": [
        {
          "internalType": "uint256",
          "name": "",
          "type": "uint256"
        }
      ],
      "stateMutability": "view",
      "type": "function"
    },
    {
      "inputs": [],
      "name": "chainId",
      "outputs": [
        {
          "internalType": "uint8",
          "name": "",
          "type": "uint8"
        }
      ],
      "stateMutability": "view",
      "type": "function"
    },
    {
      "inputs": [
        {
          "internalType": "bytes32",
          "name": "role",
          "type": "bytes32"
        }
      ],
      "name": "getRoleAdmin",
      "outputs": [
        {
          "internalType": "bytes32",
          "name": "",
          "type": "bytes32"
        }
      ],
      "stateMutability": "view",
      "type": "function"
    },
    {
      "inputs": [
        {
          "internalType": "bytes32",
          "name": "role",
          "type": "bytes32"
        },
        {
          "internalType": "address",
          "name": "account",
          "type": "address"
        }
      ],
      "name": "grantRole",
      "outputs": [],
      "stateMutability": "nonpayable",
      "type": "function"
    },
    {
      "inputs": [
        {
          "internalType": "bytes32",
          "name": "role",
          "type": "bytes32"
        },
        {
          "internalType": "address",
          "name": "account",
          "type": "address"
        }
      ],
      "name": "hasRole",
      "outputs": [
        {
          "internalType": "bool",
          "name": "",
          "type": "bool"
        }
      ],
      "stateMutability": "view",
      "type": "function"
    },
    {
      "inputs": [],
      "name": "minimumOracleConfirmations",
      "outputs": [
        {
          "internalType": "uint256",
          "name": "",
          "type": "uint256"
        }
      ],
      "stateMutability": "view",
      "type": "function"
    },
    {
      "inputs": [],
      "name": "paused",
      "outputs": [
        {
          "internalType": "bool",
          "name": "",
          "type": "bool"
        }
      ],
      "stateMutability": "view",
      "type": "function"
    },
    {
      "inputs": [
        {
          "internalType": "bytes32",
          "name": "role",
          "type": "bytes32"
        },
        {
          "internalType": "address",
          "name": "account",
          "type": "address"
        }
      ],
      "name": "renounceRole",
      "outputs": [],
      "stateMutability": "nonpayable",
      "type": "function"
    },
    {
      "inputs": [
        {
          "internalType": "bytes32",
          "name": "role",
          "type": "bytes32"
        },
        {
          "internalType": "address",
          "name": "account",
          "type": "address"
        }
      ],
      "name": "revokeRole",
      "outputs": [],
      "stateMutability": "nonpayable",
      "type": "function"
    },
    {
      "inputs": [
        {
          "internalType": "uint256",
          "name": "",
          "type": "uint256"
        }
      ],
      "name": "sendTransferMap",
      "outputs": [
        {
          "internalType": "uint256",
          "name": "id",
          "type": "uint256"
        },
        {
          "internalType": "uint256",
          "name": "amount",
          "type": "uint256"
        },
        {
          "internalType": "uint8",
          "name": "chainId",
          "type": "uint8"
        },
        {
          "internalType": "bytes32",
          "name": "toAddress",
          "type": "bytes32"
        },
        {
          "internalType": "address",
          "name": "tokenContractAddress",
          "type": "address"
        },
        {
          "internalType": "bool",
          "name": "claimed",
          "type": "bool"
        }
      ],
      "stateMutability": "view",
      "type": "function"
    },
    {
      "inputs": [
        {
          "internalType": "uint8",
          "name": "",
          "type": "uint8"
        }
      ],
      "name": "supportedChainIds",
      "outputs": [
        {
          "internalType": "bool",
          "name": "",
          "type": "bool"
        }
      ],
      "stateMutability": "view",
      "type": "function"
    },
    {
      "inputs": [
        {
          "internalType": "address",
          "name": "",
          "type": "address"
        }
      ],
      "name": "supportedTokens",
      "outputs": [
        {
          "internalType": "bool",
          "name": "",
          "type": "bool"
        }
      ],
      "stateMutability": "view",
      "type": "function"
    },
    {
      "inputs": [
        {
          "internalType": "bytes4",
          "name": "interfaceId",
          "type": "bytes4"
        }
      ],
      "name": "supportsInterface",
      "outputs": [
        {
          "internalType": "bool",
          "name": "",
          "type": "bool"
        }
      ],
      "stateMutability": "view",
      "type": "function"
    },
    {
      "inputs": [
        {
          "internalType": "uint64",
          "name": "",
          "type": "uint64"
        }
      ],
      "name": "transferMap",
      "outputs": [
        {
          "internalType": "uint64",
          "name": "id",
          "type": "uint64"
        },
        {
          "internalType": "uint256",
          "name": "amount",
          "type": "uint256"
        },
        {
          "internalType": "uint8",
          "name": "chainId",
          "type": "uint8"
        },
        {
          "internalType": "address",
          "name": "tokenAddress",
          "type": "address"
        },
        {
          "internalType": "address",
          "name": "toAddress",
          "type": "address"
        }
      ],
      "stateMutability": "view",
      "type": "function"
    },
    {
      "inputs": [
        {
          "internalType": "uint256",
          "name": "_burnRate",
          "type": "uint256"
        }
      ],
      "name": "setBurnRate",
      "outputs": [],
      "stateMutability": "nonpayable",
      "type": "function"
    },
    {
      "inputs": [],
      "name": "pause",
      "outputs": [],
      "stateMutability": "nonpayable",
      "type": "function"
    },
    {
      "inputs": [],
      "name": "unpause",
      "outputs": [],
      "stateMutability": "nonpayable",
      "type": "function"
    },
    {
      "inputs": [
        {
          "internalType": "address",
          "name": "tokenContractAddress",
          "type": "address"
        }
      ],
      "name": "registerToken",
      "outputs": [],
      "stateMutability": "nonpayable",
      "type": "function"
    },
    {
      "inputs": [
        {
          "internalType": "address",
          "name": "tokenContractAddress",
          "type": "address"
        }
      ],
      "name": "unregisterToken",
      "outputs": [],
      "stateMutability": "nonpayable",
      "type": "function"
    },
    {
      "inputs": [
        {
          "internalType": "uint8",
          "name": "recepientChainId",
          "type": "uint8"
        }
      ],
      "name": "registerChainId",
      "outputs": [],
      "stateMutability": "nonpayable",
      "type": "function"
    },
    {
      "inputs": [
        {
          "internalType": "uint8",
          "name": "recepientChainId",
          "type": "uint8"
        }
      ],
      "name": "ungisterChainId",
      "outputs": [],
      "stateMutability": "nonpayable",
      "type": "function"
    },
    {
      "inputs": [
        {
          "internalType": "address",
          "name": "tokenContractAddress",
          "type": "address"
        },
        {
          "internalType": "uint256",
          "name": "amount",
          "type": "uint256"
        },
        {
          "internalType": "uint8",
          "name": "toChainId",
          "type": "uint8"
        },
        {
          "internalType": "bytes32",
          "name": "toAddress",
          "type": "bytes32"
        }
      ],
      "name": "send",
      "outputs": [
        {
          "internalType": "uint256",
          "name": "",
          "type": "uint256"
        }
      ],
      "stateMutability": "nonpayable",
      "type": "function"
    },
    {
      "inputs": [
        {
          "internalType": "uint256",
          "name": "sendId",
          "type": "uint256"
        }
      ],
      "name": "getSignatures",
      "outputs": [
        {
          "internalType": "bytes32[]",
          "name": "",
          "type": "bytes32[]"
        }
      ],
      "stateMutability": "view",
      "type": "function"
    },
    {
      "inputs": [
        {
          "internalType": "uint256",
          "name": "sendId",
          "type": "uint256"
        },
        {
          "internalType": "bytes32",
          "name": "signature",
          "type": "bytes32"
        }
      ],
      "name": "sign",
      "outputs": [],
      "stateMutability": "nonpayable",
      "type": "function"
    },
    {
      "inputs": [
        {
          "internalType": "address",
          "name": "tokenAddress",
          "type": "address"
        },
        {
          "internalType": "bytes",
          "name": "data",
          "type": "bytes"
        },
        {
          "internalType": "bytes[]",
          "name": "signatures",
          "type": "bytes[]"
        }
      ],
      "name": "claim",
      "outputs": [],
      "stateMutability": "nonpayable",
      "type": "function"
    }
  ],
  "bytecode": "0x60806040526003805560146005553480156200001a57600080fd5b50604051620047173803806200471783398181016040528101906200004091906200022a565b6000600160006101000a81548160ff0219169083151502179055506001600281905550620000786000801b336200009a60201b60201c565b80600460006101000a81548160ff021916908360ff160217905550506200027d565b620000ac8282620000b060201b60201c565b5050565b620000c28282620001a160201b60201c565b6200019d57600160008084815260200190815260200160002060000160008373ffffffffffffffffffffffffffffffffffffffff1673ffffffffffffffffffffffffffffffffffffffff16815260200190815260200160002060006101000a81548160ff021916908315150217905550620001426200020b60201b60201c565b73ffffffffffffffffffffffffffffffffffffffff168173ffffffffffffffffffffffffffffffffffffffff16837f2f8788117e7eff1d82e926ec794901d17c78024a50270940304540a733656f0d60405160405180910390a45b5050565b600080600084815260200190815260200160002060000160008373ffffffffffffffffffffffffffffffffffffffff1673ffffffffffffffffffffffffffffffffffffffff16815260200190815260200160002060009054906101000a900460ff16905092915050565b600033905090565b600081519050620002248162000263565b92915050565b6000602082840312156200023d57600080fd5b60006200024d8482850162000213565b91505092915050565b600060ff82169050919050565b6200026e8162000256565b81146200027a57600080fd5b50565b61448a806200028d6000396000f3fe608060405234801561001057600080fd5b50600436106101a95760003560e01c806377860cdd116100f9578063bed9985011610097578063d89da85b11610071578063d89da85b146104aa578063e341eaa4146104df578063f1ef395b146104fb578063f4eccb8f14610517576101a9565b8063bed9985014610452578063c020d32914610470578063d547741f1461048e576101a9565b806391d14854116100d357806391d14854146103b6578063958528a2146103e65780639a8a059214610416578063a217fddf14610434576101a9565b806377860cdd146103745780638456cb59146103905780638c8330a91461039a576101a9565b806336568abe11610166578063568d587311610140578063568d5873146102da5780635c975abb146102f657806368c4ac261461031457806373950c9f14610344576101a9565b806336568abe146102805780633f4ba83a1461029c5780634492acfe146102a6576101a9565b806301ffc9a7146101ae57806307e2cea5146101de57806309824a80146101fc578063189d165e14610218578063248a9ca3146102345780632f2ff15d14610264575b600080fd5b6101c860048036038101906101c39190613053565b610547565b6040516101d59190613ac2565b60405180910390f35b6101e66105c1565b6040516101f39190613add565b60405180910390f35b61021660048036038101906102119190612ede565b6105e5565b005b610232600480360381019061022d919061307c565b610820565b005b61024e60048036038101906102499190612fee565b610840565b60405161025b9190613add565b60405180910390f35b61027e60048036038101906102799190613017565b61085f565b005b61029a60048036038101906102959190613017565b610888565b005b6102a461090b565b005b6102c060048036038101906102bb91906130e1565b610972565b6040516102d1959493929190613ebb565b60405180910390f35b6102f460048036038101906102ef9190613181565b610a09565b005b6102fe610b8d565b60405161030b9190613ac2565b60405180910390f35b61032e60048036038101906103299190612ede565b610ba4565b60405161033b9190613ac2565b60405180910390f35b61035e60048036038101906103599190612f8b565b610bc4565b60405161036b9190613e3f565b60405180910390f35b61038e60048036038101906103899190612ede565b610fd4565b005b6103986111b0565b005b6103b460048036038101906103af9190612f07565b611218565b005b6103d060048036038101906103cb9190613017565b6118a8565b6040516103dd9190613ac2565b60405180910390f35b61040060048036038101906103fb9190613181565b611912565b60405161040d9190613ac2565b60405180910390f35b61041e611932565b60405161042b9190613f0e565b60405180910390f35b61043c611945565b6040516104499190613add565b60405180910390f35b61045a61194c565b6040516104679190613e3f565b60405180910390f35b610478611952565b6040516104859190613e3f565b60405180910390f35b6104a860048036038101906104a39190613017565b611958565b005b6104c460048036038101906104bf919061307c565b611981565b6040516104d696959493929190613e5a565b60405180910390f35b6104f960048036038101906104f491906130a5565b6119f7565b005b61051560048036038101906105109190613181565b611c51565b005b610531600480360381019061052c919061307c565b611dd6565b60405161053e9190613aa0565b60405180910390f35b60007f7965db0b000000000000000000000000000000000000000000000000000000007bffffffffffffffffffffffffffffffffffffffffffffffffffffffff1916827bffffffffffffffffffffffffffffffffffffffffffffffffffffffff191614806105ba57506105b982611e54565b5b9050919050565b7f68e79a7bf1e0bc45d0a330c573bc367f9cf464fd326078812f301165fbda4ef181565b60028054141561062a576040517f08c379a000000000000000000000000000000000000000000000000000000000815260040161062190613dbf565b60405180910390fd5b60028081905550610639610b8d565b15610679576040517f08c379a000000000000000000000000000000000000000000000000000000000815260040161067090613c9f565b60405180910390fd5b6000801b61068e81610689611ebe565b611ec6565b6106ad8273ffffffffffffffffffffffffffffffffffffffff16611f63565b6106ec576040517f08c379a00000000000000000000000000000000000000000000000000000000081526004016106e390613d9f565b60405180910390fd5b600760008373ffffffffffffffffffffffffffffffffffffffff1673ffffffffffffffffffffffffffffffffffffffff16815260200190815260200160002060009054906101000a900460ff1615610779576040517f08c379a000000000000000000000000000000000000000000000000000000000815260040161077090613d3f565b60405180910390fd5b6001600760008473ffffffffffffffffffffffffffffffffffffffff1673ffffffffffffffffffffffffffffffffffffffff16815260200190815260200160002060006101000a81548160ff0219169083151502179055508173ffffffffffffffffffffffffffffffffffffffff167ff7fe8023cb2e36bde1d59a88ac5763a8c11be6d25e6819f71bb7e23e5bf0dc1660405160405180910390a250600160028190555050565b6000801b61083581610830611ebe565b611ec6565b816005819055505050565b6000806000838152602001908152602001600020600101549050919050565b61086882610840565b61087981610874611ebe565b611ec6565b6108838383611f76565b505050565b610890611ebe565b73ffffffffffffffffffffffffffffffffffffffff168173ffffffffffffffffffffffffffffffffffffffff16146108fd576040517f08c379a00000000000000000000000000000000000000000000000000000000081526004016108f490613e1f565b60405180910390fd5b6109078282612056565b5050565b610913610b8d565b610952576040517f08c379a000000000000000000000000000000000000000000000000000000000815260040161094990613bbf565b60405180910390fd5b6000801b61096781610962611ebe565b611ec6565b61096f612137565b50565b60066020528060005260406000206000915090508060000160009054906101000a900467ffffffffffffffff16908060010154908060020160009054906101000a900460ff16908060020160019054906101000a900473ffffffffffffffffffffffffffffffffffffffff16908060030160009054906101000a900473ffffffffffffffffffffffffffffffffffffffff16905085565b600280541415610a4e576040517f08c379a0000000000000000000000000000000000000000000000000000000008152600401610a4590613dbf565b60405180910390fd5b60028081905550610a5d610b8d565b15610a9d576040517f08c379a0000000000000000000000000000000000000000000000000000000008152600401610a9490613c9f565b60405180910390fd5b6000801b610ab281610aad611ebe565b611ec6565b600860008360ff1660ff16815260200190815260200160002060009054906101000a900460ff16610b18576040517f08c379a0000000000000000000000000000000000000000000000000000000008152600401610b0f90613dff565b60405180910390fd5b6000600860008460ff1660ff16815260200190815260200160002060006101000a81548160ff0219169083151502179055507f9ec2302e7ee0398213255e47e2a84d3fe957e971b76286b0ee3e8136f1d5d69082604051610b799190613f0e565b60405180910390a150600160028190555050565b6000600160009054906101000a900460ff16905090565b60076020528060005260406000206000915054906101000a900460ff1681565b6000600280541415610c0b576040517f08c379a0000000000000000000000000000000000000000000000000000000008152600401610c0290613dbf565b60405180910390fd5b60028081905550610c1a610b8d565b15610c5a576040517f08c379a0000000000000000000000000000000000000000000000000000000008152600401610c5190613c9f565b60405180910390fd5b610c798573ffffffffffffffffffffffffffffffffffffffff16611f63565b610cb8576040517f08c379a0000000000000000000000000000000000000000000000000000000008152600401610caf90613d9f565b60405180910390fd5b600760008673ffffffffffffffffffffffffffffffffffffffff1673ffffffffffffffffffffffffffffffffffffffff16815260200190815260200160002060009054906101000a900460ff16610d44576040517f08c379a0000000000000000000000000000000000000000000000000000000008152600401610d3b90613b9f565b60405180910390fd5b600860008460ff1660ff16815260200190815260200160002060009054906101000a900460ff16610daa576040517f08c379a0000000000000000000000000000000000000000000000000000000008152600401610da190613c7f565b60405180910390fd5b60008590508073ffffffffffffffffffffffffffffffffffffffff166379cc679033876040518363ffffffff1660e01b8152600401610dea929190613a77565b600060405180830381600087803b158015610e0457600080fd5b505af1158015610e18573d6000803e3d6000fd5b505050506000606490506000610e5d82610e4f610e40600554866121d990919063ffffffff16565b8a6121ef90919063ffffffff16565b61220590919063ffffffff16565b905060004390506040518060c001604052808281526020018381526020018860ff1681526020018781526020018a73ffffffffffffffffffffffffffffffffffffffff1681526020016000151581525060096000838152602001908152602001600020600082015181600001556020820151816001015560408201518160020160006101000a81548160ff021916908360ff1602179055506060820151816003015560808201518160040160006101000a81548173ffffffffffffffffffffffffffffffffffffffff021916908373ffffffffffffffffffffffffffffffffffffffff16021790555060a08201518160040160146101000a81548160ff021916908315150217905550905050858973ffffffffffffffffffffffffffffffffffffffff16827f0af9a96d5eab584bc97107a072072e71ae2353e7fa0ad649f0a7bb5b542e08778a8633604051610fb593929190613f29565b60405180910390a4809450505050506001600281905550949350505050565b600280541415611019576040517f08c379a000000000000000000000000000000000000000000000000000000000815260040161101090613dbf565b60405180910390fd5b60028081905550611028610b8d565b15611068576040517f08c379a000000000000000000000000000000000000000000000000000000000815260040161105f90613c9f565b60405180910390fd5b6000801b61107d81611078611ebe565b611ec6565b600760008373ffffffffffffffffffffffffffffffffffffffff1673ffffffffffffffffffffffffffffffffffffffff16815260200190815260200160002060009054906101000a900460ff16611109576040517f08c379a000000000000000000000000000000000000000000000000000000000815260040161110090613b9f565b60405180910390fd5b6000600760008473ffffffffffffffffffffffffffffffffffffffff1673ffffffffffffffffffffffffffffffffffffffff16815260200190815260200160002060006101000a81548160ff0219169083151502179055508173ffffffffffffffffffffffffffffffffffffffff167fca2a890939276223a9122217752c67608466faee388aff53f077d00a186a389b60405160405180910390a250600160028190555050565b6111b8610b8d565b156111f8576040517f08c379a00000000000000000000000000000000000000000000000000000000081526004016111ef90613c9f565b60405180910390fd5b6000801b61120d81611208611ebe565b611ec6565b61121561221b565b50565b60028054141561125d576040517f08c379a000000000000000000000000000000000000000000000000000000000815260040161125490613dbf565b60405180910390fd5b6002808190555061126c610b8d565b156112ac576040517f08c379a00000000000000000000000000000000000000000000000000000000081526004016112a390613c9f565b60405180910390fd5b60008380519060200120905060006112c3826122bd565b9050600080600090505b858590508160ff1610156113e05736600087878460ff1681811061131a577f4e487b7100000000000000000000000000000000000000000000000000000000600052603260045260246000fd5b905060200281019061132c9190613f60565b91509150600061138983838080601f016020809104026020016040519081016040528093929190818152602001838380828437600081840152601f19601f82011690508083019250505050505050876122ed90919063ffffffff16565b90506113b57f68e79a7bf1e0bc45d0a330c573bc367f9cf464fd326078812f301165fbda4ef1826118a8565b156113ca576001856113c791906140ce565b94505b50505080806113d8906142e1565b9150506112cd565b506003548160ff161015611429576040517f08c379a000000000000000000000000000000000000000000000000000000000815260040161142090613d1f565b60405180910390fd5b600061143487612314565b9050806060015173ffffffffffffffffffffffffffffffffffffffff168873ffffffffffffffffffffffffffffffffffffffff16146114a8576040517f08c379a000000000000000000000000000000000000000000000000000000000815260040161149f90613d7f565b60405180910390fd5b600460009054906101000a900460ff1660ff16816040015160ff1614611503576040517f08c379a00000000000000000000000000000000000000000000000000000000081526004016114fa90613c1f565b60405180910390fd5b600060066000836000015167ffffffffffffffff1667ffffffffffffffff16815260200190815260200160002060000160009054906101000a900467ffffffffffffffff1667ffffffffffffffff1614611592576040517f08c379a000000000000000000000000000000000000000000000000000000000815260040161158990613d5f565b60405180910390fd5b600760008973ffffffffffffffffffffffffffffffffffffffff1673ffffffffffffffffffffffffffffffffffffffff16815260200190815260200160002060009054906101000a900460ff1661161e576040517f08c379a000000000000000000000000000000000000000000000000000000000815260040161161590613ddf565b60405180910390fd5b3373ffffffffffffffffffffffffffffffffffffffff16816080015173ffffffffffffffffffffffffffffffffffffffff1614611690576040517f08c379a000000000000000000000000000000000000000000000000000000000815260040161168790613c3f565b60405180910390fd5b60008890508073ffffffffffffffffffffffffffffffffffffffff166340c10f193384602001516040518363ffffffff1660e01b81526004016116d4929190613a77565b600060405180830381600087803b1580156116ee57600080fd5b505af1158015611702573d6000803e3d6000fd5b505050508160066000846000015167ffffffffffffffff1667ffffffffffffffff16815260200190815260200160002060008201518160000160006101000a81548167ffffffffffffffff021916908367ffffffffffffffff1602179055506020820151816001015560408201518160020160006101000a81548160ff021916908360ff16021790555060608201518160020160016101000a81548173ffffffffffffffffffffffffffffffffffffffff021916908373ffffffffffffffffffffffffffffffffffffffff16021790555060808201518160030160006101000a81548173ffffffffffffffffffffffffffffffffffffffff021916908373ffffffffffffffffffffffffffffffffffffffff1602179055509050508873ffffffffffffffffffffffffffffffffffffffff163373ffffffffffffffffffffffffffffffffffffffff16836000015167ffffffffffffffff167fce3bcb6e219596cf26007ffdfaae8953bc3f76e3f36c0a79b23e28020da3222e856020015160405161188d9190613e3f565b60405180910390a45050505050600160028190555050505050565b600080600084815260200190815260200160002060000160008373ffffffffffffffffffffffffffffffffffffffff1673ffffffffffffffffffffffffffffffffffffffff16815260200190815260200160002060009054906101000a900460ff16905092915050565b60086020528060005260406000206000915054906101000a900460ff1681565b600460009054906101000a900460ff1681565b6000801b81565b60055481565b60035481565b61196182610840565b6119728161196d611ebe565b611ec6565b61197c8383612056565b505050565b60096020528060005260406000206000915090508060000154908060010154908060020160009054906101000a900460ff16908060030154908060040160009054906101000a900473ffffffffffffffffffffffffffffffffffffffff16908060040160149054906101000a900460ff16905086565b600280541415611a3c576040517f08c379a0000000000000000000000000000000000000000000000000000000008152600401611a3390613dbf565b60405180910390fd5b60028081905550611a4b610b8d565b15611a8b576040517f08c379a0000000000000000000000000000000000000000000000000000000008152600401611a8290613c9f565b60405180910390fd5b7f68e79a7bf1e0bc45d0a330c573bc367f9cf464fd326078812f301165fbda4ef1611abd81611ab8611ebe565b611ec6565b600060096000858152602001908152602001600020600001541415611b17576040517f08c379a0000000000000000000000000000000000000000000000000000000008152600401611b0e90613bff565b60405180910390fd5b600a600084815260200190815260200160002060003373ffffffffffffffffffffffffffffffffffffffff1673ffffffffffffffffffffffffffffffffffffffff16815260200190815260200160002060009054906101000a900460ff1615611bb5576040517f08c379a0000000000000000000000000000000000000000000000000000000008152600401611bac90613cdf565b60405180910390fd5b611bda82600b60008681526020019081526020016000206123ae90919063ffffffff16565b506001600a600085815260200190815260200160002060003373ffffffffffffffffffffffffffffffffffffffff1673ffffffffffffffffffffffffffffffffffffffff16815260200190815260200160002060006101000a81548160ff0219169083151502179055505060016002819055505050565b600280541415611c96576040517f08c379a0000000000000000000000000000000000000000000000000000000008152600401611c8d90613dbf565b60405180910390fd5b60028081905550611ca5610b8d565b15611ce5576040517f08c379a0000000000000000000000000000000000000000000000000000000008152600401611cdc90613c9f565b60405180910390fd5b6000801b611cfa81611cf5611ebe565b611ec6565b600860008360ff1660ff16815260200190815260200160002060009054906101000a900460ff1615611d61576040517f08c379a0000000000000000000000000000000000000000000000000000000008152600401611d5890613cbf565b60405180910390fd5b6001600860008460ff1660ff16815260200190815260200160002060006101000a81548160ff0219169083151502179055507f107f463c3897d19773c8ecf6fb76d96513e951afb85b9bf2dc319dd79cc4c04b82604051611dc29190613f0e565b60405180910390a150600160028190555050565b6060600060096000848152602001908152602001600020600001541415611e32576040517f08c379a0000000000000000000000000000000000000000000000000000000008152600401611e2990613bff565b60405180910390fd5b611e4d600b60008481526020019081526020016000206123c5565b9050919050565b60007f01ffc9a7000000000000000000000000000000000000000000000000000000007bffffffffffffffffffffffffffffffffffffffffffffffffffffffff1916827bffffffffffffffffffffffffffffffffffffffffffffffffffffffff1916149050919050565b600033905090565b611ed082826118a8565b611f5f57611ef58173ffffffffffffffffffffffffffffffffffffffff1660146123da565b611f038360001c60206123da565b604051602001611f14929190613a22565b6040516020818303038152906040526040517f08c379a0000000000000000000000000000000000000000000000000000000008152600401611f569190613b3d565b60405180910390fd5b5050565b600080823b905060008111915050919050565b611f8082826118a8565b61205257600160008084815260200190815260200160002060000160008373ffffffffffffffffffffffffffffffffffffffff1673ffffffffffffffffffffffffffffffffffffffff16815260200190815260200160002060006101000a81548160ff021916908315150217905550611ff7611ebe565b73ffffffffffffffffffffffffffffffffffffffff168173ffffffffffffffffffffffffffffffffffffffff16837f2f8788117e7eff1d82e926ec794901d17c78024a50270940304540a733656f0d60405160405180910390a45b5050565b61206082826118a8565b1561213357600080600084815260200190815260200160002060000160008373ffffffffffffffffffffffffffffffffffffffff1673ffffffffffffffffffffffffffffffffffffffff16815260200190815260200160002060006101000a81548160ff0219169083151502179055506120d8611ebe565b73ffffffffffffffffffffffffffffffffffffffff168173ffffffffffffffffffffffffffffffffffffffff16837ff6391f5c32d9c69d2a47ea670b442974b53935d1edc7fd64eb21e047a839171b60405160405180910390a45b5050565b61213f610b8d565b61217e576040517f08c379a000000000000000000000000000000000000000000000000000000000815260040161217590613bbf565b60405180910390fd5b6000600160006101000a81548160ff0219169083151502179055507f5db9ee0a495bf2e6ff9c91a7834c1ba4fdd244a5e8aa4e537bd38aeae4b073aa6121c2611ebe565b6040516121cf9190613a5c565b60405180910390a1565b600081836121e79190614190565b905092915050565b600081836121fd9190614136565b905092915050565b600081836122139190614105565b905092915050565b612223610b8d565b15612263576040517f08c379a000000000000000000000000000000000000000000000000000000000815260040161225a90613c9f565b60405180910390fd5b60018060006101000a81548160ff0219169083151502179055507f62e78cea01bee320cd4e420270b5ea74000d11b0c9f74754ebdbfc544b05a2586122a6611ebe565b6040516122b39190613a5c565b60405180910390a1565b6000816040516020016122d091906139fc565b604051602081830303815290604052805190602001209050919050565b60008060006122fc85856126d4565b9150915061230981612757565b819250505092915050565b61231c612cf2565b600080600080600086806020019051810190612338919061310a565b945094509450945094506040518060a001604052808667ffffffffffffffff1681526020018581526020018460ff1681526020018373ffffffffffffffffffffffffffffffffffffffff1681526020018273ffffffffffffffffffffffffffffffffffffffff1681525095505050505050919050565b60006123bd8360000183612aa8565b905092915050565b60606123d382600001612b18565b9050919050565b6060600060028360026123ed9190614136565b6123f79190614078565b67ffffffffffffffff811115612436577f4e487b7100000000000000000000000000000000000000000000000000000000600052604160045260246000fd5b6040519080825280601f01601f1916602001820160405280156124685781602001600182028036833780820191505090505b5090507f3000000000000000000000000000000000000000000000000000000000000000816000815181106124c6577f4e487b7100000000000000000000000000000000000000000000000000000000600052603260045260246000fd5b60200101907effffffffffffffffffffffffffffffffffffffffffffffffffffffffffffff1916908160001a9053507f780000000000000000000000000000000000000000000000000000000000000081600181518110612550577f4e487b7100000000000000000000000000000000000000000000000000000000600052603260045260246000fd5b60200101907effffffffffffffffffffffffffffffffffffffffffffffffffffffffffffff1916908160001a905350600060018460026125909190614136565b61259a9190614078565b90505b6001811115612686577f3031323334353637383961626364656600000000000000000000000000000000600f861660108110612602577f4e487b7100000000000000000000000000000000000000000000000000000000600052603260045260246000fd5b1a60f81b82828151811061263f577f4e487b7100000000000000000000000000000000000000000000000000000000600052603260045260246000fd5b60200101907effffffffffffffffffffffffffffffffffffffffffffffffffffffffffffff1916908160001a905350600485901c94508061267f906142b7565b905061259d565b50600084146126ca576040517f08c379a00000000000000000000000000000000000000000000000000000000081526004016126c190613b7f565b60405180910390fd5b8091505092915050565b6000806041835114156127165760008060006020860151925060408601519150606086015160001a905061270a87828585612b74565b94509450505050612750565b60408351141561274757600080602085015191506040850151905061273c868383612c81565b935093505050612750565b60006002915091505b9250929050565b60006004811115612791577f4e487b7100000000000000000000000000000000000000000000000000000000600052602160045260246000fd5b8160048111156127ca577f4e487b7100000000000000000000000000000000000000000000000000000000600052602160045260246000fd5b14156127d557612aa5565b6001600481111561280f577f4e487b7100000000000000000000000000000000000000000000000000000000600052602160045260246000fd5b816004811115612848577f4e487b7100000000000000000000000000000000000000000000000000000000600052602160045260246000fd5b1415612889576040517f08c379a000000000000000000000000000000000000000000000000000000000815260040161288090613b5f565b60405180910390fd5b600260048111156128c3577f4e487b7100000000000000000000000000000000000000000000000000000000600052602160045260246000fd5b8160048111156128fc577f4e487b7100000000000000000000000000000000000000000000000000000000600052602160045260246000fd5b141561293d576040517f08c379a000000000000000000000000000000000000000000000000000000000815260040161293490613bdf565b60405180910390fd5b60036004811115612977577f4e487b7100000000000000000000000000000000000000000000000000000000600052602160045260246000fd5b8160048111156129b0577f4e487b7100000000000000000000000000000000000000000000000000000000600052602160045260246000fd5b14156129f1576040517f08c379a00000000000000000000000000000000000000000000000000000000081526004016129e890613c5f565b60405180910390fd5b600480811115612a2a577f4e487b7100000000000000000000000000000000000000000000000000000000600052602160045260246000fd5b816004811115612a63577f4e487b7100000000000000000000000000000000000000000000000000000000600052602160045260246000fd5b1415612aa4576040517f08c379a0000000000000000000000000000000000000000000000000000000008152600401612a9b90613cff565b60405180910390fd5b5b50565b6000612ab48383612ccf565b612b0d578260000182908060018154018082558091505060019003906000526020600020016000909190919091505582600001805490508360010160008481526020019081526020016000208190555060019050612b12565b600090505b92915050565b606081600001805480602002602001604051908101604052809291908181526020018280548015612b6857602002820191906000526020600020905b815481526020019060010190808311612b54575b50505050509050919050565b6000807f7fffffffffffffffffffffffffffffff5d576e7357a4501ddfe92f46681b20a08360001c1115612baf576000600391509150612c78565b601b8560ff1614158015612bc75750601c8560ff1614155b15612bd9576000600491509150612c78565b600060018787878760405160008152602001604052604051612bfe9493929190613af8565b6020604051602081039080840390855afa158015612c20573d6000803e3d6000fd5b505050602060405103519050600073ffffffffffffffffffffffffffffffffffffffff168173ffffffffffffffffffffffffffffffffffffffff161415612c6f57600060019250925050612c78565b80600092509250505b94509492505050565b6000806000807f7fffffffffffffffffffffffffffffffffffffffffffffffffffffffffffffff85169150601b8560ff1c019050612cc187828885612b74565b935093505050935093915050565b600080836001016000848152602001908152602001600020541415905092915050565b6040518060a00160405280600067ffffffffffffffff16815260200160008152602001600060ff168152602001600073ffffffffffffffffffffffffffffffffffffffff168152602001600073ffffffffffffffffffffffffffffffffffffffff1681525090565b6000612d6d612d6884613fe8565b613fb7565b905082815260208101848484011115612d8557600080fd5b612d90848285614275565b509392505050565b600081359050612da7816143b3565b92915050565b600081519050612dbc816143ca565b92915050565b60008083601f840112612dd457600080fd5b8235905067ffffffffffffffff811115612ded57600080fd5b602083019150836020820283011115612e0557600080fd5b9250929050565b600081359050612e1b816143e1565b92915050565b600081359050612e30816143f8565b92915050565b600082601f830112612e4757600080fd5b8135612e57848260208601612d5a565b91505092915050565b600081359050612e6f8161440f565b92915050565b600081519050612e848161440f565b92915050565b600081359050612e9981614426565b92915050565b600081519050612eae81614426565b92915050565b600081359050612ec38161443d565b92915050565b600081519050612ed88161443d565b92915050565b600060208284031215612ef057600080fd5b6000612efe84828501612d98565b91505092915050565b60008060008060608587031215612f1d57600080fd5b6000612f2b87828801612d98565b945050602085013567ffffffffffffffff811115612f4857600080fd5b612f5487828801612e36565b935050604085013567ffffffffffffffff811115612f7157600080fd5b612f7d87828801612dc2565b925092505092959194509250565b60008060008060808587031215612fa157600080fd5b6000612faf87828801612d98565b9450506020612fc087828801612e60565b9350506040612fd187828801612eb4565b9250506060612fe287828801612e0c565b91505092959194509250565b60006020828403121561300057600080fd5b600061300e84828501612e0c565b91505092915050565b6000806040838503121561302a57600080fd5b600061303885828601612e0c565b925050602061304985828601612d98565b9150509250929050565b60006020828403121561306557600080fd5b600061307384828501612e21565b91505092915050565b60006020828403121561308e57600080fd5b600061309c84828501612e60565b91505092915050565b600080604083850312156130b857600080fd5b60006130c685828601612e60565b92505060206130d785828601612e0c565b9150509250929050565b6000602082840312156130f357600080fd5b600061310184828501612e8a565b91505092915050565b600080600080600060a0868803121561312257600080fd5b600061313088828901612e9f565b955050602061314188828901612e75565b945050604061315288828901612ec9565b935050606061316388828901612dad565b925050608061317488828901612dad565b9150509295509295909350565b60006020828403121561319357600080fd5b60006131a184828501612eb4565b91505092915050565b60006131b6838361323e565b60208301905092915050565b6131cb816141c4565b82525050565b60006131dc82614028565b6131e6818561404b565b93506131f183614018565b8060005b8381101561322257815161320988826131aa565b97506132148361403e565b9250506001810190506131f5565b5085935050505092915050565b613238816141e8565b82525050565b613247816141f4565b82525050565b613256816141f4565b82525050565b61326d613268826141f4565b61430b565b82525050565b600061327e82614033565b613288818561405c565b9350613298818560208601614284565b6132a1816143a2565b840191505092915050565b60006132b782614033565b6132c1818561406d565b93506132d1818560208601614284565b80840191505092915050565b60006132ea60188361405c565b91507f45434453413a20696e76616c6964207369676e617475726500000000000000006000830152602082019050919050565b600061332a60208361405c565b91507f537472696e67733a20686578206c656e67746820696e73756666696369656e746000830152602082019050919050565b600061336a60168361405c565b91507f546f6b656e206973206e6f7420737570706f72746564000000000000000000006000830152602082019050919050565b60006133aa60148361405c565b91507f5061757361626c653a206e6f74207061757365640000000000000000000000006000830152602082019050919050565b60006133ea601f8361405c565b91507f45434453413a20696e76616c6964207369676e6174757265206c656e677468006000830152602082019050919050565b600061342a601c8361406d565b91507f19457468657265756d205369676e6564204d6573736167653a0a3332000000006000830152601c82019050919050565b600061346a60168361405c565b91507f53656e6420496420646f6573206e6f74206578697374000000000000000000006000830152602082019050919050565b60006134aa60158361405c565b91507f4e6f7420737570706f7274656420636861696e496400000000000000000000006000830152602082019050919050565b60006134ea60168361405c565b91507f4e6f7420656c696769626c6520666f7220636c61696d000000000000000000006000830152602082019050919050565b600061352a60228361405c565b91507f45434453413a20696e76616c6964207369676e6174757265202773272076616c60008301527f75650000000000000000000000000000000000000000000000000000000000006020830152604082019050919050565b600061359060168361405c565b91507f4e6f7420537570706f7274656420436861696e204944000000000000000000006000830152602082019050919050565b60006135d060108361405c565b91507f5061757361626c653a20706175736564000000000000000000000000000000006000830152602082019050919050565b600061361060198361405c565b91507f436861696e496420616c726561647920737570706f72746564000000000000006000830152602082019050919050565b600061365060158361405c565b91507f4f7261636c6520616c7265616479207369676e656400000000000000000000006000830152602082019050919050565b600061369060228361405c565b91507f45434453413a20696e76616c6964207369676e6174757265202776272076616c60008301527f75650000000000000000000000000000000000000000000000000000000000006020830152604082019050919050565b60006136f6601b8361405c565b91507f4e6f7420656e6f7567682076616c6964207369676e61747572657300000000006000830152602082019050919050565b6000613736601a8361405c565b91507f546f6b656e20697320616c726561647920737570706f727465640000000000006000830152602082019050919050565b600061377660188361405c565b91507f5472616e7366657220616c726561647920636c61696d656400000000000000006000830152602082019050919050565b60006137b660158361405c565b91507f496e76616c696420746f6b656e206164647265737300000000000000000000006000830152602082019050919050565b60006137f660198361405c565b91507f41646472657373206973206e6f74206120636f6e7472616374000000000000006000830152602082019050919050565b600061383660178361406d565b91507f416363657373436f6e74726f6c3a206163636f756e74200000000000000000006000830152601782019050919050565b6000613876601f8361405c565b91507f5265656e7472616e637947756172643a207265656e7472616e742063616c6c006000830152602082019050919050565b60006138b660198361405c565b91507f556e737570706f7274656420746f6b656e2061646472657373000000000000006000830152602082019050919050565b60006138f660158361405c565b91507f436861696e4964206e6f7420737570706f7274656400000000000000000000006000830152602082019050919050565b600061393660118361406d565b91507f206973206d697373696e6720726f6c65200000000000000000000000000000006000830152601182019050919050565b6000613976602f8361405c565b91507f416363657373436f6e74726f6c3a2063616e206f6e6c792072656e6f756e636560008301527f20726f6c657320666f722073656c6600000000000000000000000000000000006020830152604082019050919050565b6139d88161424a565b82525050565b6139e781614254565b82525050565b6139f681614268565b82525050565b6000613a078261341d565b9150613a13828461325c565b60208201915081905092915050565b6000613a2d82613829565b9150613a3982856132ac565b9150613a4482613929565b9150613a5082846132ac565b91508190509392505050565b6000602082019050613a7160008301846131c2565b92915050565b6000604082019050613a8c60008301856131c2565b613a9960208301846139cf565b9392505050565b60006020820190508181036000830152613aba81846131d1565b905092915050565b6000602082019050613ad7600083018461322f565b92915050565b6000602082019050613af2600083018461324d565b92915050565b6000608082019050613b0d600083018761324d565b613b1a60208301866139ed565b613b27604083018561324d565b613b34606083018461324d565b95945050505050565b60006020820190508181036000830152613b578184613273565b905092915050565b60006020820190508181036000830152613b78816132dd565b9050919050565b60006020820190508181036000830152613b988161331d565b9050919050565b60006020820190508181036000830152613bb88161335d565b9050919050565b60006020820190508181036000830152613bd88161339d565b9050919050565b60006020820190508181036000830152613bf8816133dd565b9050919050565b60006020820190508181036000830152613c188161345d565b9050919050565b60006020820190508181036000830152613c388161349d565b9050919050565b60006020820190508181036000830152613c58816134dd565b9050919050565b60006020820190508181036000830152613c788161351d565b9050919050565b60006020820190508181036000830152613c9881613583565b9050919050565b60006020820190508181036000830152613cb8816135c3565b9050919050565b60006020820190508181036000830152613cd881613603565b9050919050565b60006020820190508181036000830152613cf881613643565b9050919050565b60006020820190508181036000830152613d1881613683565b9050919050565b60006020820190508181036000830152613d38816136e9565b9050919050565b60006020820190508181036000830152613d5881613729565b9050919050565b60006020820190508181036000830152613d7881613769565b9050919050565b60006020820190508181036000830152613d98816137a9565b9050919050565b60006020820190508181036000830152613db8816137e9565b9050919050565b60006020820190508181036000830152613dd881613869565b9050919050565b60006020820190508181036000830152613df8816138a9565b9050919050565b60006020820190508181036000830152613e18816138e9565b9050919050565b60006020820190508181036000830152613e3881613969565b9050919050565b6000602082019050613e5460008301846139cf565b92915050565b600060c082019050613e6f60008301896139cf565b613e7c60208301886139cf565b613e8960408301876139ed565b613e96606083018661324d565b613ea360808301856131c2565b613eb060a083018461322f565b979650505050505050565b600060a082019050613ed060008301886139de565b613edd60208301876139cf565b613eea60408301866139ed565b613ef760608301856131c2565b613f0460808301846131c2565b9695505050505050565b6000602082019050613f2360008301846139ed565b92915050565b6000606082019050613f3e60008301866139ed565b613f4b60208301856139cf565b613f5860408301846131c2565b949350505050565b60008083356001602003843603038112613f7957600080fd5b80840192508235915067ffffffffffffffff821115613f9757600080fd5b602083019250600182023603831315613faf57600080fd5b509250929050565b6000604051905081810181811067ffffffffffffffff82111715613fde57613fdd614373565b5b8060405250919050565b600067ffffffffffffffff82111561400357614002614373565b5b601f19601f8301169050602081019050919050565b6000819050602082019050919050565b600081519050919050565b600081519050919050565b6000602082019050919050565b600082825260208201905092915050565b600082825260208201905092915050565b600081905092915050565b60006140838261424a565b915061408e8361424a565b9250827fffffffffffffffffffffffffffffffffffffffffffffffffffffffffffffffff038211156140c3576140c2614315565b5b828201905092915050565b60006140d982614268565b91506140e483614268565b92508260ff038211156140fa576140f9614315565b5b828201905092915050565b60006141108261424a565b915061411b8361424a565b92508261412b5761412a614344565b5b828204905092915050565b60006141418261424a565b915061414c8361424a565b9250817fffffffffffffffffffffffffffffffffffffffffffffffffffffffffffffffff048311821515161561418557614184614315565b5b828202905092915050565b600061419b8261424a565b91506141a68361424a565b9250828210156141b9576141b8614315565b5b828203905092915050565b60006141cf8261422a565b9050919050565b60006141e18261422a565b9050919050565b60008115159050919050565b6000819050919050565b60007fffffffff0000000000000000000000000000000000000000000000000000000082169050919050565b600073ffffffffffffffffffffffffffffffffffffffff82169050919050565b6000819050919050565b600067ffffffffffffffff82169050919050565b600060ff82169050919050565b82818337600083830152505050565b60005b838110156142a2578082015181840152602081019050614287565b838111156142b1576000848401525b50505050565b60006142c28261424a565b915060008214156142d6576142d5614315565b5b600182039050919050565b60006142ec82614268565b915060ff821415614300576142ff614315565b5b600182019050919050565b6000819050919050565b7f4e487b7100000000000000000000000000000000000000000000000000000000600052601160045260246000fd5b7f4e487b7100000000000000000000000000000000000000000000000000000000600052601260045260246000fd5b7f4e487b7100000000000000000000000000000000000000000000000000000000600052604160045260246000fd5b6000601f19601f8301169050919050565b6143bc816141c4565b81146143c757600080fd5b50565b6143d3816141d6565b81146143de57600080fd5b50565b6143ea816141f4565b81146143f557600080fd5b50565b614401816141fe565b811461440c57600080fd5b50565b6144188161424a565b811461442357600080fd5b50565b61442f81614254565b811461443a57600080fd5b50565b61444681614268565b811461445157600080fd5b5056fea26469706673582212201f160a1821add4fb4c1791c983053b6da3e3b3b1b33313da6052aa5581d5fc2764736f6c63430008000033",
  "immutableReferences": {},
  "source": "// contracts/BluToken.sol\n// SPDX-License-Identifier: MIT\npragma solidity ^0.8.0;\n\nimport \"@openzeppelin/contracts/access/AccessControl.sol\";\nimport \"@openzeppelin/contracts/utils/cryptography/ECDSA.sol\";\nimport \"@openzeppelin/contracts/token/ERC20/extensions/ERC20Burnable.sol\";\nimport \"@openzeppelin/contracts/utils/structs/EnumerableSet.sol\";\nimport \"@openzeppelin/contracts/utils/Address.sol\";\nimport \"@openzeppelin/contracts/security/Pausable.sol\";\nimport \"@openzeppelin/contracts/security/ReentrancyGuard.sol\";\nimport \"@openzeppelin/contracts/utils/math/SafeMath.sol\";\n\nabstract contract BridgeERC20 is ERC20Burnable {\n    function mint(address account, uint256 amount) public virtual;\n}\n\nstruct TransferData {\n    uint64 id;\n    uint256 amount;\n    uint8 chainId;\n    address tokenAddress;\n    address toAddress;\n}\n\nstruct SendTransferData {\n    uint256 id;\n    uint256 amount;\n    uint8 chainId;\n    bytes32 toAddress;\n    address tokenContractAddress;\n    bool claimed;\n}\n\ncontract BluDacTokenBridge is AccessControl, Pausable, ReentrancyGuard {\n    using ECDSA for bytes32;\n    using Address for address;\n    using EnumerableSet for EnumerableSet.Bytes32Set;\n    using SafeMath for uint256;\n\n    event RegisterToken(address indexed tokenAddress);\n    event UnregisterToken(address indexed tokenAddress);\n    event RegisterChainId(uint8 recepientChainId);\n    event UnregisterChainId(uint8 recepientChainId);\n    event Claimed(\n        uint256 indexed id,\n        address indexed toAddress,\n        address indexed tokenAddress,\n        uint256 amount\n    );\n\n    event Sent(\n        uint256 indexed id,\n        address indexed tokenAddress,\n        bytes32 indexed toAddress,\n        uint8 toChainId,\n        uint256 amount,\n        address fromAddress\n    );\n\n    bytes32 public constant ORACLE_ROLE = keccak256(\"ORACLE_ROLE\");\n    uint256 public minimumOracleConfirmations = 3;\n    uint8 public chainId;\n    uint256 public burnRate = 20;\n\n    mapping(uint64 => TransferData) public transferMap;\n    mapping(address => bool) public supportedTokens;\n    mapping(uint8 => bool) public supportedChainIds;\n\n    mapping(uint256 => SendTransferData) public sendTransferMap;\n    mapping(uint256 => mapping(address => bool)) signatureLookup;\n    mapping(uint256 => EnumerableSet.Bytes32Set) sendTransferSignatures;\n\n    constructor(uint8 _chainId) {\n        _setupRole(DEFAULT_ADMIN_ROLE, msg.sender);\n        chainId = _chainId;\n    }\n\n    function setBurnRate(uint256 _burnRate) public onlyRole(DEFAULT_ADMIN_ROLE) {\n        burnRate = _burnRate;\n    }\n\n    function pause() public whenNotPaused onlyRole(DEFAULT_ADMIN_ROLE) {\n        _pause();\n    }\n\n    function unpause() public whenPaused onlyRole(DEFAULT_ADMIN_ROLE) {\n        _unpause();\n    }\n\n    function registerToken(address tokenContractAddress)\n        public\n        nonReentrant\n        whenNotPaused\n        onlyRole(DEFAULT_ADMIN_ROLE)\n    {\n        require(tokenContractAddress.isContract(), \"Address is not a contract\");\n        require(\n            !supportedTokens[tokenContractAddress],\n            \"Token is already supported\"\n        );\n        supportedTokens[tokenContractAddress] = true;\n        emit RegisterToken(tokenContractAddress);\n    }\n\n    function unregisterToken(address tokenContractAddress)\n        public\n        nonReentrant\n        whenNotPaused\n        onlyRole(DEFAULT_ADMIN_ROLE)\n    {\n        require(\n            supportedTokens[tokenContractAddress],\n            \"Token is not supported\"\n        );\n        supportedTokens[tokenContractAddress] = false;\n        emit UnregisterToken(tokenContractAddress);\n    }\n\n    function registerChainId(uint8 recepientChainId)\n        public\n        nonReentrant\n        whenNotPaused\n        onlyRole(DEFAULT_ADMIN_ROLE)\n    {\n        require(\n            !supportedChainIds[recepientChainId],\n            \"ChainId already supported\"\n        );\n        supportedChainIds[recepientChainId] = true;\n        emit RegisterChainId(recepientChainId);\n    }\n\n    function ungisterChainId(uint8 recepientChainId)\n        public\n        nonReentrant\n        whenNotPaused\n        onlyRole(DEFAULT_ADMIN_ROLE)\n    {\n        require(supportedChainIds[recepientChainId], \"ChainId not supported\");\n        supportedChainIds[recepientChainId] = false;\n        emit UnregisterChainId(recepientChainId);\n    }\n\n    function _extractTransferData(bytes memory data)\n        internal\n        pure\n        returns (TransferData memory transferData)\n    {\n        (\n            uint64 id,\n            uint256 amount,\n            uint8 toChainId,\n            address tokenAddress,\n            address toAddress\n        ) = abi.decode(data, (uint64, uint256, uint8, address, address));\n\n        transferData = TransferData({\n            id: id,\n            amount: amount,\n            chainId: toChainId,\n            tokenAddress: tokenAddress,\n            toAddress: toAddress\n        });\n    }\n\n    function send(\n        address tokenContractAddress,\n        uint256 amount,\n        uint8 toChainId,\n        bytes32 toAddress\n    ) public nonReentrant whenNotPaused returns (uint256) {\n        require(tokenContractAddress.isContract(), \"Address is not a contract\");\n        require(\n            supportedTokens[tokenContractAddress],\n            \"Token is not supported\"\n        );\n        require(supportedChainIds[toChainId], \"Not Supported Chain ID\");\n\n        BridgeERC20 erc20 = BridgeERC20(tokenContractAddress);\n        erc20.burnFrom(msg.sender, amount);\n        uint256 maxPercentage = 100;\n        uint256 modifiedAmount = amount\n            .mul(maxPercentage.sub(burnRate))\n            .div(maxPercentage);\n\n        uint256 id = block.number;\n        sendTransferMap[id] = SendTransferData({\n            id: id,\n            amount: modifiedAmount,\n            chainId: toChainId,\n            toAddress: toAddress,\n            tokenContractAddress: tokenContractAddress,\n            claimed: false\n        });\n\n        emit Sent(\n            id,\n            tokenContractAddress,\n            toAddress,\n            toChainId,\n            modifiedAmount,\n            msg.sender\n        );\n        return id;\n    }\n\n    function getSignatures(uint256 sendId)\n        public\n        view\n        returns (bytes32[] memory)\n    {\n        require(sendTransferMap[sendId].id != 0, \"Send Id does not exist\");\n        return sendTransferSignatures[sendId].values();\n    }\n\n    function sign(uint256 sendId, bytes32 signature)\n        public\n        nonReentrant\n        whenNotPaused\n        onlyRole(ORACLE_ROLE)\n    {\n        require(sendTransferMap[sendId].id != 0, \"Send Id does not exist\");\n        require(!signatureLookup[sendId][msg.sender], \"Oracle already signed\");\n\n        sendTransferSignatures[sendId].add(signature);\n        signatureLookup[sendId][msg.sender] = true;\n    }\n\n    function claim(\n        address tokenAddress,\n        bytes memory data,\n        bytes[] calldata signatures\n    ) public nonReentrant whenNotPaused {\n        bytes32 message = keccak256(data);\n        bytes32 hashed = message.toEthSignedMessageHash();\n        uint8 validSignatures;\n        for (uint8 i = 0; i < signatures.length; i++) {\n            bytes calldata signature = signatures[i];\n            address signer = hashed.recover(signature);\n            if (hasRole(ORACLE_ROLE, signer)) {\n                validSignatures += 1;\n            }\n        }\n        require(\n            validSignatures >= minimumOracleConfirmations,\n            \"Not enough valid signatures\"\n        );\n\n        TransferData memory transferData = _extractTransferData(data);\n\n        require(\n            tokenAddress == transferData.tokenAddress,\n            \"Invalid token address\"\n        );\n\n        require(transferData.chainId == chainId, \"Not supported chainId\");\n\n        require(\n            transferMap[transferData.id].id == 0,\n            \"Transfer already claimed\"\n        );\n\n        require(supportedTokens[tokenAddress], \"Unsupported token address\");\n\n        require(transferData.toAddress == msg.sender, \"Not eligible for claim\");\n\n        BridgeERC20 erc20 = BridgeERC20(tokenAddress);\n        erc20.mint(msg.sender, transferData.amount);\n        transferMap[transferData.id] = transferData;\n        emit Claimed(\n            transferData.id,\n            msg.sender,\n            tokenAddress,\n            transferData.amount\n        );\n    }\n}\n",
  "sourcePath": "/Users/tedianosias/personal/BluBridge/smart_contracts/polygon/contracts/BluDacTokenBridge.sol",
  "compiler": {
    "name": "solc",
    "version": "0.8.0+commit.c7dfd78e.Emscripten.clang"
  },
  "schemaVersion": "3.4.3",
  "updatedAt": "2021-12-03T09:50:16.054Z",
  "devdoc": {
    "kind": "dev",
    "methods": {
      "getRoleAdmin(bytes32)": {
        "details": "Returns the admin role that controls `role`. See {grantRole} and {revokeRole}. To change a role's admin, use {_setRoleAdmin}."
      },
      "grantRole(bytes32,address)": {
        "details": "Grants `role` to `account`. If `account` had not been already granted `role`, emits a {RoleGranted} event. Requirements: - the caller must have ``role``'s admin role."
      },
      "hasRole(bytes32,address)": {
        "details": "Returns `true` if `account` has been granted `role`."
      },
      "paused()": {
        "details": "Returns true if the contract is paused, and false otherwise."
      },
      "renounceRole(bytes32,address)": {
        "details": "Revokes `role` from the calling account. Roles are often managed via {grantRole} and {revokeRole}: this function's purpose is to provide a mechanism for accounts to lose their privileges if they are compromised (such as when a trusted device is misplaced). If the calling account had been granted `role`, emits a {RoleRevoked} event. Requirements: - the caller must be `account`."
      },
      "revokeRole(bytes32,address)": {
        "details": "Revokes `role` from `account`. If `account` had been granted `role`, emits a {RoleRevoked} event. Requirements: - the caller must have ``role``'s admin role."
      },
      "supportsInterface(bytes4)": {
        "details": "See {IERC165-supportsInterface}."
      }
    },
    "version": 1
  },
  "userdoc": {
    "kind": "user",
    "methods": {},
    "version": 1
  }
}