{
  "contractName": "TokenBridge",
  "abi": [
    {
      "inputs": [
        {
          "internalType": "uint8",
          "name": "_chainId",
          "type": "uint8"
        }
      ],
      "stateMutability": "nonpayable",
      "type": "constructor"
    },
    {
      "anonymous": false,
      "inputs": [
        {
          "indexed": true,
          "internalType": "uint256",
          "name": "id",
          "type": "uint256"
        },
        {
          "indexed": true,
          "internalType": "address",
          "name": "toAddress",
          "type": "address"
        },
        {
          "indexed": false,
          "internalType": "uint256",
          "name": "amount",
          "type": "uint256"
        }
      ],
      "name": "Claimed",
      "type": "event"
    },
    {
      "anonymous": false,
      "inputs": [
        {
          "indexed": false,
          "internalType": "uint8",
          "name": "recepientChainId",
          "type": "uint8"
        }
      ],
      "name": "RegisterChainId",
      "type": "event"
    },
    {
      "anonymous": false,
      "inputs": [
        {
          "indexed": true,
          "internalType": "address",
          "name": "tokenAddress",
          "type": "address"
        }
      ],
      "name": "RegisterToken",
      "type": "event"
    },
    {
      "anonymous": false,
      "inputs": [
        {
          "indexed": true,
          "internalType": "bytes32",
          "name": "role",
          "type": "bytes32"
        },
        {
          "indexed": true,
          "internalType": "bytes32",
          "name": "previousAdminRole",
          "type": "bytes32"
        },
        {
          "indexed": true,
          "internalType": "bytes32",
          "name": "newAdminRole",
          "type": "bytes32"
        }
      ],
      "name": "RoleAdminChanged",
      "type": "event"
    },
    {
      "anonymous": false,
      "inputs": [
        {
          "indexed": true,
          "internalType": "bytes32",
          "name": "role",
          "type": "bytes32"
        },
        {
          "indexed": true,
          "internalType": "address",
          "name": "account",
          "type": "address"
        },
        {
          "indexed": true,
          "internalType": "address",
          "name": "sender",
          "type": "address"
        }
      ],
      "name": "RoleGranted",
      "type": "event"
    },
    {
      "anonymous": false,
      "inputs": [
        {
          "indexed": true,
          "internalType": "bytes32",
          "name": "role",
          "type": "bytes32"
        },
        {
          "indexed": true,
          "internalType": "address",
          "name": "account",
          "type": "address"
        },
        {
          "indexed": true,
          "internalType": "address",
          "name": "sender",
          "type": "address"
        }
      ],
      "name": "RoleRevoked",
      "type": "event"
    },
    {
      "anonymous": false,
      "inputs": [
        {
          "indexed": true,
          "internalType": "uint256",
          "name": "id",
          "type": "uint256"
        },
        {
          "indexed": true,
          "internalType": "address",
          "name": "fromAddress",
          "type": "address"
        },
        {
          "indexed": true,
          "internalType": "bytes32",
          "name": "toAddress",
          "type": "bytes32"
        },
        {
          "indexed": false,
          "internalType": "uint8",
          "name": "toChainId",
          "type": "uint8"
        },
        {
          "indexed": false,
          "internalType": "uint256",
          "name": "amount",
          "type": "uint256"
        }
      ],
      "name": "Sent",
      "type": "event"
    },
    {
      "anonymous": false,
      "inputs": [
        {
          "indexed": false,
          "internalType": "uint8",
          "name": "recepientChainId",
          "type": "uint8"
        }
      ],
      "name": "UnregisterChainId",
      "type": "event"
    },
    {
      "anonymous": false,
      "inputs": [
        {
          "indexed": true,
          "internalType": "address",
          "name": "tokenAddress",
          "type": "address"
        }
      ],
      "name": "UnregisterToken",
      "type": "event"
    },
    {
      "inputs": [],
      "name": "DEFAULT_ADMIN_ROLE",
      "outputs": [
        {
          "internalType": "bytes32",
          "name": "",
          "type": "bytes32"
        }
      ],
      "stateMutability": "view",
      "type": "function",
      "constant": true
    },
    {
      "inputs": [],
      "name": "ORACLE_ROLE",
      "outputs": [
        {
          "internalType": "bytes32",
          "name": "",
          "type": "bytes32"
        }
      ],
      "stateMutability": "view",
      "type": "function",
      "constant": true
    },
    {
      "inputs": [],
      "name": "chainId",
      "outputs": [
        {
          "internalType": "uint8",
          "name": "",
          "type": "uint8"
        }
      ],
      "stateMutability": "view",
      "type": "function",
      "constant": true
    },
    {
      "inputs": [
        {
          "internalType": "bytes32",
          "name": "role",
          "type": "bytes32"
        }
      ],
      "name": "getRoleAdmin",
      "outputs": [
        {
          "internalType": "bytes32",
          "name": "",
          "type": "bytes32"
        }
      ],
      "stateMutability": "view",
      "type": "function",
      "constant": true
    },
    {
      "inputs": [
        {
          "internalType": "bytes32",
          "name": "role",
          "type": "bytes32"
        },
        {
          "internalType": "address",
          "name": "account",
          "type": "address"
        }
      ],
      "name": "grantRole",
      "outputs": [],
      "stateMutability": "nonpayable",
      "type": "function"
    },
    {
      "inputs": [
        {
          "internalType": "bytes32",
          "name": "role",
          "type": "bytes32"
        },
        {
          "internalType": "address",
          "name": "account",
          "type": "address"
        }
      ],
      "name": "hasRole",
      "outputs": [
        {
          "internalType": "bool",
          "name": "",
          "type": "bool"
        }
      ],
      "stateMutability": "view",
      "type": "function",
      "constant": true
    },
    {
      "inputs": [],
      "name": "minimumOracleConfirmations",
      "outputs": [
        {
          "internalType": "uint256",
          "name": "",
          "type": "uint256"
        }
      ],
      "stateMutability": "view",
      "type": "function",
      "constant": true
    },
    {
      "inputs": [
        {
          "internalType": "bytes32",
          "name": "role",
          "type": "bytes32"
        },
        {
          "internalType": "address",
          "name": "account",
          "type": "address"
        }
      ],
      "name": "renounceRole",
      "outputs": [],
      "stateMutability": "nonpayable",
      "type": "function"
    },
    {
      "inputs": [
        {
          "internalType": "bytes32",
          "name": "role",
          "type": "bytes32"
        },
        {
          "internalType": "address",
          "name": "account",
          "type": "address"
        }
      ],
      "name": "revokeRole",
      "outputs": [],
      "stateMutability": "nonpayable",
      "type": "function"
    },
    {
      "inputs": [
        {
          "internalType": "uint256",
          "name": "",
          "type": "uint256"
        }
      ],
      "name": "sendTransferMap",
      "outputs": [
        {
          "internalType": "uint256",
          "name": "id",
          "type": "uint256"
        },
        {
          "internalType": "uint256",
          "name": "amount",
          "type": "uint256"
        },
        {
          "internalType": "uint8",
          "name": "chainId",
          "type": "uint8"
        },
        {
          "internalType": "bytes32",
          "name": "toAddress",
          "type": "bytes32"
        },
        {
          "internalType": "address",
          "name": "tokenContractAddress",
          "type": "address"
        },
        {
          "internalType": "bool",
          "name": "claimed",
          "type": "bool"
        }
      ],
      "stateMutability": "view",
      "type": "function",
      "constant": true
    },
    {
      "inputs": [
        {
          "internalType": "uint8",
          "name": "",
          "type": "uint8"
        }
      ],
      "name": "supportedChainIds",
      "outputs": [
        {
          "internalType": "bool",
          "name": "",
          "type": "bool"
        }
      ],
      "stateMutability": "view",
      "type": "function",
      "constant": true
    },
    {
      "inputs": [
        {
          "internalType": "address",
          "name": "",
          "type": "address"
        }
      ],
      "name": "supportedTokens",
      "outputs": [
        {
          "internalType": "bool",
          "name": "",
          "type": "bool"
        }
      ],
      "stateMutability": "view",
      "type": "function",
      "constant": true
    },
    {
      "inputs": [
        {
          "internalType": "bytes4",
          "name": "interfaceId",
          "type": "bytes4"
        }
      ],
      "name": "supportsInterface",
      "outputs": [
        {
          "internalType": "bool",
          "name": "",
          "type": "bool"
        }
      ],
      "stateMutability": "view",
      "type": "function",
      "constant": true
    },
    {
      "inputs": [
        {
          "internalType": "uint256",
          "name": "",
          "type": "uint256"
        }
      ],
      "name": "tansferMap",
      "outputs": [
        {
          "internalType": "uint64",
          "name": "id",
          "type": "uint64"
        },
        {
          "internalType": "uint256",
          "name": "amount",
          "type": "uint256"
        },
        {
          "internalType": "uint8",
          "name": "chainId",
          "type": "uint8"
        },
        {
          "internalType": "address",
          "name": "tokenAddress",
          "type": "address"
        },
        {
          "internalType": "address",
          "name": "toAddress",
          "type": "address"
        }
      ],
      "stateMutability": "view",
      "type": "function",
      "constant": true
    },
    {
      "inputs": [
        {
          "internalType": "address",
          "name": "tokenContractAddress",
          "type": "address"
        }
      ],
      "name": "registerToken",
      "outputs": [],
      "stateMutability": "nonpayable",
      "type": "function"
    },
    {
      "inputs": [
        {
          "internalType": "address",
          "name": "tokenContractAddress",
          "type": "address"
        }
      ],
      "name": "unregisterToken",
      "outputs": [],
      "stateMutability": "nonpayable",
      "type": "function"
    },
    {
      "inputs": [
        {
          "internalType": "uint8",
          "name": "recepientChainId",
          "type": "uint8"
        }
      ],
      "name": "registerChainId",
      "outputs": [],
      "stateMutability": "nonpayable",
      "type": "function"
    },
    {
      "inputs": [
        {
          "internalType": "uint8",
          "name": "recepientChainId",
          "type": "uint8"
        }
      ],
      "name": "ungisterChainId",
      "outputs": [],
      "stateMutability": "nonpayable",
      "type": "function"
    },
    {
      "inputs": [
        {
          "internalType": "address",
          "name": "tokenContractAddress",
          "type": "address"
        },
        {
          "internalType": "uint256",
          "name": "amount",
          "type": "uint256"
        },
        {
          "internalType": "uint8",
          "name": "toChainId",
          "type": "uint8"
        },
        {
          "internalType": "bytes32",
          "name": "toAddress",
          "type": "bytes32"
        }
      ],
      "name": "send",
      "outputs": [
        {
          "internalType": "uint256",
          "name": "",
          "type": "uint256"
        }
      ],
      "stateMutability": "nonpayable",
      "type": "function"
    },
    {
      "inputs": [
        {
          "internalType": "uint256",
          "name": "sendId",
          "type": "uint256"
        }
      ],
      "name": "getSignatures",
      "outputs": [
        {
          "internalType": "bytes32[]",
          "name": "",
          "type": "bytes32[]"
        }
      ],
      "stateMutability": "view",
      "type": "function",
      "constant": true
    },
    {
      "inputs": [
        {
          "internalType": "uint256",
          "name": "sendId",
          "type": "uint256"
        },
        {
          "internalType": "bytes32",
          "name": "signature",
          "type": "bytes32"
        }
      ],
      "name": "sign",
      "outputs": [],
      "stateMutability": "nonpayable",
      "type": "function"
    },
    {
      "inputs": [
        {
          "internalType": "address",
          "name": "tokenAddress",
          "type": "address"
        },
        {
          "internalType": "bytes",
          "name": "data",
          "type": "bytes"
        },
        {
          "internalType": "bytes[]",
          "name": "signatures",
          "type": "bytes[]"
        }
      ],
      "name": "claim",
      "outputs": [],
      "stateMutability": "nonpayable",
      "type": "function"
    }
  ],
  "bytecode": "0x608060405260036001553480156200001657600080fd5b5060405162003a0d38038062003a0d83398181016040528101906200003c919062000203565b620000516000801b336200007360201b60201c565b80600260006101000a81548160ff021916908360ff1602179055505062000256565b6200008582826200008960201b60201c565b5050565b6200009b82826200017a60201b60201c565b6200017657600160008084815260200190815260200160002060000160008373ffffffffffffffffffffffffffffffffffffffff1673ffffffffffffffffffffffffffffffffffffffff16815260200190815260200160002060006101000a81548160ff0219169083151502179055506200011b620001e460201b60201c565b73ffffffffffffffffffffffffffffffffffffffff168173ffffffffffffffffffffffffffffffffffffffff16837f2f8788117e7eff1d82e926ec794901d17c78024a50270940304540a733656f0d60405160405180910390a45b5050565b600080600084815260200190815260200160002060000160008373ffffffffffffffffffffffffffffffffffffffff1673ffffffffffffffffffffffffffffffffffffffff16815260200190815260200160002060009054906101000a900460ff16905092915050565b600033905090565b600081519050620001fd816200023c565b92915050565b6000602082840312156200021657600080fd5b60006200022684828501620001ec565b91505092915050565b600060ff82169050919050565b62000247816200022f565b81146200025357600080fd5b50565b6137a780620002666000396000f3fe608060405234801561001057600080fd5b50600436106101425760003560e01c80638c8330a9116100b8578063c020d3291161007c578063c020d3291461039d578063d547741f146103bb578063d89da85b146103d7578063e341eaa41461040c578063f1ef395b14610428578063f4eccb8f1461044457610142565b80638c8330a9146102e557806391d1485414610301578063958528a2146103315780639a8a059214610361578063a217fddf1461037f57610142565b806336568abe1161010a57806336568abe146101fd5780634241b09714610219578063568d58731461024d57806368c4ac261461026957806373950c9f1461029957806377860cdd146102c957610142565b806301ffc9a71461014757806307e2cea51461017757806309824a8014610195578063248a9ca3146101b15780632f2ff15d146101e1575b600080fd5b610161600480360381019061015c9190612636565b610474565b60405161016e9190612f21565b60405180910390f35b61017f6104ee565b60405161018c9190612f3c565b60405180910390f35b6101af60048036038101906101aa91906124c1565b610512565b005b6101cb60048036038101906101c691906125d1565b6106b1565b6040516101d89190612f3c565b60405180910390f35b6101fb60048036038101906101f691906125fa565b6106d0565b005b610217600480360381019061021291906125fa565b6106f9565b005b610233600480360381019061022e919061265f565b61077c565b60405161024495949392919061327a565b60405180910390f35b6102676004803603810190610262919061273b565b610813565b005b610283600480360381019061027e91906124c1565b6108fb565b6040516102909190612f21565b60405180910390f35b6102b360048036038101906102ae919061256e565b61091b565b6040516102c091906131fe565b60405180910390f35b6102e360048036038101906102de91906124c1565b610c48565b005b6102ff60048036038101906102fa91906124ea565b610d88565b005b61031b600480360381019061031691906125fa565b611164565b6040516103289190612f21565b60405180910390f35b61034b6004803603810190610346919061273b565b6111ce565b6040516103589190612f21565b60405180910390f35b6103696111ee565b60405161037691906132cd565b60405180910390f35b610387611201565b6040516103949190612f3c565b60405180910390f35b6103a5611208565b6040516103b291906131fe565b60405180910390f35b6103d560048036038101906103d091906125fa565b61120e565b005b6103f160048036038101906103ec919061265f565b611237565b60405161040396959493929190613219565b60405180910390f35b61042660048036038101906104219190612688565b6112ad565b005b610442600480360381019061043d919061273b565b61146b565b005b61045e6004803603810190610459919061265f565b611554565b60405161046b9190612eff565b60405180910390f35b60007f7965db0b000000000000000000000000000000000000000000000000000000007bffffffffffffffffffffffffffffffffffffffffffffffffffffffff1916827bffffffffffffffffffffffffffffffffffffffffffffffffffffffff191614806104e757506104e6826115d2565b5b9050919050565b7f68e79a7bf1e0bc45d0a330c573bc367f9cf464fd326078812f301165fbda4ef181565b6000801b6105278161052261163c565b611644565b6105468273ffffffffffffffffffffffffffffffffffffffff166116e1565b610585576040517f08c379a000000000000000000000000000000000000000000000000000000000815260040161057c9061317e565b60405180910390fd5b600460008373ffffffffffffffffffffffffffffffffffffffff1673ffffffffffffffffffffffffffffffffffffffff16815260200190815260200160002060009054906101000a900460ff1615610612576040517f08c379a00000000000000000000000000000000000000000000000000000000081526004016106099061313e565b60405180910390fd5b6001600460008473ffffffffffffffffffffffffffffffffffffffff1673ffffffffffffffffffffffffffffffffffffffff16815260200190815260200160002060006101000a81548160ff0219169083151502179055508173ffffffffffffffffffffffffffffffffffffffff167ff7fe8023cb2e36bde1d59a88ac5763a8c11be6d25e6819f71bb7e23e5bf0dc1660405160405180910390a25050565b6000806000838152602001908152602001600020600101549050919050565b6106d9826106b1565b6106ea816106e561163c565b611644565b6106f483836116f4565b505050565b61070161163c565b73ffffffffffffffffffffffffffffffffffffffff168173ffffffffffffffffffffffffffffffffffffffff161461076e576040517f08c379a0000000000000000000000000000000000000000000000000000000008152600401610765906131de565b60405180910390fd5b61077882826117d4565b5050565b60036020528060005260406000206000915090508060000160009054906101000a900467ffffffffffffffff16908060010154908060020160009054906101000a900460ff16908060020160019054906101000a900473ffffffffffffffffffffffffffffffffffffffff16908060030160009054906101000a900473ffffffffffffffffffffffffffffffffffffffff16905085565b6000801b6108288161082361163c565b611644565b600560008360ff1660ff16815260200190815260200160002060009054906101000a900460ff1661088e576040517f08c379a0000000000000000000000000000000000000000000000000000000008152600401610885906131be565b60405180910390fd5b6000600560008460ff1660ff16815260200190815260200160002060006101000a81548160ff0219169083151502179055507f9ec2302e7ee0398213255e47e2a84d3fe957e971b76286b0ee3e8136f1d5d690826040516108ef91906132cd565b60405180910390a15050565b60046020528060005260406000206000915054906101000a900460ff1681565b600061093c8573ffffffffffffffffffffffffffffffffffffffff166116e1565b61097b576040517f08c379a00000000000000000000000000000000000000000000000000000000081526004016109729061317e565b60405180910390fd5b600460008673ffffffffffffffffffffffffffffffffffffffff1673ffffffffffffffffffffffffffffffffffffffff16815260200190815260200160002060009054906101000a900460ff16610a07576040517f08c379a00000000000000000000000000000000000000000000000000000000081526004016109fe90612ffe565b60405180910390fd5b600560008460ff1660ff16815260200190815260200160002060009054906101000a900460ff16610a6d576040517f08c379a0000000000000000000000000000000000000000000000000000000008152600401610a649061309e565b60405180910390fd5b60008590508073ffffffffffffffffffffffffffffffffffffffff166379cc679033876040518363ffffffff1660e01b8152600401610aad929190612ed6565b600060405180830381600087803b158015610ac757600080fd5b505af1158015610adb573d6000803e3d6000fd5b5050505060004390506040518060c001604052808281526020018781526020018660ff1681526020018581526020018873ffffffffffffffffffffffffffffffffffffffff1681526020016000151581525060066000838152602001908152602001600020600082015181600001556020820151816001015560408201518160020160006101000a81548160ff021916908360ff1602179055506060820151816003015560808201518160040160006101000a81548173ffffffffffffffffffffffffffffffffffffffff021916908373ffffffffffffffffffffffffffffffffffffffff16021790555060a08201518160040160146101000a81548160ff021916908315150217905550905050833373ffffffffffffffffffffffffffffffffffffffff16827f2ef9ba901b3e93a98c11a1fa4c653c9ce4ab58239b95a42b6d6c7e3f5776bcc0888a604051610c339291906132e8565b60405180910390a48092505050949350505050565b6000801b610c5d81610c5861163c565b611644565b600460008373ffffffffffffffffffffffffffffffffffffffff1673ffffffffffffffffffffffffffffffffffffffff16815260200190815260200160002060009054906101000a900460ff16610ce9576040517f08c379a0000000000000000000000000000000000000000000000000000000008152600401610ce090612ffe565b60405180910390fd5b6000600460008473ffffffffffffffffffffffffffffffffffffffff1673ffffffffffffffffffffffffffffffffffffffff16815260200190815260200160002060006101000a81548160ff0219169083151502179055508173ffffffffffffffffffffffffffffffffffffffff167fca2a890939276223a9122217752c67608466faee388aff53f077d00a186a389b60405160405180910390a25050565b6000838051906020012090506000610d9f826118b5565b9050600080600090505b858590508160ff161015610ebc5736600087878460ff16818110610df6577f4e487b7100000000000000000000000000000000000000000000000000000000600052603260045260246000fd5b9050602002810190610e089190613311565b915091506000610e6583838080601f016020809104026020016040519081016040528093929190818152602001838380828437600081840152601f19601f82011690508083019250505050505050876118e590919063ffffffff16565b9050610e917f68e79a7bf1e0bc45d0a330c573bc367f9cf464fd326078812f301165fbda4ef182611164565b15610ea657600185610ea3919061347f565b94505b5050508080610eb49061362d565b915050610da9565b506001548160ff161015610f05576040517f08c379a0000000000000000000000000000000000000000000000000000000008152600401610efc9061311e565b60405180910390fd5b6000610f108761190c565b9050806060015173ffffffffffffffffffffffffffffffffffffffff168873ffffffffffffffffffffffffffffffffffffffff1614610f84576040517f08c379a0000000000000000000000000000000000000000000000000000000008152600401610f7b9061315e565b60405180910390fd5b600460008973ffffffffffffffffffffffffffffffffffffffff1673ffffffffffffffffffffffffffffffffffffffff16815260200190815260200160002060009054906101000a900460ff16611010576040517f08c379a00000000000000000000000000000000000000000000000000000000081526004016110079061319e565b60405180910390fd5b3373ffffffffffffffffffffffffffffffffffffffff16816080015173ffffffffffffffffffffffffffffffffffffffff1614611082576040517f08c379a00000000000000000000000000000000000000000000000000000000081526004016110799061305e565b60405180910390fd5b60008890508073ffffffffffffffffffffffffffffffffffffffff166340c10f193384602001516040518363ffffffff1660e01b81526004016110c6929190612ed6565b600060405180830381600087803b1580156110e057600080fd5b505af11580156110f4573d6000803e3d6000fd5b505050503373ffffffffffffffffffffffffffffffffffffffff16826000015167ffffffffffffffff167f4ec90e965519d92681267467f775ada5bd214aa92c0dc93d90a5e880ce9ed026846020015160405161115191906131fe565b60405180910390a3505050505050505050565b600080600084815260200190815260200160002060000160008373ffffffffffffffffffffffffffffffffffffffff1673ffffffffffffffffffffffffffffffffffffffff16815260200190815260200160002060009054906101000a900460ff16905092915050565b60056020528060005260406000206000915054906101000a900460ff1681565b600260009054906101000a900460ff1681565b6000801b81565b60015481565b611217826106b1565b6112288161122361163c565b611644565b61123283836117d4565b505050565b60066020528060005260406000206000915090508060000154908060010154908060020160009054906101000a900460ff16908060030154908060040160009054906101000a900473ffffffffffffffffffffffffffffffffffffffff16908060040160149054906101000a900460ff16905086565b7f68e79a7bf1e0bc45d0a330c573bc367f9cf464fd326078812f301165fbda4ef16112df816112da61163c565b611644565b600060066000858152602001908152602001600020600001541415611339576040517f08c379a00000000000000000000000000000000000000000000000000000000081526004016113309061303e565b60405180910390fd5b6007600084815260200190815260200160002060003373ffffffffffffffffffffffffffffffffffffffff1673ffffffffffffffffffffffffffffffffffffffff16815260200190815260200160002060009054906101000a900460ff16156113d7576040517f08c379a00000000000000000000000000000000000000000000000000000000081526004016113ce906130de565b60405180910390fd5b6113fc82600860008681526020019081526020016000206119a690919063ffffffff16565b5060016007600085815260200190815260200160002060003373ffffffffffffffffffffffffffffffffffffffff1673ffffffffffffffffffffffffffffffffffffffff16815260200190815260200160002060006101000a81548160ff021916908315150217905550505050565b6000801b6114808161147b61163c565b611644565b600560008360ff1660ff16815260200190815260200160002060009054906101000a900460ff16156114e7576040517f08c379a00000000000000000000000000000000000000000000000000000000081526004016114de906130be565b60405180910390fd5b6001600560008460ff1660ff16815260200190815260200160002060006101000a81548160ff0219169083151502179055507f107f463c3897d19773c8ecf6fb76d96513e951afb85b9bf2dc319dd79cc4c04b8260405161154891906132cd565b60405180910390a15050565b60606000600660008481526020019081526020016000206000015414156115b0576040517f08c379a00000000000000000000000000000000000000000000000000000000081526004016115a79061303e565b60405180910390fd5b6115cb600860008481526020019081526020016000206119bd565b9050919050565b60007f01ffc9a7000000000000000000000000000000000000000000000000000000007bffffffffffffffffffffffffffffffffffffffffffffffffffffffff1916827bffffffffffffffffffffffffffffffffffffffffffffffffffffffff1916149050919050565b600033905090565b61164e8282611164565b6116dd576116738173ffffffffffffffffffffffffffffffffffffffff1660146119d2565b6116818360001c60206119d2565b604051602001611692929190612e9c565b6040516020818303038152906040526040517f08c379a00000000000000000000000000000000000000000000000000000000081526004016116d49190612f9c565b60405180910390fd5b5050565b600080823b905060008111915050919050565b6116fe8282611164565b6117d057600160008084815260200190815260200160002060000160008373ffffffffffffffffffffffffffffffffffffffff1673ffffffffffffffffffffffffffffffffffffffff16815260200190815260200160002060006101000a81548160ff02191690831515021790555061177561163c565b73ffffffffffffffffffffffffffffffffffffffff168173ffffffffffffffffffffffffffffffffffffffff16837f2f8788117e7eff1d82e926ec794901d17c78024a50270940304540a733656f0d60405160405180910390a45b5050565b6117de8282611164565b156118b157600080600084815260200190815260200160002060000160008373ffffffffffffffffffffffffffffffffffffffff1673ffffffffffffffffffffffffffffffffffffffff16815260200190815260200160002060006101000a81548160ff02191690831515021790555061185661163c565b73ffffffffffffffffffffffffffffffffffffffff168173ffffffffffffffffffffffffffffffffffffffff16837ff6391f5c32d9c69d2a47ea670b442974b53935d1edc7fd64eb21e047a839171b60405160405180910390a45b5050565b6000816040516020016118c89190612e76565b604051602081830303815290604052805190602001209050919050565b60008060006118f48585611ccc565b9150915061190181611d4f565b819250505092915050565b6119146122ea565b60008060008060008680602001905181019061193091906126c4565b945094509450945094506040518060a001604052808667ffffffffffffffff1681526020018581526020018460ff1681526020018373ffffffffffffffffffffffffffffffffffffffff1681526020018273ffffffffffffffffffffffffffffffffffffffff1681525095505050505050919050565b60006119b583600001836120a0565b905092915050565b60606119cb82600001612110565b9050919050565b6060600060028360026119e591906134b6565b6119ef9190613429565b67ffffffffffffffff811115611a2e577f4e487b7100000000000000000000000000000000000000000000000000000000600052604160045260246000fd5b6040519080825280601f01601f191660200182016040528015611a605781602001600182028036833780820191505090505b5090507f300000000000000000000000000000000000000000000000000000000000000081600081518110611abe577f4e487b7100000000000000000000000000000000000000000000000000000000600052603260045260246000fd5b60200101907effffffffffffffffffffffffffffffffffffffffffffffffffffffffffffff1916908160001a9053507f780000000000000000000000000000000000000000000000000000000000000081600181518110611b48577f4e487b7100000000000000000000000000000000000000000000000000000000600052603260045260246000fd5b60200101907effffffffffffffffffffffffffffffffffffffffffffffffffffffffffffff1916908160001a90535060006001846002611b8891906134b6565b611b929190613429565b90505b6001811115611c7e577f3031323334353637383961626364656600000000000000000000000000000000600f861660108110611bfa577f4e487b7100000000000000000000000000000000000000000000000000000000600052603260045260246000fd5b1a60f81b828281518110611c37577f4e487b7100000000000000000000000000000000000000000000000000000000600052603260045260246000fd5b60200101907effffffffffffffffffffffffffffffffffffffffffffffffffffffffffffff1916908160001a905350600485901c945080611c7790613603565b9050611b95565b5060008414611cc2576040517f08c379a0000000000000000000000000000000000000000000000000000000008152600401611cb990612fde565b60405180910390fd5b8091505092915050565b600080604183511415611d0e5760008060006020860151925060408601519150606086015160001a9050611d028782858561216c565b94509450505050611d48565b604083511415611d3f576000806020850151915060408501519050611d34868383612279565b935093505050611d48565b60006002915091505b9250929050565b60006004811115611d89577f4e487b7100000000000000000000000000000000000000000000000000000000600052602160045260246000fd5b816004811115611dc2577f4e487b7100000000000000000000000000000000000000000000000000000000600052602160045260246000fd5b1415611dcd5761209d565b60016004811115611e07577f4e487b7100000000000000000000000000000000000000000000000000000000600052602160045260246000fd5b816004811115611e40577f4e487b7100000000000000000000000000000000000000000000000000000000600052602160045260246000fd5b1415611e81576040517f08c379a0000000000000000000000000000000000000000000000000000000008152600401611e7890612fbe565b60405180910390fd5b60026004811115611ebb577f4e487b7100000000000000000000000000000000000000000000000000000000600052602160045260246000fd5b816004811115611ef4577f4e487b7100000000000000000000000000000000000000000000000000000000600052602160045260246000fd5b1415611f35576040517f08c379a0000000000000000000000000000000000000000000000000000000008152600401611f2c9061301e565b60405180910390fd5b60036004811115611f6f577f4e487b7100000000000000000000000000000000000000000000000000000000600052602160045260246000fd5b816004811115611fa8577f4e487b7100000000000000000000000000000000000000000000000000000000600052602160045260246000fd5b1415611fe9576040517f08c379a0000000000000000000000000000000000000000000000000000000008152600401611fe09061307e565b60405180910390fd5b600480811115612022577f4e487b7100000000000000000000000000000000000000000000000000000000600052602160045260246000fd5b81600481111561205b577f4e487b7100000000000000000000000000000000000000000000000000000000600052602160045260246000fd5b141561209c576040517f08c379a0000000000000000000000000000000000000000000000000000000008152600401612093906130fe565b60405180910390fd5b5b50565b60006120ac83836122c7565b61210557826000018290806001815401808255809150506001900390600052602060002001600090919091909150558260000180549050836001016000848152602001908152602001600020819055506001905061210a565b600090505b92915050565b60608160000180548060200260200160405190810160405280929190818152602001828054801561216057602002820191906000526020600020905b81548152602001906001019080831161214c575b50505050509050919050565b6000807f7fffffffffffffffffffffffffffffff5d576e7357a4501ddfe92f46681b20a08360001c11156121a7576000600391509150612270565b601b8560ff16141580156121bf5750601c8560ff1614155b156121d1576000600491509150612270565b6000600187878787604051600081526020016040526040516121f69493929190612f57565b6020604051602081039080840390855afa158015612218573d6000803e3d6000fd5b505050602060405103519050600073ffffffffffffffffffffffffffffffffffffffff168173ffffffffffffffffffffffffffffffffffffffff16141561226757600060019250925050612270565b80600092509250505b94509492505050565b6000806000807f7fffffffffffffffffffffffffffffffffffffffffffffffffffffffffffffff85169150601b8560ff1c0190506122b98782888561216c565b935093505050935093915050565b600080836001016000848152602001908152602001600020541415905092915050565b6040518060a00160405280600067ffffffffffffffff16815260200160008152602001600060ff168152602001600073ffffffffffffffffffffffffffffffffffffffff168152602001600073ffffffffffffffffffffffffffffffffffffffff1681525090565b600061236561236084613399565b613368565b90508281526020810184848401111561237d57600080fd5b6123888482856135c1565b509392505050565b60008135905061239f816136d0565b92915050565b6000815190506123b4816136e7565b92915050565b60008083601f8401126123cc57600080fd5b8235905067ffffffffffffffff8111156123e557600080fd5b6020830191508360208202830111156123fd57600080fd5b9250929050565b600081359050612413816136fe565b92915050565b60008135905061242881613715565b92915050565b600082601f83011261243f57600080fd5b813561244f848260208601612352565b91505092915050565b6000813590506124678161372c565b92915050565b60008151905061247c8161372c565b92915050565b60008151905061249181613743565b92915050565b6000813590506124a68161375a565b92915050565b6000815190506124bb8161375a565b92915050565b6000602082840312156124d357600080fd5b60006124e184828501612390565b91505092915050565b6000806000806060858703121561250057600080fd5b600061250e87828801612390565b945050602085013567ffffffffffffffff81111561252b57600080fd5b6125378782880161242e565b935050604085013567ffffffffffffffff81111561255457600080fd5b612560878288016123ba565b925092505092959194509250565b6000806000806080858703121561258457600080fd5b600061259287828801612390565b94505060206125a387828801612458565b93505060406125b487828801612497565b92505060606125c587828801612404565b91505092959194509250565b6000602082840312156125e357600080fd5b60006125f184828501612404565b91505092915050565b6000806040838503121561260d57600080fd5b600061261b85828601612404565b925050602061262c85828601612390565b9150509250929050565b60006020828403121561264857600080fd5b600061265684828501612419565b91505092915050565b60006020828403121561267157600080fd5b600061267f84828501612458565b91505092915050565b6000806040838503121561269b57600080fd5b60006126a985828601612458565b92505060206126ba85828601612404565b9150509250929050565b600080600080600060a086880312156126dc57600080fd5b60006126ea88828901612482565b95505060206126fb8882890161246d565b945050604061270c888289016124ac565b935050606061271d888289016123a5565b925050608061272e888289016123a5565b9150509295509295909350565b60006020828403121561274d57600080fd5b600061275b84828501612497565b91505092915050565b600061277083836127f8565b60208301905092915050565b61278581613510565b82525050565b6000612796826133d9565b6127a081856133fc565b93506127ab836133c9565b8060005b838110156127dc5781516127c38882612764565b97506127ce836133ef565b9250506001810190506127af565b5085935050505092915050565b6127f281613534565b82525050565b61280181613540565b82525050565b61281081613540565b82525050565b61282761282282613540565b613657565b82525050565b6000612838826133e4565b612842818561340d565b93506128528185602086016135d0565b61285b816136bf565b840191505092915050565b6000612871826133e4565b61287b818561341e565b935061288b8185602086016135d0565b80840191505092915050565b60006128a460188361340d565b91507f45434453413a20696e76616c6964207369676e617475726500000000000000006000830152602082019050919050565b60006128e460208361340d565b91507f537472696e67733a20686578206c656e67746820696e73756666696369656e746000830152602082019050919050565b600061292460168361340d565b91507f546f6b656e206973206e6f7420737570706f72746564000000000000000000006000830152602082019050919050565b6000612964601f8361340d565b91507f45434453413a20696e76616c6964207369676e6174757265206c656e677468006000830152602082019050919050565b60006129a4601c8361341e565b91507f19457468657265756d205369676e6564204d6573736167653a0a3332000000006000830152601c82019050919050565b60006129e460168361340d565b91507f53656e6420496420646f6573206e6f74206578697374000000000000000000006000830152602082019050919050565b6000612a2460168361340d565b91507f4e6f7420656c696769626c6520666f7220636c61696d000000000000000000006000830152602082019050919050565b6000612a6460228361340d565b91507f45434453413a20696e76616c6964207369676e6174757265202773272076616c60008301527f75650000000000000000000000000000000000000000000000000000000000006020830152604082019050919050565b6000612aca60168361340d565b91507f4e6f7420537570706f7274656420436861696e204944000000000000000000006000830152602082019050919050565b6000612b0a60198361340d565b91507f436861696e496420616c726561647920737570706f72746564000000000000006000830152602082019050919050565b6000612b4a60158361340d565b91507f4f7261636c6520616c7265616479207369676e656400000000000000000000006000830152602082019050919050565b6000612b8a60228361340d565b91507f45434453413a20696e76616c6964207369676e6174757265202776272076616c60008301527f75650000000000000000000000000000000000000000000000000000000000006020830152604082019050919050565b6000612bf0601b8361340d565b91507f4e6f7420656e6f7567682076616c6964207369676e61747572657300000000006000830152602082019050919050565b6000612c30601a8361340d565b91507f546f6b656e20697320616c726561647920737570706f727465640000000000006000830152602082019050919050565b6000612c7060158361340d565b91507f496e76616c696420746f6b656e206164647265737300000000000000000000006000830152602082019050919050565b6000612cb060198361340d565b91507f41646472657373206973206e6f74206120636f6e7472616374000000000000006000830152602082019050919050565b6000612cf060178361341e565b91507f416363657373436f6e74726f6c3a206163636f756e74200000000000000000006000830152601782019050919050565b6000612d3060198361340d565b91507f556e737570706f7274656420746f6b656e2061646472657373000000000000006000830152602082019050919050565b6000612d7060158361340d565b91507f436861696e4964206e6f7420737570706f7274656400000000000000000000006000830152602082019050919050565b6000612db060118361341e565b91507f206973206d697373696e6720726f6c65200000000000000000000000000000006000830152601182019050919050565b6000612df0602f8361340d565b91507f416363657373436f6e74726f6c3a2063616e206f6e6c792072656e6f756e636560008301527f20726f6c657320666f722073656c6600000000000000000000000000000000006020830152604082019050919050565b612e5281613596565b82525050565b612e61816135a0565b82525050565b612e70816135b4565b82525050565b6000612e8182612997565b9150612e8d8284612816565b60208201915081905092915050565b6000612ea782612ce3565b9150612eb38285612866565b9150612ebe82612da3565b9150612eca8284612866565b91508190509392505050565b6000604082019050612eeb600083018561277c565b612ef86020830184612e49565b9392505050565b60006020820190508181036000830152612f19818461278b565b905092915050565b6000602082019050612f3660008301846127e9565b92915050565b6000602082019050612f516000830184612807565b92915050565b6000608082019050612f6c6000830187612807565b612f796020830186612e67565b612f866040830185612807565b612f936060830184612807565b95945050505050565b60006020820190508181036000830152612fb6818461282d565b905092915050565b60006020820190508181036000830152612fd781612897565b9050919050565b60006020820190508181036000830152612ff7816128d7565b9050919050565b6000602082019050818103600083015261301781612917565b9050919050565b6000602082019050818103600083015261303781612957565b9050919050565b60006020820190508181036000830152613057816129d7565b9050919050565b6000602082019050818103600083015261307781612a17565b9050919050565b6000602082019050818103600083015261309781612a57565b9050919050565b600060208201905081810360008301526130b781612abd565b9050919050565b600060208201905081810360008301526130d781612afd565b9050919050565b600060208201905081810360008301526130f781612b3d565b9050919050565b6000602082019050818103600083015261311781612b7d565b9050919050565b6000602082019050818103600083015261313781612be3565b9050919050565b6000602082019050818103600083015261315781612c23565b9050919050565b6000602082019050818103600083015261317781612c63565b9050919050565b6000602082019050818103600083015261319781612ca3565b9050919050565b600060208201905081810360008301526131b781612d23565b9050919050565b600060208201905081810360008301526131d781612d63565b9050919050565b600060208201905081810360008301526131f781612de3565b9050919050565b60006020820190506132136000830184612e49565b92915050565b600060c08201905061322e6000830189612e49565b61323b6020830188612e49565b6132486040830187612e67565b6132556060830186612807565b613262608083018561277c565b61326f60a08301846127e9565b979650505050505050565b600060a08201905061328f6000830188612e58565b61329c6020830187612e49565b6132a96040830186612e67565b6132b6606083018561277c565b6132c3608083018461277c565b9695505050505050565b60006020820190506132e26000830184612e67565b92915050565b60006040820190506132fd6000830185612e67565b61330a6020830184612e49565b9392505050565b6000808335600160200384360303811261332a57600080fd5b80840192508235915067ffffffffffffffff82111561334857600080fd5b60208301925060018202360383131561336057600080fd5b509250929050565b6000604051905081810181811067ffffffffffffffff8211171561338f5761338e613690565b5b8060405250919050565b600067ffffffffffffffff8211156133b4576133b3613690565b5b601f19601f8301169050602081019050919050565b6000819050602082019050919050565b600081519050919050565b600081519050919050565b6000602082019050919050565b600082825260208201905092915050565b600082825260208201905092915050565b600081905092915050565b600061343482613596565b915061343f83613596565b9250827fffffffffffffffffffffffffffffffffffffffffffffffffffffffffffffffff0382111561347457613473613661565b5b828201905092915050565b600061348a826135b4565b9150613495836135b4565b92508260ff038211156134ab576134aa613661565b5b828201905092915050565b60006134c182613596565b91506134cc83613596565b9250817fffffffffffffffffffffffffffffffffffffffffffffffffffffffffffffffff048311821515161561350557613504613661565b5b828202905092915050565b600061351b82613576565b9050919050565b600061352d82613576565b9050919050565b60008115159050919050565b6000819050919050565b60007fffffffff0000000000000000000000000000000000000000000000000000000082169050919050565b600073ffffffffffffffffffffffffffffffffffffffff82169050919050565b6000819050919050565b600067ffffffffffffffff82169050919050565b600060ff82169050919050565b82818337600083830152505050565b60005b838110156135ee5780820151818401526020810190506135d3565b838111156135fd576000848401525b50505050565b600061360e82613596565b9150600082141561362257613621613661565b5b600182039050919050565b6000613638826135b4565b915060ff82141561364c5761364b613661565b5b600182019050919050565b6000819050919050565b7f4e487b7100000000000000000000000000000000000000000000000000000000600052601160045260246000fd5b7f4e487b7100000000000000000000000000000000000000000000000000000000600052604160045260246000fd5b6000601f19601f8301169050919050565b6136d981613510565b81146136e457600080fd5b50565b6136f081613522565b81146136fb57600080fd5b50565b61370781613540565b811461371257600080fd5b50565b61371e8161354a565b811461372957600080fd5b50565b61373581613596565b811461374057600080fd5b50565b61374c816135a0565b811461375757600080fd5b50565b613763816135b4565b811461376e57600080fd5b5056fea2646970667358221220ad4cb298367e51c22e51a101ced0b742045904c159fb25363a34ed94e3e1f00b64736f6c63430008000033",
  "immutableReferences": {},
  "source": "// contracts/BluToken.sol\n// SPDX-License-Identifier: MIT\npragma solidity ^0.8.0;\n\nimport \"@openzeppelin/contracts/access/AccessControl.sol\";\nimport \"@openzeppelin/contracts/utils/cryptography/ECDSA.sol\";\nimport \"@openzeppelin/contracts/token/ERC20/extensions/ERC20Burnable.sol\";\nimport \"@openzeppelin/contracts/utils/structs/EnumerableSet.sol\";\nimport \"@openzeppelin/contracts/utils/Address.sol\";\n\nabstract contract BridgeERC20 is ERC20Burnable {\n    function mint(address account, uint256 amount) public virtual;\n}\n\nstruct TransferData {\n    uint64 id;\n    uint256 amount;\n    uint8 chainId;\n    address tokenAddress;\n    address toAddress;\n}\n\nstruct SendTransferData {\n    uint256 id;\n    uint256 amount;\n    uint8 chainId;\n    bytes32 toAddress;\n    address tokenContractAddress;\n    bool claimed;\n}\n\ncontract TokenBridge is AccessControl {\n    using ECDSA for bytes32;\n    using Address for address;\n    using EnumerableSet for EnumerableSet.Bytes32Set;\n\n    event RegisterToken(address indexed tokenAddress);\n    event UnregisterToken(address indexed tokenAddress);\n    event RegisterChainId(uint8 recepientChainId);\n    event UnregisterChainId(uint8 recepientChainId);\n    event Claimed(\n        uint256 indexed id,\n        address indexed toAddress,\n        uint256 amount\n    );\n\n    event Sent(\n        uint256 indexed id,\n        address indexed fromAddress,\n        bytes32 indexed toAddress,\n        uint8 toChainId,\n        uint256 amount\n    );\n\n    bytes32 public constant ORACLE_ROLE = keccak256(\"ORACLE_ROLE\");\n    uint256 public minimumOracleConfirmations = 3;\n    uint8 public chainId;\n\n    mapping(uint256 => TransferData) public tansferMap;\n    mapping(address => bool) public supportedTokens;\n    mapping(uint8 => bool) public supportedChainIds;\n\n    mapping(uint256 => SendTransferData) public sendTransferMap;\n    mapping(uint256 => mapping(address => bool)) signatureLookup;\n    mapping(uint256 => EnumerableSet.Bytes32Set) sendTransferSignatures;\n\n    constructor(uint8 _chainId) {\n        _setupRole(DEFAULT_ADMIN_ROLE, msg.sender);\n        chainId = _chainId;\n    }\n\n    function registerToken(address tokenContractAddress)\n        public\n        onlyRole(DEFAULT_ADMIN_ROLE)\n    {\n        require(tokenContractAddress.isContract(), \"Address is not a contract\");\n        require(\n            !supportedTokens[tokenContractAddress],\n            \"Token is already supported\"\n        );\n        supportedTokens[tokenContractAddress] = true;\n        emit RegisterToken(tokenContractAddress);\n    }\n\n    function unregisterToken(address tokenContractAddress)\n        public\n        onlyRole(DEFAULT_ADMIN_ROLE)\n    {\n        require(\n            supportedTokens[tokenContractAddress],\n            \"Token is not supported\"\n        );\n        supportedTokens[tokenContractAddress] = false;\n        emit UnregisterToken(tokenContractAddress);\n    }\n\n    function registerChainId(uint8 recepientChainId)\n        public\n        onlyRole(DEFAULT_ADMIN_ROLE)\n    {\n        require(\n            !supportedChainIds[recepientChainId],\n            \"ChainId already supported\"\n        );\n        supportedChainIds[recepientChainId] = true;\n        emit RegisterChainId(recepientChainId);\n    }\n\n    function ungisterChainId(uint8 recepientChainId)\n        public\n        onlyRole(DEFAULT_ADMIN_ROLE)\n    {\n        require(supportedChainIds[recepientChainId], \"ChainId not supported\");\n        supportedChainIds[recepientChainId] = false;\n        emit UnregisterChainId(recepientChainId);\n    }\n\n    function _extractTransferData(bytes memory data)\n        internal\n        pure\n        returns (TransferData memory transferData)\n    {\n        (\n            uint64 id,\n            uint256 amount,\n            uint8 toChainId,\n            address tokenAddress,\n            address toAddress\n        ) = abi.decode(data, (uint64, uint256, uint8, address, address));\n\n        transferData = TransferData({\n            id: id,\n            amount: amount,\n            chainId: toChainId,\n            tokenAddress: tokenAddress,\n            toAddress: toAddress\n        });\n    }\n\n    function send(\n        address tokenContractAddress,\n        uint256 amount,\n        uint8 toChainId,\n        bytes32 toAddress\n    ) public returns (uint256) {\n        require(tokenContractAddress.isContract(), \"Address is not a contract\");\n        require(\n            supportedTokens[tokenContractAddress],\n            \"Token is not supported\"\n        );\n        require(supportedChainIds[toChainId], \"Not Supported Chain ID\");\n\n        BridgeERC20 erc20 = BridgeERC20(tokenContractAddress);\n        erc20.burnFrom(msg.sender, amount);\n\n        uint256 id = block.number;\n        sendTransferMap[id] = SendTransferData({\n            id: id,\n            amount: amount,\n            chainId: toChainId,\n            toAddress: toAddress,\n            tokenContractAddress: tokenContractAddress,\n            claimed: false\n        });\n\n        emit Sent(id, msg.sender, toAddress, toChainId, amount);\n        return id;\n    }\n\n    function getSignatures(uint256 sendId)\n        public\n        view\n        returns (bytes32[] memory)\n    {\n        require(sendTransferMap[sendId].id != 0, \"Send Id does not exist\");\n        return sendTransferSignatures[sendId].values();\n    }\n\n    function sign(uint256 sendId, bytes32 signature)\n        public\n        onlyRole(ORACLE_ROLE)\n    {\n        require(sendTransferMap[sendId].id != 0, \"Send Id does not exist\");\n        require(!signatureLookup[sendId][msg.sender], \"Oracle already signed\");\n\n        sendTransferSignatures[sendId].add(signature);\n        signatureLookup[sendId][msg.sender] = true;\n    }\n\n    function claim(\n        address tokenAddress,\n        bytes memory data,\n        bytes[] calldata signatures\n    ) public {\n        bytes32 message = keccak256(data);\n        bytes32 hashed = message.toEthSignedMessageHash();\n        uint8 validSignatures;\n        for (uint8 i = 0; i < signatures.length; i++) {\n            bytes calldata signature = signatures[i];\n            address signer = hashed.recover(signature);\n            if (hasRole(ORACLE_ROLE, signer)) {\n                validSignatures += 1;\n            }\n        }\n        require(\n            validSignatures >= minimumOracleConfirmations,\n            \"Not enough valid signatures\"\n        );\n\n        TransferData memory transferData = _extractTransferData(data);\n\n        require(\n            tokenAddress == transferData.tokenAddress,\n            \"Invalid token address\"\n        );\n\n        require(supportedTokens[tokenAddress], \"Unsupported token address\");\n\n        require(transferData.toAddress == msg.sender, \"Not eligible for claim\");\n\n        BridgeERC20 erc20 = BridgeERC20(tokenAddress);\n        erc20.mint(msg.sender, transferData.amount);\n\n        emit Claimed(transferData.id, msg.sender, transferData.amount);\n    }\n}\n",
  "sourcePath": "/Users/ted/projects/BluBridge/smart_contracts/polygon/contracts/BluBridge.sol",
  "compiler": {
    "name": "solc",
    "version": "0.8.0+commit.c7dfd78e.Emscripten.clang"
  },
  "schemaVersion": "3.4.3",
  "updatedAt": "2021-11-15T10:13:14.691Z",
  "networkType": "ethereum",
  "devdoc": {
    "kind": "dev",
    "methods": {
      "getRoleAdmin(bytes32)": {
        "details": "Returns the admin role that controls `role`. See {grantRole} and {revokeRole}. To change a role's admin, use {_setRoleAdmin}."
      },
      "grantRole(bytes32,address)": {
        "details": "Grants `role` to `account`. If `account` had not been already granted `role`, emits a {RoleGranted} event. Requirements: - the caller must have ``role``'s admin role."
      },
      "hasRole(bytes32,address)": {
        "details": "Returns `true` if `account` has been granted `role`."
      },
      "renounceRole(bytes32,address)": {
        "details": "Revokes `role` from the calling account. Roles are often managed via {grantRole} and {revokeRole}: this function's purpose is to provide a mechanism for accounts to lose their privileges if they are compromised (such as when a trusted device is misplaced). If the calling account had been granted `role`, emits a {RoleRevoked} event. Requirements: - the caller must be `account`."
      },
      "revokeRole(bytes32,address)": {
        "details": "Revokes `role` from `account`. If `account` had been granted `role`, emits a {RoleRevoked} event. Requirements: - the caller must have ``role``'s admin role."
      },
      "supportsInterface(bytes4)": {
        "details": "See {IERC165-supportsInterface}."
      }
    },
    "version": 1
  },
  "userdoc": {
    "kind": "user",
    "methods": {},
    "version": 1
  }
}