{
  "contractName": "TokenBridge",
  "abi": [
    {
      "inputs": [
        {
          "internalType": "uint8",
          "name": "_chainId",
          "type": "uint8"
        }
      ],
      "stateMutability": "nonpayable",
      "type": "constructor"
    },
    {
      "anonymous": false,
      "inputs": [
        {
          "indexed": true,
          "internalType": "uint256",
          "name": "id",
          "type": "uint256"
        },
        {
          "indexed": true,
          "internalType": "address",
          "name": "toAddress",
          "type": "address"
        },
        {
          "indexed": true,
          "internalType": "address",
          "name": "tokenAddress",
          "type": "address"
        },
        {
          "indexed": false,
          "internalType": "uint256",
          "name": "amount",
          "type": "uint256"
        }
      ],
      "name": "Claimed",
      "type": "event"
    },
    {
      "anonymous": false,
      "inputs": [
        {
          "indexed": false,
          "internalType": "uint8",
          "name": "recepientChainId",
          "type": "uint8"
        }
      ],
      "name": "RegisterChainId",
      "type": "event"
    },
    {
      "anonymous": false,
      "inputs": [
        {
          "indexed": true,
          "internalType": "address",
          "name": "tokenAddress",
          "type": "address"
        }
      ],
      "name": "RegisterToken",
      "type": "event"
    },
    {
      "anonymous": false,
      "inputs": [
        {
          "indexed": true,
          "internalType": "bytes32",
          "name": "role",
          "type": "bytes32"
        },
        {
          "indexed": true,
          "internalType": "bytes32",
          "name": "previousAdminRole",
          "type": "bytes32"
        },
        {
          "indexed": true,
          "internalType": "bytes32",
          "name": "newAdminRole",
          "type": "bytes32"
        }
      ],
      "name": "RoleAdminChanged",
      "type": "event"
    },
    {
      "anonymous": false,
      "inputs": [
        {
          "indexed": true,
          "internalType": "bytes32",
          "name": "role",
          "type": "bytes32"
        },
        {
          "indexed": true,
          "internalType": "address",
          "name": "account",
          "type": "address"
        },
        {
          "indexed": true,
          "internalType": "address",
          "name": "sender",
          "type": "address"
        }
      ],
      "name": "RoleGranted",
      "type": "event"
    },
    {
      "anonymous": false,
      "inputs": [
        {
          "indexed": true,
          "internalType": "bytes32",
          "name": "role",
          "type": "bytes32"
        },
        {
          "indexed": true,
          "internalType": "address",
          "name": "account",
          "type": "address"
        },
        {
          "indexed": true,
          "internalType": "address",
          "name": "sender",
          "type": "address"
        }
      ],
      "name": "RoleRevoked",
      "type": "event"
    },
    {
      "anonymous": false,
      "inputs": [
        {
          "indexed": true,
          "internalType": "uint256",
          "name": "id",
          "type": "uint256"
        },
        {
          "indexed": true,
          "internalType": "address",
          "name": "tokenAddress",
          "type": "address"
        },
        {
          "indexed": true,
          "internalType": "bytes32",
          "name": "toAddress",
          "type": "bytes32"
        },
        {
          "indexed": false,
          "internalType": "uint8",
          "name": "toChainId",
          "type": "uint8"
        },
        {
          "indexed": false,
          "internalType": "uint256",
          "name": "amount",
          "type": "uint256"
        },
        {
          "indexed": false,
          "internalType": "address",
          "name": "fromAddress",
          "type": "address"
        }
      ],
      "name": "Sent",
      "type": "event"
    },
    {
      "anonymous": false,
      "inputs": [
        {
          "indexed": false,
          "internalType": "uint8",
          "name": "recepientChainId",
          "type": "uint8"
        }
      ],
      "name": "UnregisterChainId",
      "type": "event"
    },
    {
      "anonymous": false,
      "inputs": [
        {
          "indexed": true,
          "internalType": "address",
          "name": "tokenAddress",
          "type": "address"
        }
      ],
      "name": "UnregisterToken",
      "type": "event"
    },
    {
      "inputs": [],
      "name": "DEFAULT_ADMIN_ROLE",
      "outputs": [
        {
          "internalType": "bytes32",
          "name": "",
          "type": "bytes32"
        }
      ],
      "stateMutability": "view",
      "type": "function",
      "constant": true
    },
    {
      "inputs": [],
      "name": "ORACLE_ROLE",
      "outputs": [
        {
          "internalType": "bytes32",
          "name": "",
          "type": "bytes32"
        }
      ],
      "stateMutability": "view",
      "type": "function",
      "constant": true
    },
    {
      "inputs": [],
      "name": "chainId",
      "outputs": [
        {
          "internalType": "uint8",
          "name": "",
          "type": "uint8"
        }
      ],
      "stateMutability": "view",
      "type": "function",
      "constant": true
    },
    {
      "inputs": [
        {
          "internalType": "bytes32",
          "name": "role",
          "type": "bytes32"
        }
      ],
      "name": "getRoleAdmin",
      "outputs": [
        {
          "internalType": "bytes32",
          "name": "",
          "type": "bytes32"
        }
      ],
      "stateMutability": "view",
      "type": "function",
      "constant": true
    },
    {
      "inputs": [
        {
          "internalType": "bytes32",
          "name": "role",
          "type": "bytes32"
        },
        {
          "internalType": "address",
          "name": "account",
          "type": "address"
        }
      ],
      "name": "grantRole",
      "outputs": [],
      "stateMutability": "nonpayable",
      "type": "function"
    },
    {
      "inputs": [
        {
          "internalType": "bytes32",
          "name": "role",
          "type": "bytes32"
        },
        {
          "internalType": "address",
          "name": "account",
          "type": "address"
        }
      ],
      "name": "hasRole",
      "outputs": [
        {
          "internalType": "bool",
          "name": "",
          "type": "bool"
        }
      ],
      "stateMutability": "view",
      "type": "function",
      "constant": true
    },
    {
      "inputs": [],
      "name": "minimumOracleConfirmations",
      "outputs": [
        {
          "internalType": "uint256",
          "name": "",
          "type": "uint256"
        }
      ],
      "stateMutability": "view",
      "type": "function",
      "constant": true
    },
    {
      "inputs": [
        {
          "internalType": "bytes32",
          "name": "role",
          "type": "bytes32"
        },
        {
          "internalType": "address",
          "name": "account",
          "type": "address"
        }
      ],
      "name": "renounceRole",
      "outputs": [],
      "stateMutability": "nonpayable",
      "type": "function"
    },
    {
      "inputs": [
        {
          "internalType": "bytes32",
          "name": "role",
          "type": "bytes32"
        },
        {
          "internalType": "address",
          "name": "account",
          "type": "address"
        }
      ],
      "name": "revokeRole",
      "outputs": [],
      "stateMutability": "nonpayable",
      "type": "function"
    },
    {
      "inputs": [
        {
          "internalType": "uint256",
          "name": "",
          "type": "uint256"
        }
      ],
      "name": "sendTransferMap",
      "outputs": [
        {
          "internalType": "uint256",
          "name": "id",
          "type": "uint256"
        },
        {
          "internalType": "uint256",
          "name": "amount",
          "type": "uint256"
        },
        {
          "internalType": "uint8",
          "name": "chainId",
          "type": "uint8"
        },
        {
          "internalType": "bytes32",
          "name": "toAddress",
          "type": "bytes32"
        },
        {
          "internalType": "address",
          "name": "tokenContractAddress",
          "type": "address"
        },
        {
          "internalType": "bool",
          "name": "claimed",
          "type": "bool"
        }
      ],
      "stateMutability": "view",
      "type": "function",
      "constant": true
    },
    {
      "inputs": [
        {
          "internalType": "uint8",
          "name": "",
          "type": "uint8"
        }
      ],
      "name": "supportedChainIds",
      "outputs": [
        {
          "internalType": "bool",
          "name": "",
          "type": "bool"
        }
      ],
      "stateMutability": "view",
      "type": "function",
      "constant": true
    },
    {
      "inputs": [
        {
          "internalType": "address",
          "name": "",
          "type": "address"
        }
      ],
      "name": "supportedTokens",
      "outputs": [
        {
          "internalType": "bool",
          "name": "",
          "type": "bool"
        }
      ],
      "stateMutability": "view",
      "type": "function",
      "constant": true
    },
    {
      "inputs": [
        {
          "internalType": "bytes4",
          "name": "interfaceId",
          "type": "bytes4"
        }
      ],
      "name": "supportsInterface",
      "outputs": [
        {
          "internalType": "bool",
          "name": "",
          "type": "bool"
        }
      ],
      "stateMutability": "view",
      "type": "function",
      "constant": true
    },
    {
      "inputs": [
        {
          "internalType": "uint256",
          "name": "",
          "type": "uint256"
        }
      ],
      "name": "tansferMap",
      "outputs": [
        {
          "internalType": "uint64",
          "name": "id",
          "type": "uint64"
        },
        {
          "internalType": "uint256",
          "name": "amount",
          "type": "uint256"
        },
        {
          "internalType": "uint8",
          "name": "chainId",
          "type": "uint8"
        },
        {
          "internalType": "address",
          "name": "tokenAddress",
          "type": "address"
        },
        {
          "internalType": "address",
          "name": "toAddress",
          "type": "address"
        }
      ],
      "stateMutability": "view",
      "type": "function",
      "constant": true
    },
    {
      "inputs": [
        {
          "internalType": "address",
          "name": "tokenContractAddress",
          "type": "address"
        }
      ],
      "name": "registerToken",
      "outputs": [],
      "stateMutability": "nonpayable",
      "type": "function"
    },
    {
      "inputs": [
        {
          "internalType": "address",
          "name": "tokenContractAddress",
          "type": "address"
        }
      ],
      "name": "unregisterToken",
      "outputs": [],
      "stateMutability": "nonpayable",
      "type": "function"
    },
    {
      "inputs": [
        {
          "internalType": "uint8",
          "name": "recepientChainId",
          "type": "uint8"
        }
      ],
      "name": "registerChainId",
      "outputs": [],
      "stateMutability": "nonpayable",
      "type": "function"
    },
    {
      "inputs": [
        {
          "internalType": "uint8",
          "name": "recepientChainId",
          "type": "uint8"
        }
      ],
      "name": "ungisterChainId",
      "outputs": [],
      "stateMutability": "nonpayable",
      "type": "function"
    },
    {
      "inputs": [
        {
          "internalType": "address",
          "name": "tokenContractAddress",
          "type": "address"
        },
        {
          "internalType": "uint256",
          "name": "amount",
          "type": "uint256"
        },
        {
          "internalType": "uint8",
          "name": "toChainId",
          "type": "uint8"
        },
        {
          "internalType": "bytes32",
          "name": "toAddress",
          "type": "bytes32"
        }
      ],
      "name": "send",
      "outputs": [
        {
          "internalType": "uint256",
          "name": "",
          "type": "uint256"
        }
      ],
      "stateMutability": "nonpayable",
      "type": "function"
    },
    {
      "inputs": [
        {
          "internalType": "uint256",
          "name": "sendId",
          "type": "uint256"
        }
      ],
      "name": "getSignatures",
      "outputs": [
        {
          "internalType": "bytes32[]",
          "name": "",
          "type": "bytes32[]"
        }
      ],
      "stateMutability": "view",
      "type": "function",
      "constant": true
    },
    {
      "inputs": [
        {
          "internalType": "uint256",
          "name": "sendId",
          "type": "uint256"
        },
        {
          "internalType": "bytes32",
          "name": "signature",
          "type": "bytes32"
        }
      ],
      "name": "sign",
      "outputs": [],
      "stateMutability": "nonpayable",
      "type": "function"
    },
    {
      "inputs": [
        {
          "internalType": "address",
          "name": "tokenAddress",
          "type": "address"
        },
        {
          "internalType": "bytes",
          "name": "data",
          "type": "bytes"
        },
        {
          "internalType": "bytes[]",
          "name": "signatures",
          "type": "bytes[]"
        }
      ],
      "name": "claim",
      "outputs": [],
      "stateMutability": "nonpayable",
      "type": "function"
    }
  ],
  "bytecode": "0x608060405260036001553480156200001657600080fd5b5060405162003a3438038062003a3483398181016040528101906200003c919062000203565b620000516000801b336200007360201b60201c565b80600260006101000a81548160ff021916908360ff1602179055505062000256565b6200008582826200008960201b60201c565b5050565b6200009b82826200017a60201b60201c565b6200017657600160008084815260200190815260200160002060000160008373ffffffffffffffffffffffffffffffffffffffff1673ffffffffffffffffffffffffffffffffffffffff16815260200190815260200160002060006101000a81548160ff0219169083151502179055506200011b620001e460201b60201c565b73ffffffffffffffffffffffffffffffffffffffff168173ffffffffffffffffffffffffffffffffffffffff16837f2f8788117e7eff1d82e926ec794901d17c78024a50270940304540a733656f0d60405160405180910390a45b5050565b600080600084815260200190815260200160002060000160008373ffffffffffffffffffffffffffffffffffffffff1673ffffffffffffffffffffffffffffffffffffffff16815260200190815260200160002060009054906101000a900460ff16905092915050565b600033905090565b600081519050620001fd816200023c565b92915050565b6000602082840312156200021657600080fd5b60006200022684828501620001ec565b91505092915050565b600060ff82169050919050565b62000247816200022f565b81146200025357600080fd5b50565b6137ce80620002666000396000f3fe608060405234801561001057600080fd5b50600436106101425760003560e01c80638c8330a9116100b8578063c020d3291161007c578063c020d3291461039d578063d547741f146103bb578063d89da85b146103d7578063e341eaa41461040c578063f1ef395b14610428578063f4eccb8f1461044457610142565b80638c8330a9146102e557806391d1485414610301578063958528a2146103315780639a8a059214610361578063a217fddf1461037f57610142565b806336568abe1161010a57806336568abe146101fd5780634241b09714610219578063568d58731461024d57806368c4ac261461026957806373950c9f1461029957806377860cdd146102c957610142565b806301ffc9a71461014757806307e2cea51461017757806309824a8014610195578063248a9ca3146101b15780632f2ff15d146101e1575b600080fd5b610161600480360381019061015c919061264f565b610474565b60405161016e9190612f3a565b60405180910390f35b61017f6104ee565b60405161018c9190612f55565b60405180910390f35b6101af60048036038101906101aa91906124da565b610512565b005b6101cb60048036038101906101c691906125ea565b6106b1565b6040516101d89190612f55565b60405180910390f35b6101fb60048036038101906101f69190612613565b6106d0565b005b61021760048036038101906102129190612613565b6106f9565b005b610233600480360381019061022e9190612678565b61077c565b604051610244959493929190613293565b60405180910390f35b61026760048036038101906102629190612754565b610813565b005b610283600480360381019061027e91906124da565b6108fb565b6040516102909190612f3a565b60405180910390f35b6102b360048036038101906102ae9190612587565b61091b565b6040516102c09190613217565b60405180910390f35b6102e360048036038101906102de91906124da565b610c4a565b005b6102ff60048036038101906102fa9190612503565b610d8a565b005b61031b60048036038101906103169190612613565b61117d565b6040516103289190612f3a565b60405180910390f35b61034b60048036038101906103469190612754565b6111e7565b6040516103589190612f3a565b60405180910390f35b610369611207565b60405161037691906132e6565b60405180910390f35b61038761121a565b6040516103949190612f55565b60405180910390f35b6103a5611221565b6040516103b29190613217565b60405180910390f35b6103d560048036038101906103d09190612613565b611227565b005b6103f160048036038101906103ec9190612678565b611250565b60405161040396959493929190613232565b60405180910390f35b610426600480360381019061042191906126a1565b6112c6565b005b610442600480360381019061043d9190612754565b611484565b005b61045e60048036038101906104599190612678565b61156d565b60405161046b9190612f18565b60405180910390f35b60007f7965db0b000000000000000000000000000000000000000000000000000000007bffffffffffffffffffffffffffffffffffffffffffffffffffffffff1916827bffffffffffffffffffffffffffffffffffffffffffffffffffffffff191614806104e757506104e6826115eb565b5b9050919050565b7f68e79a7bf1e0bc45d0a330c573bc367f9cf464fd326078812f301165fbda4ef181565b6000801b61052781610522611655565b61165d565b6105468273ffffffffffffffffffffffffffffffffffffffff166116fa565b610585576040517f08c379a000000000000000000000000000000000000000000000000000000000815260040161057c90613197565b60405180910390fd5b600460008373ffffffffffffffffffffffffffffffffffffffff1673ffffffffffffffffffffffffffffffffffffffff16815260200190815260200160002060009054906101000a900460ff1615610612576040517f08c379a000000000000000000000000000000000000000000000000000000000815260040161060990613157565b60405180910390fd5b6001600460008473ffffffffffffffffffffffffffffffffffffffff1673ffffffffffffffffffffffffffffffffffffffff16815260200190815260200160002060006101000a81548160ff0219169083151502179055508173ffffffffffffffffffffffffffffffffffffffff167ff7fe8023cb2e36bde1d59a88ac5763a8c11be6d25e6819f71bb7e23e5bf0dc1660405160405180910390a25050565b6000806000838152602001908152602001600020600101549050919050565b6106d9826106b1565b6106ea816106e5611655565b61165d565b6106f4838361170d565b505050565b610701611655565b73ffffffffffffffffffffffffffffffffffffffff168173ffffffffffffffffffffffffffffffffffffffff161461076e576040517f08c379a0000000000000000000000000000000000000000000000000000000008152600401610765906131f7565b60405180910390fd5b61077882826117ed565b5050565b60036020528060005260406000206000915090508060000160009054906101000a900467ffffffffffffffff16908060010154908060020160009054906101000a900460ff16908060020160019054906101000a900473ffffffffffffffffffffffffffffffffffffffff16908060030160009054906101000a900473ffffffffffffffffffffffffffffffffffffffff16905085565b6000801b61082881610823611655565b61165d565b600560008360ff1660ff16815260200190815260200160002060009054906101000a900460ff1661088e576040517f08c379a0000000000000000000000000000000000000000000000000000000008152600401610885906131d7565b60405180910390fd5b6000600560008460ff1660ff16815260200190815260200160002060006101000a81548160ff0219169083151502179055507f9ec2302e7ee0398213255e47e2a84d3fe957e971b76286b0ee3e8136f1d5d690826040516108ef91906132e6565b60405180910390a15050565b60046020528060005260406000206000915054906101000a900460ff1681565b600061093c8573ffffffffffffffffffffffffffffffffffffffff166116fa565b61097b576040517f08c379a000000000000000000000000000000000000000000000000000000000815260040161097290613197565b60405180910390fd5b600460008673ffffffffffffffffffffffffffffffffffffffff1673ffffffffffffffffffffffffffffffffffffffff16815260200190815260200160002060009054906101000a900460ff16610a07576040517f08c379a00000000000000000000000000000000000000000000000000000000081526004016109fe90613017565b60405180910390fd5b600560008460ff1660ff16815260200190815260200160002060009054906101000a900460ff16610a6d576040517f08c379a0000000000000000000000000000000000000000000000000000000008152600401610a64906130b7565b60405180910390fd5b60008590508073ffffffffffffffffffffffffffffffffffffffff166379cc679033876040518363ffffffff1660e01b8152600401610aad929190612eef565b600060405180830381600087803b158015610ac757600080fd5b505af1158015610adb573d6000803e3d6000fd5b5050505060004390506040518060c001604052808281526020018781526020018660ff1681526020018581526020018873ffffffffffffffffffffffffffffffffffffffff1681526020016000151581525060066000838152602001908152602001600020600082015181600001556020820151816001015560408201518160020160006101000a81548160ff021916908360ff1602179055506060820151816003015560808201518160040160006101000a81548173ffffffffffffffffffffffffffffffffffffffff021916908373ffffffffffffffffffffffffffffffffffffffff16021790555060a08201518160040160146101000a81548160ff021916908315150217905550905050838773ffffffffffffffffffffffffffffffffffffffff16827f0af9a96d5eab584bc97107a072072e71ae2353e7fa0ad649f0a7bb5b542e0877888a33604051610c3593929190613301565b60405180910390a48092505050949350505050565b6000801b610c5f81610c5a611655565b61165d565b600460008373ffffffffffffffffffffffffffffffffffffffff1673ffffffffffffffffffffffffffffffffffffffff16815260200190815260200160002060009054906101000a900460ff16610ceb576040517f08c379a0000000000000000000000000000000000000000000000000000000008152600401610ce290613017565b60405180910390fd5b6000600460008473ffffffffffffffffffffffffffffffffffffffff1673ffffffffffffffffffffffffffffffffffffffff16815260200190815260200160002060006101000a81548160ff0219169083151502179055508173ffffffffffffffffffffffffffffffffffffffff167fca2a890939276223a9122217752c67608466faee388aff53f077d00a186a389b60405160405180910390a25050565b6000838051906020012090506000610da1826118ce565b9050600080600090505b858590508160ff161015610ebe5736600087878460ff16818110610df8577f4e487b7100000000000000000000000000000000000000000000000000000000600052603260045260246000fd5b9050602002810190610e0a9190613338565b915091506000610e6783838080601f016020809104026020016040519081016040528093929190818152602001838380828437600081840152601f19601f82011690508083019250505050505050876118fe90919063ffffffff16565b9050610e937f68e79a7bf1e0bc45d0a330c573bc367f9cf464fd326078812f301165fbda4ef18261117d565b15610ea857600185610ea591906134a6565b94505b5050508080610eb690613654565b915050610dab565b506001548160ff161015610f07576040517f08c379a0000000000000000000000000000000000000000000000000000000008152600401610efe90613137565b60405180910390fd5b6000610f1287611925565b9050806060015173ffffffffffffffffffffffffffffffffffffffff168873ffffffffffffffffffffffffffffffffffffffff1614610f86576040517f08c379a0000000000000000000000000000000000000000000000000000000008152600401610f7d90613177565b60405180910390fd5b600460008973ffffffffffffffffffffffffffffffffffffffff1673ffffffffffffffffffffffffffffffffffffffff16815260200190815260200160002060009054906101000a900460ff16611012576040517f08c379a0000000000000000000000000000000000000000000000000000000008152600401611009906131b7565b60405180910390fd5b3373ffffffffffffffffffffffffffffffffffffffff16816080015173ffffffffffffffffffffffffffffffffffffffff1614611084576040517f08c379a000000000000000000000000000000000000000000000000000000000815260040161107b90613077565b60405180910390fd5b60008890508073ffffffffffffffffffffffffffffffffffffffff166340c10f193384602001516040518363ffffffff1660e01b81526004016110c8929190612eef565b600060405180830381600087803b1580156110e257600080fd5b505af11580156110f6573d6000803e3d6000fd5b505050508873ffffffffffffffffffffffffffffffffffffffff163373ffffffffffffffffffffffffffffffffffffffff16836000015167ffffffffffffffff167fce3bcb6e219596cf26007ffdfaae8953bc3f76e3f36c0a79b23e28020da3222e856020015160405161116a9190613217565b60405180910390a4505050505050505050565b600080600084815260200190815260200160002060000160008373ffffffffffffffffffffffffffffffffffffffff1673ffffffffffffffffffffffffffffffffffffffff16815260200190815260200160002060009054906101000a900460ff16905092915050565b60056020528060005260406000206000915054906101000a900460ff1681565b600260009054906101000a900460ff1681565b6000801b81565b60015481565b611230826106b1565b6112418161123c611655565b61165d565b61124b83836117ed565b505050565b60066020528060005260406000206000915090508060000154908060010154908060020160009054906101000a900460ff16908060030154908060040160009054906101000a900473ffffffffffffffffffffffffffffffffffffffff16908060040160149054906101000a900460ff16905086565b7f68e79a7bf1e0bc45d0a330c573bc367f9cf464fd326078812f301165fbda4ef16112f8816112f3611655565b61165d565b600060066000858152602001908152602001600020600001541415611352576040517f08c379a000000000000000000000000000000000000000000000000000000000815260040161134990613057565b60405180910390fd5b6007600084815260200190815260200160002060003373ffffffffffffffffffffffffffffffffffffffff1673ffffffffffffffffffffffffffffffffffffffff16815260200190815260200160002060009054906101000a900460ff16156113f0576040517f08c379a00000000000000000000000000000000000000000000000000000000081526004016113e7906130f7565b60405180910390fd5b61141582600860008681526020019081526020016000206119bf90919063ffffffff16565b5060016007600085815260200190815260200160002060003373ffffffffffffffffffffffffffffffffffffffff1673ffffffffffffffffffffffffffffffffffffffff16815260200190815260200160002060006101000a81548160ff021916908315150217905550505050565b6000801b61149981611494611655565b61165d565b600560008360ff1660ff16815260200190815260200160002060009054906101000a900460ff1615611500576040517f08c379a00000000000000000000000000000000000000000000000000000000081526004016114f7906130d7565b60405180910390fd5b6001600560008460ff1660ff16815260200190815260200160002060006101000a81548160ff0219169083151502179055507f107f463c3897d19773c8ecf6fb76d96513e951afb85b9bf2dc319dd79cc4c04b8260405161156191906132e6565b60405180910390a15050565b60606000600660008481526020019081526020016000206000015414156115c9576040517f08c379a00000000000000000000000000000000000000000000000000000000081526004016115c090613057565b60405180910390fd5b6115e4600860008481526020019081526020016000206119d6565b9050919050565b60007f01ffc9a7000000000000000000000000000000000000000000000000000000007bffffffffffffffffffffffffffffffffffffffffffffffffffffffff1916827bffffffffffffffffffffffffffffffffffffffffffffffffffffffff1916149050919050565b600033905090565b611667828261117d565b6116f65761168c8173ffffffffffffffffffffffffffffffffffffffff1660146119eb565b61169a8360001c60206119eb565b6040516020016116ab929190612eb5565b6040516020818303038152906040526040517f08c379a00000000000000000000000000000000000000000000000000000000081526004016116ed9190612fb5565b60405180910390fd5b5050565b600080823b905060008111915050919050565b611717828261117d565b6117e957600160008084815260200190815260200160002060000160008373ffffffffffffffffffffffffffffffffffffffff1673ffffffffffffffffffffffffffffffffffffffff16815260200190815260200160002060006101000a81548160ff02191690831515021790555061178e611655565b73ffffffffffffffffffffffffffffffffffffffff168173ffffffffffffffffffffffffffffffffffffffff16837f2f8788117e7eff1d82e926ec794901d17c78024a50270940304540a733656f0d60405160405180910390a45b5050565b6117f7828261117d565b156118ca57600080600084815260200190815260200160002060000160008373ffffffffffffffffffffffffffffffffffffffff1673ffffffffffffffffffffffffffffffffffffffff16815260200190815260200160002060006101000a81548160ff02191690831515021790555061186f611655565b73ffffffffffffffffffffffffffffffffffffffff168173ffffffffffffffffffffffffffffffffffffffff16837ff6391f5c32d9c69d2a47ea670b442974b53935d1edc7fd64eb21e047a839171b60405160405180910390a45b5050565b6000816040516020016118e19190612e8f565b604051602081830303815290604052805190602001209050919050565b600080600061190d8585611ce5565b9150915061191a81611d68565b819250505092915050565b61192d612303565b60008060008060008680602001905181019061194991906126dd565b945094509450945094506040518060a001604052808667ffffffffffffffff1681526020018581526020018460ff1681526020018373ffffffffffffffffffffffffffffffffffffffff1681526020018273ffffffffffffffffffffffffffffffffffffffff1681525095505050505050919050565b60006119ce83600001836120b9565b905092915050565b60606119e482600001612129565b9050919050565b6060600060028360026119fe91906134dd565b611a089190613450565b67ffffffffffffffff811115611a47577f4e487b7100000000000000000000000000000000000000000000000000000000600052604160045260246000fd5b6040519080825280601f01601f191660200182016040528015611a795781602001600182028036833780820191505090505b5090507f300000000000000000000000000000000000000000000000000000000000000081600081518110611ad7577f4e487b7100000000000000000000000000000000000000000000000000000000600052603260045260246000fd5b60200101907effffffffffffffffffffffffffffffffffffffffffffffffffffffffffffff1916908160001a9053507f780000000000000000000000000000000000000000000000000000000000000081600181518110611b61577f4e487b7100000000000000000000000000000000000000000000000000000000600052603260045260246000fd5b60200101907effffffffffffffffffffffffffffffffffffffffffffffffffffffffffffff1916908160001a90535060006001846002611ba191906134dd565b611bab9190613450565b90505b6001811115611c97577f3031323334353637383961626364656600000000000000000000000000000000600f861660108110611c13577f4e487b7100000000000000000000000000000000000000000000000000000000600052603260045260246000fd5b1a60f81b828281518110611c50577f4e487b7100000000000000000000000000000000000000000000000000000000600052603260045260246000fd5b60200101907effffffffffffffffffffffffffffffffffffffffffffffffffffffffffffff1916908160001a905350600485901c945080611c909061362a565b9050611bae565b5060008414611cdb576040517f08c379a0000000000000000000000000000000000000000000000000000000008152600401611cd290612ff7565b60405180910390fd5b8091505092915050565b600080604183511415611d275760008060006020860151925060408601519150606086015160001a9050611d1b87828585612185565b94509450505050611d61565b604083511415611d58576000806020850151915060408501519050611d4d868383612292565b935093505050611d61565b60006002915091505b9250929050565b60006004811115611da2577f4e487b7100000000000000000000000000000000000000000000000000000000600052602160045260246000fd5b816004811115611ddb577f4e487b7100000000000000000000000000000000000000000000000000000000600052602160045260246000fd5b1415611de6576120b6565b60016004811115611e20577f4e487b7100000000000000000000000000000000000000000000000000000000600052602160045260246000fd5b816004811115611e59577f4e487b7100000000000000000000000000000000000000000000000000000000600052602160045260246000fd5b1415611e9a576040517f08c379a0000000000000000000000000000000000000000000000000000000008152600401611e9190612fd7565b60405180910390fd5b60026004811115611ed4577f4e487b7100000000000000000000000000000000000000000000000000000000600052602160045260246000fd5b816004811115611f0d577f4e487b7100000000000000000000000000000000000000000000000000000000600052602160045260246000fd5b1415611f4e576040517f08c379a0000000000000000000000000000000000000000000000000000000008152600401611f4590613037565b60405180910390fd5b60036004811115611f88577f4e487b7100000000000000000000000000000000000000000000000000000000600052602160045260246000fd5b816004811115611fc1577f4e487b7100000000000000000000000000000000000000000000000000000000600052602160045260246000fd5b1415612002576040517f08c379a0000000000000000000000000000000000000000000000000000000008152600401611ff990613097565b60405180910390fd5b60048081111561203b577f4e487b7100000000000000000000000000000000000000000000000000000000600052602160045260246000fd5b816004811115612074577f4e487b7100000000000000000000000000000000000000000000000000000000600052602160045260246000fd5b14156120b5576040517f08c379a00000000000000000000000000000000000000000000000000000000081526004016120ac90613117565b60405180910390fd5b5b50565b60006120c583836122e0565b61211e578260000182908060018154018082558091505060019003906000526020600020016000909190919091505582600001805490508360010160008481526020019081526020016000208190555060019050612123565b600090505b92915050565b60608160000180548060200260200160405190810160405280929190818152602001828054801561217957602002820191906000526020600020905b815481526020019060010190808311612165575b50505050509050919050565b6000807f7fffffffffffffffffffffffffffffff5d576e7357a4501ddfe92f46681b20a08360001c11156121c0576000600391509150612289565b601b8560ff16141580156121d85750601c8560ff1614155b156121ea576000600491509150612289565b60006001878787876040516000815260200160405260405161220f9493929190612f70565b6020604051602081039080840390855afa158015612231573d6000803e3d6000fd5b505050602060405103519050600073ffffffffffffffffffffffffffffffffffffffff168173ffffffffffffffffffffffffffffffffffffffff16141561228057600060019250925050612289565b80600092509250505b94509492505050565b6000806000807f7fffffffffffffffffffffffffffffffffffffffffffffffffffffffffffffff85169150601b8560ff1c0190506122d287828885612185565b935093505050935093915050565b600080836001016000848152602001908152602001600020541415905092915050565b6040518060a00160405280600067ffffffffffffffff16815260200160008152602001600060ff168152602001600073ffffffffffffffffffffffffffffffffffffffff168152602001600073ffffffffffffffffffffffffffffffffffffffff1681525090565b600061237e612379846133c0565b61338f565b90508281526020810184848401111561239657600080fd5b6123a18482856135e8565b509392505050565b6000813590506123b8816136f7565b92915050565b6000815190506123cd8161370e565b92915050565b60008083601f8401126123e557600080fd5b8235905067ffffffffffffffff8111156123fe57600080fd5b60208301915083602082028301111561241657600080fd5b9250929050565b60008135905061242c81613725565b92915050565b6000813590506124418161373c565b92915050565b600082601f83011261245857600080fd5b813561246884826020860161236b565b91505092915050565b60008135905061248081613753565b92915050565b60008151905061249581613753565b92915050565b6000815190506124aa8161376a565b92915050565b6000813590506124bf81613781565b92915050565b6000815190506124d481613781565b92915050565b6000602082840312156124ec57600080fd5b60006124fa848285016123a9565b91505092915050565b6000806000806060858703121561251957600080fd5b6000612527878288016123a9565b945050602085013567ffffffffffffffff81111561254457600080fd5b61255087828801612447565b935050604085013567ffffffffffffffff81111561256d57600080fd5b612579878288016123d3565b925092505092959194509250565b6000806000806080858703121561259d57600080fd5b60006125ab878288016123a9565b94505060206125bc87828801612471565b93505060406125cd878288016124b0565b92505060606125de8782880161241d565b91505092959194509250565b6000602082840312156125fc57600080fd5b600061260a8482850161241d565b91505092915050565b6000806040838503121561262657600080fd5b60006126348582860161241d565b9250506020612645858286016123a9565b9150509250929050565b60006020828403121561266157600080fd5b600061266f84828501612432565b91505092915050565b60006020828403121561268a57600080fd5b600061269884828501612471565b91505092915050565b600080604083850312156126b457600080fd5b60006126c285828601612471565b92505060206126d38582860161241d565b9150509250929050565b600080600080600060a086880312156126f557600080fd5b60006127038882890161249b565b955050602061271488828901612486565b9450506040612725888289016124c5565b9350506060612736888289016123be565b9250506080612747888289016123be565b9150509295509295909350565b60006020828403121561276657600080fd5b6000612774848285016124b0565b91505092915050565b60006127898383612811565b60208301905092915050565b61279e81613537565b82525050565b60006127af82613400565b6127b98185613423565b93506127c4836133f0565b8060005b838110156127f55781516127dc888261277d565b97506127e783613416565b9250506001810190506127c8565b5085935050505092915050565b61280b8161355b565b82525050565b61281a81613567565b82525050565b61282981613567565b82525050565b61284061283b82613567565b61367e565b82525050565b60006128518261340b565b61285b8185613434565b935061286b8185602086016135f7565b612874816136e6565b840191505092915050565b600061288a8261340b565b6128948185613445565b93506128a48185602086016135f7565b80840191505092915050565b60006128bd601883613434565b91507f45434453413a20696e76616c6964207369676e617475726500000000000000006000830152602082019050919050565b60006128fd602083613434565b91507f537472696e67733a20686578206c656e67746820696e73756666696369656e746000830152602082019050919050565b600061293d601683613434565b91507f546f6b656e206973206e6f7420737570706f72746564000000000000000000006000830152602082019050919050565b600061297d601f83613434565b91507f45434453413a20696e76616c6964207369676e6174757265206c656e677468006000830152602082019050919050565b60006129bd601c83613445565b91507f19457468657265756d205369676e6564204d6573736167653a0a3332000000006000830152601c82019050919050565b60006129fd601683613434565b91507f53656e6420496420646f6573206e6f74206578697374000000000000000000006000830152602082019050919050565b6000612a3d601683613434565b91507f4e6f7420656c696769626c6520666f7220636c61696d000000000000000000006000830152602082019050919050565b6000612a7d602283613434565b91507f45434453413a20696e76616c6964207369676e6174757265202773272076616c60008301527f75650000000000000000000000000000000000000000000000000000000000006020830152604082019050919050565b6000612ae3601683613434565b91507f4e6f7420537570706f7274656420436861696e204944000000000000000000006000830152602082019050919050565b6000612b23601983613434565b91507f436861696e496420616c726561647920737570706f72746564000000000000006000830152602082019050919050565b6000612b63601583613434565b91507f4f7261636c6520616c7265616479207369676e656400000000000000000000006000830152602082019050919050565b6000612ba3602283613434565b91507f45434453413a20696e76616c6964207369676e6174757265202776272076616c60008301527f75650000000000000000000000000000000000000000000000000000000000006020830152604082019050919050565b6000612c09601b83613434565b91507f4e6f7420656e6f7567682076616c6964207369676e61747572657300000000006000830152602082019050919050565b6000612c49601a83613434565b91507f546f6b656e20697320616c726561647920737570706f727465640000000000006000830152602082019050919050565b6000612c89601583613434565b91507f496e76616c696420746f6b656e206164647265737300000000000000000000006000830152602082019050919050565b6000612cc9601983613434565b91507f41646472657373206973206e6f74206120636f6e7472616374000000000000006000830152602082019050919050565b6000612d09601783613445565b91507f416363657373436f6e74726f6c3a206163636f756e74200000000000000000006000830152601782019050919050565b6000612d49601983613434565b91507f556e737570706f7274656420746f6b656e2061646472657373000000000000006000830152602082019050919050565b6000612d89601583613434565b91507f436861696e4964206e6f7420737570706f7274656400000000000000000000006000830152602082019050919050565b6000612dc9601183613445565b91507f206973206d697373696e6720726f6c65200000000000000000000000000000006000830152601182019050919050565b6000612e09602f83613434565b91507f416363657373436f6e74726f6c3a2063616e206f6e6c792072656e6f756e636560008301527f20726f6c657320666f722073656c6600000000000000000000000000000000006020830152604082019050919050565b612e6b816135bd565b82525050565b612e7a816135c7565b82525050565b612e89816135db565b82525050565b6000612e9a826129b0565b9150612ea6828461282f565b60208201915081905092915050565b6000612ec082612cfc565b9150612ecc828561287f565b9150612ed782612dbc565b9150612ee3828461287f565b91508190509392505050565b6000604082019050612f046000830185612795565b612f116020830184612e62565b9392505050565b60006020820190508181036000830152612f3281846127a4565b905092915050565b6000602082019050612f4f6000830184612802565b92915050565b6000602082019050612f6a6000830184612820565b92915050565b6000608082019050612f856000830187612820565b612f926020830186612e80565b612f9f6040830185612820565b612fac6060830184612820565b95945050505050565b60006020820190508181036000830152612fcf8184612846565b905092915050565b60006020820190508181036000830152612ff0816128b0565b9050919050565b60006020820190508181036000830152613010816128f0565b9050919050565b6000602082019050818103600083015261303081612930565b9050919050565b6000602082019050818103600083015261305081612970565b9050919050565b60006020820190508181036000830152613070816129f0565b9050919050565b6000602082019050818103600083015261309081612a30565b9050919050565b600060208201905081810360008301526130b081612a70565b9050919050565b600060208201905081810360008301526130d081612ad6565b9050919050565b600060208201905081810360008301526130f081612b16565b9050919050565b6000602082019050818103600083015261311081612b56565b9050919050565b6000602082019050818103600083015261313081612b96565b9050919050565b6000602082019050818103600083015261315081612bfc565b9050919050565b6000602082019050818103600083015261317081612c3c565b9050919050565b6000602082019050818103600083015261319081612c7c565b9050919050565b600060208201905081810360008301526131b081612cbc565b9050919050565b600060208201905081810360008301526131d081612d3c565b9050919050565b600060208201905081810360008301526131f081612d7c565b9050919050565b6000602082019050818103600083015261321081612dfc565b9050919050565b600060208201905061322c6000830184612e62565b92915050565b600060c0820190506132476000830189612e62565b6132546020830188612e62565b6132616040830187612e80565b61326e6060830186612820565b61327b6080830185612795565b61328860a0830184612802565b979650505050505050565b600060a0820190506132a86000830188612e71565b6132b56020830187612e62565b6132c26040830186612e80565b6132cf6060830185612795565b6132dc6080830184612795565b9695505050505050565b60006020820190506132fb6000830184612e80565b92915050565b60006060820190506133166000830186612e80565b6133236020830185612e62565b6133306040830184612795565b949350505050565b6000808335600160200384360303811261335157600080fd5b80840192508235915067ffffffffffffffff82111561336f57600080fd5b60208301925060018202360383131561338757600080fd5b509250929050565b6000604051905081810181811067ffffffffffffffff821117156133b6576133b56136b7565b5b8060405250919050565b600067ffffffffffffffff8211156133db576133da6136b7565b5b601f19601f8301169050602081019050919050565b6000819050602082019050919050565b600081519050919050565b600081519050919050565b6000602082019050919050565b600082825260208201905092915050565b600082825260208201905092915050565b600081905092915050565b600061345b826135bd565b9150613466836135bd565b9250827fffffffffffffffffffffffffffffffffffffffffffffffffffffffffffffffff0382111561349b5761349a613688565b5b828201905092915050565b60006134b1826135db565b91506134bc836135db565b92508260ff038211156134d2576134d1613688565b5b828201905092915050565b60006134e8826135bd565b91506134f3836135bd565b9250817fffffffffffffffffffffffffffffffffffffffffffffffffffffffffffffffff048311821515161561352c5761352b613688565b5b828202905092915050565b60006135428261359d565b9050919050565b60006135548261359d565b9050919050565b60008115159050919050565b6000819050919050565b60007fffffffff0000000000000000000000000000000000000000000000000000000082169050919050565b600073ffffffffffffffffffffffffffffffffffffffff82169050919050565b6000819050919050565b600067ffffffffffffffff82169050919050565b600060ff82169050919050565b82818337600083830152505050565b60005b838110156136155780820151818401526020810190506135fa565b83811115613624576000848401525b50505050565b6000613635826135bd565b9150600082141561364957613648613688565b5b600182039050919050565b600061365f826135db565b915060ff82141561367357613672613688565b5b600182019050919050565b6000819050919050565b7f4e487b7100000000000000000000000000000000000000000000000000000000600052601160045260246000fd5b7f4e487b7100000000000000000000000000000000000000000000000000000000600052604160045260246000fd5b6000601f19601f8301169050919050565b61370081613537565b811461370b57600080fd5b50565b61371781613549565b811461372257600080fd5b50565b61372e81613567565b811461373957600080fd5b50565b61374581613571565b811461375057600080fd5b50565b61375c816135bd565b811461376757600080fd5b50565b613773816135c7565b811461377e57600080fd5b50565b61378a816135db565b811461379557600080fd5b5056fea2646970667358221220ccc2ba0228ab192319329448470195e85626c585af93d3c72746f8072fcb67ba64736f6c63430008000033",
  "immutableReferences": {},
  "source": "// contracts/BluToken.sol\n// SPDX-License-Identifier: MIT\npragma solidity ^0.8.0;\n\nimport \"@openzeppelin/contracts/access/AccessControl.sol\";\nimport \"@openzeppelin/contracts/utils/cryptography/ECDSA.sol\";\nimport \"@openzeppelin/contracts/token/ERC20/extensions/ERC20Burnable.sol\";\nimport \"@openzeppelin/contracts/utils/structs/EnumerableSet.sol\";\nimport \"@openzeppelin/contracts/utils/Address.sol\";\n\nabstract contract BridgeERC20 is ERC20Burnable {\n    function mint(address account, uint256 amount) public virtual;\n}\n\nstruct TransferData {\n    uint64 id;\n    uint256 amount;\n    uint8 chainId;\n    address tokenAddress;\n    address toAddress;\n}\n\nstruct SendTransferData {\n    uint256 id;\n    uint256 amount;\n    uint8 chainId;\n    bytes32 toAddress;\n    address tokenContractAddress;\n    bool claimed;\n}\n\ncontract TokenBridge is AccessControl {\n    using ECDSA for bytes32;\n    using Address for address;\n    using EnumerableSet for EnumerableSet.Bytes32Set;\n\n    event RegisterToken(address indexed tokenAddress);\n    event UnregisterToken(address indexed tokenAddress);\n    event RegisterChainId(uint8 recepientChainId);\n    event UnregisterChainId(uint8 recepientChainId);\n    event Claimed(\n        uint256 indexed id,\n        address indexed toAddress,\n        address indexed tokenAddress,\n        uint256 amount\n    );\n\n    event Sent(\n        uint256 indexed id,\n        address indexed tokenAddress,\n        bytes32 indexed toAddress,\n        uint8 toChainId,\n        uint256 amount,\n        address fromAddress\n    );\n\n    bytes32 public constant ORACLE_ROLE = keccak256(\"ORACLE_ROLE\");\n    uint256 public minimumOracleConfirmations = 3;\n    uint8 public chainId;\n\n    mapping(uint256 => TransferData) public tansferMap;\n    mapping(address => bool) public supportedTokens;\n    mapping(uint8 => bool) public supportedChainIds;\n\n    mapping(uint256 => SendTransferData) public sendTransferMap;\n    mapping(uint256 => mapping(address => bool)) signatureLookup;\n    mapping(uint256 => EnumerableSet.Bytes32Set) sendTransferSignatures;\n\n    constructor(uint8 _chainId) {\n        _setupRole(DEFAULT_ADMIN_ROLE, msg.sender);\n        chainId = _chainId;\n    }\n\n    function registerToken(address tokenContractAddress)\n        public\n        onlyRole(DEFAULT_ADMIN_ROLE)\n    {\n        require(tokenContractAddress.isContract(), \"Address is not a contract\");\n        require(\n            !supportedTokens[tokenContractAddress],\n            \"Token is already supported\"\n        );\n        supportedTokens[tokenContractAddress] = true;\n        emit RegisterToken(tokenContractAddress);\n    }\n\n    function unregisterToken(address tokenContractAddress)\n        public\n        onlyRole(DEFAULT_ADMIN_ROLE)\n    {\n        require(\n            supportedTokens[tokenContractAddress],\n            \"Token is not supported\"\n        );\n        supportedTokens[tokenContractAddress] = false;\n        emit UnregisterToken(tokenContractAddress);\n    }\n\n    function registerChainId(uint8 recepientChainId)\n        public\n        onlyRole(DEFAULT_ADMIN_ROLE)\n    {\n        require(\n            !supportedChainIds[recepientChainId],\n            \"ChainId already supported\"\n        );\n        supportedChainIds[recepientChainId] = true;\n        emit RegisterChainId(recepientChainId);\n    }\n\n    function ungisterChainId(uint8 recepientChainId)\n        public\n        onlyRole(DEFAULT_ADMIN_ROLE)\n    {\n        require(supportedChainIds[recepientChainId], \"ChainId not supported\");\n        supportedChainIds[recepientChainId] = false;\n        emit UnregisterChainId(recepientChainId);\n    }\n\n    function _extractTransferData(bytes memory data)\n        internal\n        pure\n        returns (TransferData memory transferData)\n    {\n        (\n            uint64 id,\n            uint256 amount,\n            uint8 toChainId,\n            address tokenAddress,\n            address toAddress\n        ) = abi.decode(data, (uint64, uint256, uint8, address, address));\n\n        transferData = TransferData({\n            id: id,\n            amount: amount,\n            chainId: toChainId,\n            tokenAddress: tokenAddress,\n            toAddress: toAddress\n        });\n    }\n\n    function send(\n        address tokenContractAddress,\n        uint256 amount,\n        uint8 toChainId,\n        bytes32 toAddress\n    ) public returns (uint256) {\n        require(tokenContractAddress.isContract(), \"Address is not a contract\");\n        require(\n            supportedTokens[tokenContractAddress],\n            \"Token is not supported\"\n        );\n        require(supportedChainIds[toChainId], \"Not Supported Chain ID\");\n\n        BridgeERC20 erc20 = BridgeERC20(tokenContractAddress);\n        erc20.burnFrom(msg.sender, amount);\n\n        uint256 id = block.number;\n        sendTransferMap[id] = SendTransferData({\n            id: id,\n            amount: amount,\n            chainId: toChainId,\n            toAddress: toAddress,\n            tokenContractAddress: tokenContractAddress,\n            claimed: false\n        });\n\n        emit Sent(\n            id,\n            tokenContractAddress,\n            toAddress,\n            toChainId,\n            amount,\n            msg.sender\n        );\n        return id;\n    }\n\n    function getSignatures(uint256 sendId)\n        public\n        view\n        returns (bytes32[] memory)\n    {\n        require(sendTransferMap[sendId].id != 0, \"Send Id does not exist\");\n        return sendTransferSignatures[sendId].values();\n    }\n\n    function sign(uint256 sendId, bytes32 signature)\n        public\n        onlyRole(ORACLE_ROLE)\n    {\n        require(sendTransferMap[sendId].id != 0, \"Send Id does not exist\");\n        require(!signatureLookup[sendId][msg.sender], \"Oracle already signed\");\n\n        sendTransferSignatures[sendId].add(signature);\n        signatureLookup[sendId][msg.sender] = true;\n    }\n\n    function claim(\n        address tokenAddress,\n        bytes memory data,\n        bytes[] calldata signatures\n    ) public {\n        bytes32 message = keccak256(data);\n        bytes32 hashed = message.toEthSignedMessageHash();\n        uint8 validSignatures;\n        for (uint8 i = 0; i < signatures.length; i++) {\n            bytes calldata signature = signatures[i];\n            address signer = hashed.recover(signature);\n            if (hasRole(ORACLE_ROLE, signer)) {\n                validSignatures += 1;\n            }\n        }\n        require(\n            validSignatures >= minimumOracleConfirmations,\n            \"Not enough valid signatures\"\n        );\n\n        TransferData memory transferData = _extractTransferData(data);\n\n        require(\n            tokenAddress == transferData.tokenAddress,\n            \"Invalid token address\"\n        );\n\n        require(supportedTokens[tokenAddress], \"Unsupported token address\");\n\n        require(transferData.toAddress == msg.sender, \"Not eligible for claim\");\n\n        BridgeERC20 erc20 = BridgeERC20(tokenAddress);\n        erc20.mint(msg.sender, transferData.amount);\n\n        emit Claimed(\n            transferData.id,\n            msg.sender,\n            tokenAddress,\n            transferData.amount\n        );\n    }\n}\n",
  "sourcePath": "/Users/ted/projects/BluBridge/smart_contracts/polygon/contracts/BluBridge.sol",
  "compiler": {
    "name": "solc",
    "version": "0.8.0+commit.c7dfd78e.Emscripten.clang"
  },
  "schemaVersion": "3.4.3",
  "updatedAt": "2021-11-15T13:28:19.647Z",
  "networkType": "ethereum",
  "devdoc": {
    "kind": "dev",
    "methods": {
      "getRoleAdmin(bytes32)": {
        "details": "Returns the admin role that controls `role`. See {grantRole} and {revokeRole}. To change a role's admin, use {_setRoleAdmin}."
      },
      "grantRole(bytes32,address)": {
        "details": "Grants `role` to `account`. If `account` had not been already granted `role`, emits a {RoleGranted} event. Requirements: - the caller must have ``role``'s admin role."
      },
      "hasRole(bytes32,address)": {
        "details": "Returns `true` if `account` has been granted `role`."
      },
      "renounceRole(bytes32,address)": {
        "details": "Revokes `role` from the calling account. Roles are often managed via {grantRole} and {revokeRole}: this function's purpose is to provide a mechanism for accounts to lose their privileges if they are compromised (such as when a trusted device is misplaced). If the calling account had been granted `role`, emits a {RoleRevoked} event. Requirements: - the caller must be `account`."
      },
      "revokeRole(bytes32,address)": {
        "details": "Revokes `role` from `account`. If `account` had been granted `role`, emits a {RoleRevoked} event. Requirements: - the caller must have ``role``'s admin role."
      },
      "supportsInterface(bytes4)": {
        "details": "See {IERC165-supportsInterface}."
      }
    },
    "version": 1
  },
  "userdoc": {
    "kind": "user",
    "methods": {},
    "version": 1
  }
}